{
  "contractName": "DPoS",
  "abi": [
    {
      "constant": false,
      "inputs": [
        {
          "name": "account",
          "type": "address"
        }
      ],
      "name": "addWhitelisted",
      "outputs": [],
      "payable": false,
      "stateMutability": "nonpayable",
      "type": "function"
    },
    {
      "constant": true,
      "inputs": [],
      "name": "nextParamProposalId",
      "outputs": [
        {
          "name": "",
          "type": "uint256"
        }
      ],
      "payable": false,
      "stateMutability": "view",
      "type": "function"
    },
    {
      "constant": false,
      "inputs": [
        {
          "name": "account",
          "type": "address"
        }
      ],
      "name": "removeWhitelisted",
      "outputs": [],
      "payable": false,
      "stateMutability": "nonpayable",
      "type": "function"
    },
    {
      "constant": true,
      "inputs": [],
      "name": "nextSidechainProposalId",
      "outputs": [
        {
          "name": "",
          "type": "uint256"
        }
      ],
      "payable": false,
      "stateMutability": "view",
      "type": "function"
    },
    {
      "constant": false,
      "inputs": [
        {
          "name": "_record",
          "type": "uint256"
        },
        {
          "name": "_value",
          "type": "uint256"
        }
      ],
      "name": "createParamProposal",
      "outputs": [],
      "payable": false,
      "stateMutability": "nonpayable",
      "type": "function"
    },
    {
      "constant": true,
      "inputs": [
        {
          "name": "_sidechainAddr",
          "type": "address"
        }
      ],
      "name": "isSidechainRegistered",
      "outputs": [
        {
          "name": "",
          "type": "bool"
        }
      ],
      "payable": false,
      "stateMutability": "view",
      "type": "function"
    },
    {
      "constant": true,
      "inputs": [
        {
          "name": "",
          "type": "address"
        }
      ],
      "name": "checkedValidators",
      "outputs": [
        {
          "name": "",
          "type": "bool"
        }
      ],
      "payable": false,
      "stateMutability": "view",
      "type": "function"
    },
    {
      "constant": true,
      "inputs": [],
      "name": "dposGoLiveTime",
      "outputs": [
        {
          "name": "",
          "type": "uint256"
        }
      ],
      "payable": false,
      "stateMutability": "view",
      "type": "function"
    },
    {
      "constant": true,
      "inputs": [
        {
          "name": "account",
          "type": "address"
        }
      ],
      "name": "isWhitelisted",
      "outputs": [
        {
          "name": "",
          "type": "bool"
        }
      ],
      "payable": false,
      "stateMutability": "view",
      "type": "function"
    },
    {
      "constant": false,
      "inputs": [],
      "name": "unpause",
      "outputs": [],
      "payable": false,
      "stateMutability": "nonpayable",
      "type": "function"
    },
    {
      "constant": true,
      "inputs": [
        {
          "name": "account",
          "type": "address"
        }
      ],
      "name": "isPauser",
      "outputs": [
        {
          "name": "",
          "type": "bool"
        }
      ],
      "payable": false,
      "stateMutability": "view",
      "type": "function"
    },
    {
      "constant": true,
      "inputs": [
        {
          "name": "",
          "type": "address"
        }
      ],
      "name": "registeredSidechains",
      "outputs": [
        {
          "name": "",
          "type": "bool"
        }
      ],
      "payable": false,
      "stateMutability": "view",
      "type": "function"
    },
    {
      "constant": false,
      "inputs": [],
      "name": "renounceWhitelistAdmin",
      "outputs": [],
      "payable": false,
      "stateMutability": "nonpayable",
      "type": "function"
    },
    {
      "constant": true,
      "inputs": [],
      "name": "governToken",
      "outputs": [
        {
          "name": "",
          "type": "address"
        }
      ],
      "payable": false,
      "stateMutability": "view",
      "type": "function"
    },
    {
      "constant": true,
      "inputs": [
        {
          "name": "_proposalId",
          "type": "uint256"
        },
        {
          "name": "_voter",
          "type": "address"
        }
      ],
      "name": "getParamProposalVote",
      "outputs": [
        {
          "name": "",
          "type": "uint8"
        }
      ],
      "payable": false,
      "stateMutability": "view",
      "type": "function"
    },
    {
      "constant": true,
      "inputs": [],
      "name": "paused",
      "outputs": [
        {
          "name": "",
          "type": "bool"
        }
      ],
      "payable": false,
      "stateMutability": "view",
      "type": "function"
    },
    {
      "constant": true,
      "inputs": [
        {
          "name": "_record",
          "type": "uint256"
        }
      ],
      "name": "getUIntValue",
      "outputs": [
        {
          "name": "",
          "type": "uint256"
        }
      ],
      "payable": false,
      "stateMutability": "view",
      "type": "function"
    },
    {
      "constant": true,
      "inputs": [
        {
          "name": "",
          "type": "uint256"
        }
      ],
      "name": "UIntStorage",
      "outputs": [
        {
          "name": "",
          "type": "uint256"
        }
      ],
      "payable": false,
      "stateMutability": "view",
      "type": "function"
    },
    {
      "constant": false,
      "inputs": [],
      "name": "renouncePauser",
      "outputs": [],
      "payable": false,
      "stateMutability": "nonpayable",
      "type": "function"
    },
    {
      "constant": false,
      "inputs": [],
      "name": "renounceOwnership",
      "outputs": [],
      "payable": false,
      "stateMutability": "nonpayable",
      "type": "function"
    },
    {
      "constant": true,
      "inputs": [],
      "name": "miningPool",
      "outputs": [
        {
          "name": "",
          "type": "uint256"
        }
      ],
      "payable": false,
      "stateMutability": "view",
      "type": "function"
    },
    {
      "constant": false,
      "inputs": [
        {
          "name": "account",
          "type": "address"
        }
      ],
      "name": "addWhitelistAdmin",
      "outputs": [],
      "payable": false,
      "stateMutability": "nonpayable",
      "type": "function"
    },
    {
      "constant": true,
      "inputs": [
        {
          "name": "",
          "type": "uint256"
        }
      ],
      "name": "paramProposals",
      "outputs": [
        {
          "name": "proposer",
          "type": "address"
        },
        {
          "name": "deposit",
          "type": "uint256"
        },
        {
          "name": "voteDeadline",
          "type": "uint256"
        },
        {
          "name": "record",
          "type": "uint256"
        },
        {
          "name": "newValue",
          "type": "uint256"
        },
        {
          "name": "status",
          "type": "uint8"
        }
      ],
      "payable": false,
      "stateMutability": "view",
      "type": "function"
    },
    {
      "constant": false,
      "inputs": [
        {
          "name": "account",
          "type": "address"
        }
      ],
      "name": "addPauser",
      "outputs": [],
      "payable": false,
      "stateMutability": "nonpayable",
      "type": "function"
    },
    {
      "constant": false,
      "inputs": [],
      "name": "pause",
      "outputs": [],
      "payable": false,
      "stateMutability": "nonpayable",
      "type": "function"
    },
    {
      "constant": true,
      "inputs": [
        {
          "name": "_proposalId",
          "type": "uint256"
        },
        {
          "name": "_voter",
          "type": "address"
        }
      ],
      "name": "getSidechainProposalVote",
      "outputs": [
        {
          "name": "",
          "type": "uint8"
        }
      ],
      "payable": false,
      "stateMutability": "view",
      "type": "function"
    },
    {
      "constant": true,
      "inputs": [
        {
          "name": "",
          "type": "address"
        }
      ],
      "name": "redeemedMiningReward",
      "outputs": [
        {
          "name": "",
          "type": "uint256"
        }
      ],
      "payable": false,
      "stateMutability": "view",
      "type": "function"
    },
    {
      "constant": true,
      "inputs": [],
      "name": "owner",
      "outputs": [
        {
          "name": "",
          "type": "address"
        }
      ],
      "payable": false,
      "stateMutability": "view",
      "type": "function"
    },
    {
      "constant": true,
      "inputs": [],
      "name": "isOwner",
      "outputs": [
        {
          "name": "",
          "type": "bool"
        }
      ],
      "payable": false,
      "stateMutability": "view",
      "type": "function"
    },
    {
      "constant": false,
      "inputs": [
        {
          "name": "_addr",
          "type": "address"
        }
      ],
      "name": "registerSidechain",
      "outputs": [],
      "payable": false,
      "stateMutability": "nonpayable",
      "type": "function"
    },
    {
      "constant": true,
      "inputs": [
        {
          "name": "account",
          "type": "address"
        }
      ],
      "name": "isWhitelistAdmin",
      "outputs": [
        {
          "name": "",
          "type": "bool"
        }
      ],
      "payable": false,
      "stateMutability": "view",
      "type": "function"
    },
    {
      "constant": true,
      "inputs": [],
      "name": "COMMISSION_RATE_BASE",
      "outputs": [
        {
          "name": "",
          "type": "uint256"
        }
      ],
      "payable": false,
      "stateMutability": "view",
      "type": "function"
    },
    {
      "constant": true,
      "inputs": [],
      "name": "celerToken",
      "outputs": [
        {
          "name": "",
          "type": "address"
        }
      ],
      "payable": false,
      "stateMutability": "view",
      "type": "function"
    },
    {
      "constant": true,
      "inputs": [],
      "name": "enableWhitelist",
      "outputs": [
        {
          "name": "",
          "type": "bool"
        }
      ],
      "payable": false,
      "stateMutability": "view",
      "type": "function"
    },
    {
      "constant": false,
      "inputs": [],
      "name": "renounceWhitelisted",
      "outputs": [],
      "payable": false,
      "stateMutability": "nonpayable",
      "type": "function"
    },
    {
      "constant": false,
      "inputs": [
        {
          "name": "_sidechainAddr",
          "type": "address"
        },
        {
          "name": "_registered",
          "type": "bool"
        }
      ],
      "name": "createSidechainProposal",
      "outputs": [],
      "payable": false,
      "stateMutability": "nonpayable",
      "type": "function"
    },
    {
      "constant": true,
      "inputs": [
        {
          "name": "",
          "type": "uint256"
        }
      ],
      "name": "validatorSet",
      "outputs": [
        {
          "name": "",
          "type": "address"
        }
      ],
      "payable": false,
      "stateMutability": "view",
      "type": "function"
    },
    {
      "constant": true,
      "inputs": [
        {
          "name": "",
          "type": "uint256"
        }
      ],
      "name": "sidechainProposals",
      "outputs": [
        {
          "name": "proposer",
          "type": "address"
        },
        {
          "name": "deposit",
          "type": "uint256"
        },
        {
          "name": "voteDeadline",
          "type": "uint256"
        },
        {
          "name": "sidechainAddr",
          "type": "address"
        },
        {
          "name": "registered",
          "type": "bool"
        },
        {
          "name": "status",
          "type": "uint8"
        }
      ],
      "payable": false,
      "stateMutability": "view",
      "type": "function"
    },
    {
      "constant": false,
      "inputs": [
        {
          "name": "newOwner",
          "type": "address"
        }
      ],
      "name": "transferOwnership",
      "outputs": [],
      "payable": false,
      "stateMutability": "nonpayable",
      "type": "function"
    },
    {
      "constant": true,
      "inputs": [
        {
          "name": "",
          "type": "uint256"
        }
      ],
      "name": "usedPenaltyNonce",
      "outputs": [
        {
          "name": "",
          "type": "bool"
        }
      ],
      "payable": false,
      "stateMutability": "view",
      "type": "function"
    },
    {
      "inputs": [
        {
          "name": "_celerTokenAddress",
          "type": "address"
        },
        {
          "name": "_governProposalDeposit",
          "type": "uint256"
        },
        {
          "name": "_governVoteTimeout",
          "type": "uint256"
        },
        {
          "name": "_slashTimeout",
          "type": "uint256"
        },
        {
          "name": "_minValidatorNum",
          "type": "uint256"
        },
        {
          "name": "_maxValidatorNum",
          "type": "uint256"
        },
        {
          "name": "_minStakeInPool",
          "type": "uint256"
        },
        {
          "name": "_advanceNoticePeriod",
          "type": "uint256"
        },
        {
          "name": "_dposGoLiveTimeout",
          "type": "uint256"
        }
      ],
      "payable": false,
      "stateMutability": "nonpayable",
      "type": "constructor"
    },
    {
      "anonymous": false,
      "inputs": [
        {
          "indexed": true,
          "name": "account",
          "type": "address"
        }
      ],
      "name": "WhitelistedAdded",
      "type": "event"
    },
    {
      "anonymous": false,
      "inputs": [
        {
          "indexed": true,
          "name": "account",
          "type": "address"
        }
      ],
      "name": "WhitelistedRemoved",
      "type": "event"
    },
    {
      "anonymous": false,
      "inputs": [
        {
          "indexed": true,
          "name": "account",
          "type": "address"
        }
      ],
      "name": "WhitelistAdminAdded",
      "type": "event"
    },
    {
      "anonymous": false,
      "inputs": [
        {
          "indexed": true,
          "name": "account",
          "type": "address"
        }
      ],
      "name": "WhitelistAdminRemoved",
      "type": "event"
    },
    {
      "anonymous": false,
      "inputs": [
        {
          "indexed": false,
          "name": "account",
          "type": "address"
        }
      ],
      "name": "Paused",
      "type": "event"
    },
    {
      "anonymous": false,
      "inputs": [
        {
          "indexed": false,
          "name": "account",
          "type": "address"
        }
      ],
      "name": "Unpaused",
      "type": "event"
    },
    {
      "anonymous": false,
      "inputs": [
        {
          "indexed": true,
          "name": "previousOwner",
          "type": "address"
        },
        {
          "indexed": true,
          "name": "newOwner",
          "type": "address"
        }
      ],
      "name": "OwnershipTransferred",
      "type": "event"
    },
    {
      "anonymous": false,
      "inputs": [
        {
          "indexed": false,
          "name": "proposalId",
          "type": "uint256"
        },
        {
          "indexed": false,
          "name": "proposer",
          "type": "address"
        },
        {
          "indexed": false,
          "name": "deposit",
          "type": "uint256"
        },
        {
          "indexed": false,
          "name": "voteDeadline",
          "type": "uint256"
        },
        {
          "indexed": false,
          "name": "record",
          "type": "uint256"
        },
        {
          "indexed": false,
          "name": "newValue",
          "type": "uint256"
        }
      ],
      "name": "CreateParamProposal",
      "type": "event"
    },
    {
      "anonymous": false,
      "inputs": [
        {
          "indexed": false,
          "name": "proposalId",
          "type": "uint256"
        },
        {
          "indexed": false,
          "name": "voter",
          "type": "address"
        },
        {
          "indexed": false,
          "name": "voteType",
          "type": "uint8"
        }
      ],
      "name": "VoteParam",
      "type": "event"
    },
    {
      "anonymous": false,
      "inputs": [
        {
          "indexed": false,
          "name": "proposalId",
          "type": "uint256"
        },
        {
          "indexed": false,
          "name": "passed",
          "type": "bool"
        },
        {
          "indexed": false,
          "name": "record",
          "type": "uint256"
        },
        {
          "indexed": false,
          "name": "newValue",
          "type": "uint256"
        }
      ],
      "name": "ConfirmParamProposal",
      "type": "event"
    },
    {
      "anonymous": false,
      "inputs": [
        {
          "indexed": false,
          "name": "proposalId",
          "type": "uint256"
        },
        {
          "indexed": false,
          "name": "proposer",
          "type": "address"
        },
        {
          "indexed": false,
          "name": "deposit",
          "type": "uint256"
        },
        {
          "indexed": false,
          "name": "voteDeadline",
          "type": "uint256"
        },
        {
          "indexed": false,
          "name": "sidechainAddr",
          "type": "address"
        },
        {
          "indexed": false,
          "name": "registered",
          "type": "bool"
        }
      ],
      "name": "CreateSidechainProposal",
      "type": "event"
    },
    {
      "anonymous": false,
      "inputs": [
        {
          "indexed": false,
          "name": "proposalId",
          "type": "uint256"
        },
        {
          "indexed": false,
          "name": "voter",
          "type": "address"
        },
        {
          "indexed": false,
          "name": "voteType",
          "type": "uint8"
        }
      ],
      "name": "VoteSidechain",
      "type": "event"
    },
    {
      "anonymous": false,
      "inputs": [
        {
          "indexed": false,
          "name": "proposalId",
          "type": "uint256"
        },
        {
          "indexed": false,
          "name": "passed",
          "type": "bool"
        },
        {
          "indexed": false,
          "name": "sidechainAddr",
          "type": "address"
        },
        {
          "indexed": false,
          "name": "registered",
          "type": "bool"
        }
      ],
      "name": "ConfirmSidechainProposal",
      "type": "event"
    },
    {
      "anonymous": false,
      "inputs": [
        {
          "indexed": true,
          "name": "account",
          "type": "address"
        }
      ],
      "name": "PauserAdded",
      "type": "event"
    },
    {
      "anonymous": false,
      "inputs": [
        {
          "indexed": true,
          "name": "account",
          "type": "address"
        }
      ],
      "name": "PauserRemoved",
      "type": "event"
    },
    {
      "anonymous": false,
      "inputs": [
        {
          "indexed": true,
          "name": "candidate",
          "type": "address"
        },
        {
          "indexed": false,
          "name": "minSelfStake",
          "type": "uint256"
        },
        {
          "indexed": false,
          "name": "commissionRate",
          "type": "uint256"
        },
        {
          "indexed": false,
          "name": "rateLockEndTime",
          "type": "uint256"
        }
      ],
      "name": "InitializeCandidate",
      "type": "event"
    },
    {
      "anonymous": false,
      "inputs": [
        {
          "indexed": true,
          "name": "candidate",
          "type": "address"
        },
        {
          "indexed": false,
          "name": "announcedRate",
          "type": "uint256"
        },
        {
          "indexed": false,
          "name": "announcedLockEndTime",
          "type": "uint256"
        }
      ],
      "name": "CommissionRateAnnouncement",
      "type": "event"
    },
    {
      "anonymous": false,
      "inputs": [
        {
          "indexed": true,
          "name": "candidate",
          "type": "address"
        },
        {
          "indexed": false,
          "name": "newRate",
          "type": "uint256"
        },
        {
          "indexed": false,
          "name": "newLockEndTime",
          "type": "uint256"
        }
      ],
      "name": "UpdateCommissionRate",
      "type": "event"
    },
    {
      "anonymous": false,
      "inputs": [
        {
          "indexed": true,
          "name": "candidate",
          "type": "address"
        },
        {
          "indexed": false,
          "name": "minSelfStake",
          "type": "uint256"
        }
      ],
      "name": "UpdateMinSelfStake",
      "type": "event"
    },
    {
      "anonymous": false,
      "inputs": [
        {
          "indexed": true,
          "name": "delegator",
          "type": "address"
        },
        {
          "indexed": true,
          "name": "candidate",
          "type": "address"
        },
        {
          "indexed": false,
          "name": "newStake",
          "type": "uint256"
        },
        {
          "indexed": false,
          "name": "stakingPool",
          "type": "uint256"
        }
      ],
      "name": "Delegate",
      "type": "event"
    },
    {
      "anonymous": false,
      "inputs": [
        {
          "indexed": true,
          "name": "ethAddr",
          "type": "address"
        },
        {
          "indexed": true,
          "name": "changeType",
          "type": "uint8"
        }
      ],
      "name": "ValidatorChange",
      "type": "event"
    },
    {
      "anonymous": false,
      "inputs": [
        {
          "indexed": true,
          "name": "delegator",
          "type": "address"
        },
        {
          "indexed": true,
          "name": "candidate",
          "type": "address"
        },
        {
          "indexed": false,
          "name": "amount",
          "type": "uint256"
        }
      ],
      "name": "WithdrawFromUnbondedCandidate",
      "type": "event"
    },
    {
      "anonymous": false,
      "inputs": [
        {
          "indexed": true,
          "name": "delegator",
          "type": "address"
        },
        {
          "indexed": true,
          "name": "candidate",
          "type": "address"
        },
        {
          "indexed": false,
          "name": "withdrawAmount",
          "type": "uint256"
        },
        {
          "indexed": false,
          "name": "proposedTime",
          "type": "uint256"
        }
      ],
      "name": "IntendWithdraw",
      "type": "event"
    },
    {
      "anonymous": false,
      "inputs": [
        {
          "indexed": true,
          "name": "delegator",
          "type": "address"
        },
        {
          "indexed": true,
          "name": "candidate",
          "type": "address"
        },
        {
          "indexed": false,
          "name": "amount",
          "type": "uint256"
        }
      ],
      "name": "ConfirmWithdraw",
      "type": "event"
    },
    {
      "anonymous": false,
      "inputs": [
        {
          "indexed": true,
          "name": "validator",
          "type": "address"
        },
        {
          "indexed": true,
          "name": "delegator",
          "type": "address"
        },
        {
          "indexed": false,
          "name": "amount",
          "type": "uint256"
        }
      ],
      "name": "Slash",
      "type": "event"
    },
    {
      "anonymous": false,
      "inputs": [
        {
          "indexed": true,
          "name": "delegator",
          "type": "address"
        },
        {
          "indexed": true,
          "name": "candidate",
          "type": "address"
        },
        {
          "indexed": false,
          "name": "delegatorStake",
          "type": "uint256"
        },
        {
          "indexed": false,
          "name": "candidatePool",
          "type": "uint256"
        }
      ],
      "name": "UpdateDelegatedStake",
      "type": "event"
    },
    {
      "anonymous": false,
      "inputs": [
        {
          "indexed": true,
          "name": "indemnitee",
          "type": "address"
        },
        {
          "indexed": false,
          "name": "amount",
          "type": "uint256"
        }
      ],
      "name": "Compensate",
      "type": "event"
    },
    {
      "anonymous": false,
      "inputs": [
        {
          "indexed": true,
          "name": "candidate",
          "type": "address"
        }
      ],
      "name": "CandidateUnbonded",
      "type": "event"
    },
    {
      "anonymous": false,
      "inputs": [
        {
          "indexed": true,
          "name": "receiver",
          "type": "address"
        },
        {
          "indexed": false,
          "name": "reward",
          "type": "uint256"
        },
        {
          "indexed": false,
          "name": "miningPool",
          "type": "uint256"
        }
      ],
      "name": "RedeemMiningReward",
      "type": "event"
    },
    {
      "anonymous": false,
      "inputs": [
        {
          "indexed": true,
          "name": "contributor",
          "type": "address"
        },
        {
          "indexed": false,
          "name": "contribution",
          "type": "uint256"
        },
        {
          "indexed": false,
          "name": "miningPoolSize",
          "type": "uint256"
        }
      ],
      "name": "MiningPoolContribution",
      "type": "event"
    },
    {
      "constant": false,
      "inputs": [
        {
          "name": "_enable",
          "type": "bool"
        }
      ],
      "name": "updateEnableWhitelist",
      "outputs": [],
      "payable": false,
      "stateMutability": "nonpayable",
      "type": "function"
    },
    {
      "constant": false,
      "inputs": [
        {
          "name": "_amount",
          "type": "uint256"
        }
      ],
      "name": "drainToken",
      "outputs": [],
      "payable": false,
      "stateMutability": "nonpayable",
      "type": "function"
    },
    {
      "constant": false,
      "inputs": [
        {
          "name": "_proposalId",
          "type": "uint256"
        },
        {
          "name": "_vote",
          "type": "uint8"
        }
      ],
      "name": "voteParam",
      "outputs": [],
      "payable": false,
      "stateMutability": "nonpayable",
      "type": "function"
    },
    {
      "constant": false,
      "inputs": [
        {
          "name": "_proposalId",
          "type": "uint256"
        }
      ],
      "name": "confirmParamProposal",
      "outputs": [],
      "payable": false,
      "stateMutability": "nonpayable",
      "type": "function"
    },
    {
      "constant": false,
      "inputs": [
        {
          "name": "_proposalId",
          "type": "uint256"
        },
        {
          "name": "_vote",
          "type": "uint8"
        }
      ],
      "name": "voteSidechain",
      "outputs": [],
      "payable": false,
      "stateMutability": "nonpayable",
      "type": "function"
    },
    {
      "constant": false,
      "inputs": [
        {
          "name": "_proposalId",
          "type": "uint256"
        }
      ],
      "name": "confirmSidechainProposal",
      "outputs": [],
      "payable": false,
      "stateMutability": "nonpayable",
      "type": "function"
    },
    {
      "constant": false,
      "inputs": [
        {
          "name": "_amount",
          "type": "uint256"
        }
      ],
      "name": "contributeToMiningPool",
      "outputs": [],
      "payable": false,
      "stateMutability": "nonpayable",
      "type": "function"
    },
    {
      "constant": false,
      "inputs": [
        {
          "name": "_receiver",
          "type": "address"
        },
        {
          "name": "_cumulativeReward",
          "type": "uint256"
        }
      ],
      "name": "redeemMiningReward",
      "outputs": [],
      "payable": false,
      "stateMutability": "nonpayable",
      "type": "function"
    },
    {
      "constant": false,
      "inputs": [
        {
          "name": "_minSelfStake",
          "type": "uint256"
        },
        {
          "name": "_commissionRate",
          "type": "uint256"
        },
        {
          "name": "_rateLockEndTime",
          "type": "uint256"
        }
      ],
      "name": "initializeCandidate",
      "outputs": [],
      "payable": false,
      "stateMutability": "nonpayable",
      "type": "function"
    },
    {
      "constant": false,
      "inputs": [
        {
          "name": "_newRate",
          "type": "uint256"
        },
        {
          "name": "_newLockEndTime",
          "type": "uint256"
        }
      ],
      "name": "nonIncreaseCommissionRate",
      "outputs": [],
      "payable": false,
      "stateMutability": "nonpayable",
      "type": "function"
    },
    {
      "constant": false,
      "inputs": [
        {
          "name": "_newRate",
          "type": "uint256"
        },
        {
          "name": "_newLockEndTime",
          "type": "uint256"
        }
      ],
      "name": "announceIncreaseCommissionRate",
      "outputs": [],
      "payable": false,
      "stateMutability": "nonpayable",
      "type": "function"
    },
    {
      "constant": false,
      "inputs": [],
      "name": "confirmIncreaseCommissionRate",
      "outputs": [],
      "payable": false,
      "stateMutability": "nonpayable",
      "type": "function"
    },
    {
      "constant": false,
      "inputs": [
        {
          "name": "_minSelfStake",
          "type": "uint256"
        }
      ],
      "name": "updateMinSelfStake",
      "outputs": [],
      "payable": false,
      "stateMutability": "nonpayable",
      "type": "function"
    },
    {
      "constant": false,
      "inputs": [
        {
          "name": "_candidateAddr",
          "type": "address"
        },
        {
          "name": "_amount",
          "type": "uint256"
        }
      ],
      "name": "delegate",
      "outputs": [],
      "payable": false,
      "stateMutability": "nonpayable",
      "type": "function"
    },
    {
      "constant": false,
      "inputs": [],
      "name": "claimValidator",
      "outputs": [],
      "payable": false,
      "stateMutability": "nonpayable",
      "type": "function"
    },
    {
      "constant": false,
      "inputs": [
        {
          "name": "_candidateAddr",
          "type": "address"
        }
      ],
      "name": "confirmUnbondedCandidate",
      "outputs": [],
      "payable": false,
      "stateMutability": "nonpayable",
      "type": "function"
    },
    {
      "constant": false,
      "inputs": [
        {
          "name": "_candidateAddr",
          "type": "address"
        },
        {
          "name": "_amount",
          "type": "uint256"
        }
      ],
      "name": "withdrawFromUnbondedCandidate",
      "outputs": [],
      "payable": false,
      "stateMutability": "nonpayable",
      "type": "function"
    },
    {
      "constant": false,
      "inputs": [
        {
          "name": "_candidateAddr",
          "type": "address"
        },
        {
          "name": "_amount",
          "type": "uint256"
        }
      ],
      "name": "intendWithdraw",
      "outputs": [],
      "payable": false,
      "stateMutability": "nonpayable",
      "type": "function"
    },
    {
      "constant": false,
      "inputs": [
        {
          "name": "_candidateAddr",
          "type": "address"
        }
      ],
      "name": "confirmWithdraw",
      "outputs": [],
      "payable": false,
      "stateMutability": "nonpayable",
      "type": "function"
    },
    {
      "constant": false,
      "inputs": [
        {
          "name": "_penaltyRequest",
          "type": "bytes"
        }
      ],
      "name": "slash",
      "outputs": [],
      "payable": false,
      "stateMutability": "nonpayable",
      "type": "function"
    },
    {
      "constant": false,
      "inputs": [
        {
          "name": "_request",
          "type": "bytes"
        }
      ],
      "name": "validateMultiSigMessage",
      "outputs": [
        {
          "name": "",
          "type": "bool"
        }
      ],
      "payable": false,
      "stateMutability": "nonpayable",
      "type": "function"
    },
    {
      "constant": true,
      "inputs": [],
      "name": "isValidDPoS",
      "outputs": [
        {
          "name": "",
          "type": "bool"
        }
      ],
      "payable": false,
      "stateMutability": "view",
      "type": "function"
    },
    {
      "constant": true,
      "inputs": [
        {
          "name": "_addr",
          "type": "address"
        }
      ],
      "name": "isValidator",
      "outputs": [
        {
          "name": "",
          "type": "bool"
        }
      ],
      "payable": false,
      "stateMutability": "view",
      "type": "function"
    },
    {
      "constant": true,
      "inputs": [],
      "name": "isMigrating",
      "outputs": [
        {
          "name": "",
          "type": "bool"
        }
      ],
      "payable": false,
      "stateMutability": "view",
      "type": "function"
    },
    {
      "constant": true,
      "inputs": [],
      "name": "getValidatorNum",
      "outputs": [
        {
          "name": "",
          "type": "uint256"
        }
      ],
      "payable": false,
      "stateMutability": "view",
      "type": "function"
    },
    {
      "constant": true,
      "inputs": [],
      "name": "getMinStakingPool",
      "outputs": [
        {
          "name": "",
          "type": "uint256"
        }
      ],
      "payable": false,
      "stateMutability": "view",
      "type": "function"
    },
    {
      "constant": true,
      "inputs": [
        {
          "name": "_candidateAddr",
          "type": "address"
        }
      ],
      "name": "getCandidateInfo",
      "outputs": [
        {
          "name": "initialized",
          "type": "bool"
        },
        {
          "name": "minSelfStake",
          "type": "uint256"
        },
        {
          "name": "stakingPool",
          "type": "uint256"
        },
        {
          "name": "status",
          "type": "uint256"
        },
        {
          "name": "unbondTime",
          "type": "uint256"
        },
        {
          "name": "commissionRate",
          "type": "uint256"
        },
        {
          "name": "rateLockEndTime",
          "type": "uint256"
        }
      ],
      "payable": false,
      "stateMutability": "view",
      "type": "function"
    },
    {
      "constant": true,
      "inputs": [
        {
          "name": "_candidateAddr",
          "type": "address"
        },
        {
          "name": "_delegatorAddr",
          "type": "address"
        }
      ],
      "name": "getDelegatorInfo",
      "outputs": [
        {
          "name": "delegatedStake",
          "type": "uint256"
        },
        {
          "name": "undelegatingStake",
          "type": "uint256"
        },
        {
          "name": "intentAmounts",
          "type": "uint256[]"
        },
        {
          "name": "intentProposedTimes",
          "type": "uint256[]"
        }
      ],
      "payable": false,
      "stateMutability": "view",
      "type": "function"
    },
    {
      "constant": true,
      "inputs": [],
      "name": "getMinQuorumStakingPool",
      "outputs": [
        {
          "name": "",
          "type": "uint256"
        }
      ],
      "payable": false,
      "stateMutability": "view",
      "type": "function"
    },
    {
      "constant": true,
      "inputs": [],
      "name": "getTotalValidatorStakingPool",
      "outputs": [
        {
          "name": "",
          "type": "uint256"
        }
      ],
      "payable": false,
      "stateMutability": "view",
      "type": "function"
    }
  ],
  "bytecode": "0x60806040523480156200001157600080fd5b50604051620053563803806200535683398181016040526101208110156200003857600080fd5b508051602082015160408301516060840151608085015160a086015160c087015160e088015161010090980151969795969495939492939192909190888888888888888862000090336001600160e01b036200025e16565b600180546001600160a01b0319163317908190556040516001600160a01b0391909116906000907f8be0079c531659141344cd1fd0a4f28419497f9722a3daafe3b4186f6b6457e0908290a36001805460ff60a01b19169055620000fd336001600160e01b03620002b016565b600480546001600160a01b03199081166001600160a01b039a8b1617909155600560209081527f05b8ccbb9d4d8fb16ea74ce3c29a41f1b461fbdaff4714a0d9a8eb05499746bc989098557f1471eb6eb2c5e789fc3de43f8ce62938c7d1836ec861730447e2ada8fd81017b969096557f89832631fb3c3307a103ba2c84ab569c64d6182a18893dcd163f0f1c2090733a949094557fa9bc9a3a348c357ba16b37005d7e6b3236198c0e939f4af8c5f19b8deeb8ebc0929092557f3eec716f11ba9e820c81ca75eb978ffb45831ef8b7a53e5e422c26008e1ca6d5557f458b30c2d72bfd2c6317304a4594ecbafe5f729d3111b65fdc3a33bd48e5432d5560066000527f069400f22b28c6c362558d92f66163cec5671cba50b61abd2eecfcd0eaeac5185560108054909116928c16929092179091556200024b904390839062000302811b620034b017901c565b60115550620003ab975050505050505050565b620002798160006200031c60201b620049191790919060201c565b6040516001600160a01b038216907f6719d08c1888103bea251a4ed56406bd0c3e69723c8a1686e017e7bbe159b6f890600090a250565b620002cb8160026200031c60201b620049191790919060201c565b6040516001600160a01b038216907f22380c05984257a1cb900161c713dd71d39e74820f1aea43bd3f1bdd2096129990600090a250565b6000828201838110156200031557600080fd5b9392505050565b6001600160a01b0381166200033057600080fd5b6200034582826001600160e01b036200037516565b156200035057600080fd5b6001600160a01b0316600090815260209190915260409020805460ff19166001179055565b60006001600160a01b0382166200038b57600080fd5b506001600160a01b03166000908152602091909152604090205460ff1690565b614f9b80620003bb6000396000f3fe608060405234801561001057600080fd5b50600436106104125760003560e01c8063785f8ffd11610220578063be57959d11610130578063e64808f3116100b8578063f05e777d11610087578063f05e777d14610d31578063f2fde38b14610d39578063f64f33f214610d5f578063facd743b14610d82578063fb87874914610da857610412565b8063e64808f314610bdc578063e97b745214610bf9578063eab2ed8c14610c54578063eecefef814610c5c57610412565b8063c7ec2f35116100ff578063c7ec2f3514610b52578063cdfb2b4e14610b78578063d2bfc1c714610b80578063d6cd947314610ba6578063e433c1ca14610bae57610412565b8063be57959d14610af6578063bee8380e14610b19578063c1e1671814610b21578063c6c21e9d14610b4a57610412565b806389ed7939116101b3578063934a18ec11610182578063934a18ec14610a59578063a3e814b914610a76578063aa09fbae14610a7e578063bb5f747b14610aa4578063bb9053d014610aca57610412565b806389ed793914610a395780638da5cb5b14610a415780638e9472a314610a495780638f32d59b14610a5157610412565b80638515b0e2116101ef5780638515b0e2146109a457806385bfe017146109d0578063866c4b17146109f657806387e53fef14610a1357610412565b8063785f8ffd146108d45780637e5fb8f31461090057806382dc1ec4146109765780638456cb591461099c57610412565b80633af32abf116103265780635e47655f116102ae5780636e9975651161027d5780636e9975651461088e5780636ef8d66d14610896578063715018a61461089e57806373397597146108a65780637362d9c8146108ae57610412565b80635e47655f146107dc57806364c663951461084c57806364ed600a146108695780636e7cf85d1461088657610412565b80634b7dba6b116102f55780634b7dba6b1461073b5780634c5a628c1461075857806351abe57b14610760578063581c53c5146107845780635c975abb146107d457610412565b80633af32abf146106c15780633f4ba83a146106e757806346fbf68e146106ef57806349444b711461071557610412565b806325ed6b35116103a95780632cb57c48116103785780632cb57c481461062b5780633090c0e91461064a578063325820b31461066d5780633702db391461069357806339c9563e146106b957610412565b806325ed6b351461057757806328bde1e11461059d578063291d9549146105fd5780632bf0fe591461062357610412565b80631c0efd9d116103e55780631c0efd9d146104a55780631cfe4f0b146105295780631f7b08861461054357806322da79271461056f57610412565b8063026e402b1461041757806310154bad14610445578063145aa1161461046b5780631a06f73714610488575b600080fd5b6104436004803603604081101561042d57600080fd5b506001600160a01b038135169060200135610dc5565b005b6104436004803603602081101561045b57600080fd5b50356001600160a01b0316610f0b565b6104436004803603602081101561048157600080fd5b5035610f29565b6104436004803603602081101561049e57600080fd5b5035610f6d565b610515600480360360208110156104bb57600080fd5b8101906020810181356401000000008111156104d657600080fd5b8201836020820111156104e857600080fd5b8035906020019184600183028401116401000000008311171561050a57600080fd5b509092509050611022565b604080519115158252519081900360200190f35b6105316110fd565b60408051918252519081900360200190f35b6104436004803603604081101561055957600080fd5b506001600160a01b03813516906020013561114b565b61053161123c565b6104436004803603604081101561058d57600080fd5b508035906020013560ff16611242565b6105c3600480360360208110156105b357600080fd5b50356001600160a01b03166112ad565b6040805197151588526020880196909652868601949094526060860192909252608085015260a084015260c0830152519081900360e00190f35b6104436004803603602081101561061357600080fd5b50356001600160a01b0316611317565b610531611332565b6104436004803603602081101561064157600080fd5b50351515611338565b6104436004803603604081101561066057600080fd5b508035906020013561135c565b6105156004803603602081101561068357600080fd5b50356001600160a01b03166114aa565b610515600480360360208110156106a957600080fd5b50356001600160a01b03166114cc565b6105316114e1565b610515600480360360208110156106d757600080fd5b50356001600160a01b03166114e7565b6104436114fa565b6105156004803603602081101561070557600080fd5b50356001600160a01b0316611564565b6105156004803603602081101561072b57600080fd5b50356001600160a01b0316611576565b6104436004803603602081101561075157600080fd5b503561158b565b610443611624565b61076861162f565b604080516001600160a01b039092168252519081900360200190f35b6107b06004803603604081101561079a57600080fd5b50803590602001356001600160a01b031661163e565b604051808260038111156107c057fe5b60ff16815260200191505060405180910390f35b61051561166c565b610443600480360360208110156107f257600080fd5b81019060208101813564010000000081111561080d57600080fd5b82018360208201111561081f57600080fd5b8035906020019184600183028401116401000000008311171561084157600080fd5b50909250905061167c565b6105316004803603602081101561086257600080fd5b5035611c42565b6105316004803603602081101561087f57600080fd5b5035611c54565b610443611c66565b610443612023565b6104436120ee565b6104436120f7565b610531612152565b610443600480360360208110156108c457600080fd5b50356001600160a01b0316612158565b610443600480360360408110156108ea57600080fd5b506001600160a01b038135169060200135612173565b61091d6004803603602081101561091657600080fd5b5035612294565b60405180876001600160a01b03166001600160a01b0316815260200186815260200185815260200184815260200183815260200182600281111561095d57fe5b60ff168152602001965050505050505060405180910390f35b6104436004803603602081101561098c57600080fd5b50356001600160a01b03166122d6565b6104436122f1565b6107b0600480360360408110156109ba57600080fd5b50803590602001356001600160a01b0316612362565b610443600480360360408110156109e657600080fd5b508035906020013560ff16612391565b61044360048036036020811015610a0c57600080fd5b50356123f7565b61053160048036036020811015610a2957600080fd5b50356001600160a01b031661250a565b61053161251c565b61076861257a565b610531612589565b61051561266a565b61044360048036036020811015610a6f57600080fd5b503561267b565b610531612729565b61044360048036036020811015610a9457600080fd5b50356001600160a01b031661276b565b61051560048036036020811015610aba57600080fd5b50356001600160a01b03166127a0565b61044360048036036040811015610ae057600080fd5b506001600160a01b0381351690602001356127b3565b61044360048036036040811015610b0c57600080fd5b50803590602001356128f6565b6105316129a0565b61044360048036036060811015610b3757600080fd5b50803590602081013590604001356129a6565b610768612aea565b61044360048036036020811015610b6857600080fd5b50356001600160a01b0316612af9565b610515612b8b565b61044360048036036020811015610b9657600080fd5b50356001600160a01b0316612b94565b610443612d9c565b61044360048036036040811015610bc457600080fd5b506001600160a01b0381351690602001351515612da5565b61076860048036036020811015610bf257600080fd5b5035612ef8565b610c1660048036036020811015610c0f57600080fd5b5035612f13565b604080516001600160a01b038089168252602082018890529181018690529084166060820152821515608082015260a0810182600281111561095d57fe5b610515612f5b565b610c8a60048036036040811015610c7257600080fd5b506001600160a01b0381358116916020013516612f89565b604051808581526020018481526020018060200180602001838103835285818151815260200191508051906020019060200280838360005b83811015610cda578181015183820152602001610cc2565b50505050905001838103825284818151815260200191508051906020019060200280838360005b83811015610d19578181015183820152602001610d01565b50505050905001965050505050505060405180910390f35b6105156130c8565b61044360048036036020811015610d4f57600080fd5b50356001600160a01b03166130e9565b61044360048036036040811015610d7557600080fd5b5080359060200135613103565b61051560048036036020811015610d9857600080fd5b50356001600160a01b03166131f4565b61051560048036036020811015610dbe57600080fd5b5035613229565b600154600160a01b900460ff1615610ddc57600080fd5b816001600160a01b038116610e24576040805162461bcd60e51b815260206004820152600960248201526830206164647265737360b81b604482015290519081900360640190fd5b6001600160a01b0383166000908152600e60205260409020805460ff16610e80576040805162461bcd60e51b815260206004820152601c6024820152600080516020614f47833981519152604482015290519081900360640190fd5b33610e8f82868387600061323e565b601054610ead906001600160a01b031682308763ffffffff61334316565b846001600160a01b0316816001600160a01b03167f500599802164a08023e87ffc3eed0ba3ae60697b3083ba81d046683679d81c6b868560020154604051808381526020018281526020019250505060405180910390a35050505050565b610f14336127a0565b610f1d57600080fd5b610f26816133d3565b50565b600154600160a01b900460ff16610f3f57600080fd5b610f4761266a565b610f5057600080fd5b601054610f26906001600160a01b0316338363ffffffff61341b16565b6000610f7a60045b611c42565b90506000805b828110156110025760016000828152600b6020526040902054610fad9086906001600160a01b0316612362565b6003811115610fb857fe5b1415610ffa576000818152600b60209081526040808320546001600160a01b03168352600e909152902060020154610ff790839063ffffffff6134b016565b91505b600101610f80565b50600061100d612729565b821015905061101c84826134c9565b50505050565b600061102d336114aa565b61103657600080fd5b61103e614e73565b61107d84848080601f01602080910402602001604051908101604052809392919081815260200183838082843760009201919091525061367392505050565b9050600081600001516040518082805190602001908083835b602083106110b55780518252601f199092019160209182019101611096565b6001836020036101000a038019825116818451168082178552505050505050905001915050604051809103902090506110f28183602001516137ca565b925050505b92915050565b60008061110a6004610f75565b90506000805b82811015611144576000818152600b60205260409020546001600160a01b03161561113c576001909101905b600101611110565b5091505090565b600154600160a01b900460ff161561116257600080fd5b61116b336114aa565b61117457600080fd5b6001600160a01b0382166000908152600f602052604081205461119e90839063ffffffff613a2816565b6001600160a01b0384166000908152600f602052604090208390556012549091506111cf908263ffffffff613a2816565b6012556010546111ef906001600160a01b0316848363ffffffff61341b16565b60125460408051838152602081019290925280516001600160a01b038616927fc243dafa8ee55923dad771198c225cf6dfcdc5e405eda7d4da42b6c6fa018de792908290030190a2505050565b60075481565b3361124c816131f4565b61129d576040805162461bcd60e51b815260206004820152601d60248201527f6d73672073656e646572206973206e6f7420612076616c696461746f72000000604482015290519081900360640190fd5b6112a8838284613a3d565b505050565b6001600160a01b0381166000908152600e6020526040812080546001820154600280840154600485015460ff9485169693959194849384938493909216908111156112f457fe5b945080600501549350806006015492508060070154915050919395979092949650565b611320336127a0565b61132957600080fd5b610f2681613c0c565b600a5481565b61134061266a565b61134957600080fd5b6013805460ff1916911515919091179055565b60075460008181526006602052604090209061137f90600163ffffffff6134b016565b6007556000808052600560208190527f05b8ccbb9d4d8fb16ea74ce3c29a41f1b461fbdaff4714a0d9a8eb05499746bc5483546001600160a01b0319163390811785556001808601839055909391926113f39290915b815260200190815260200160002054436134b090919063ffffffff16565b600284015560038301859055600480840185905560058401805460ff191660011790555461142c906001600160a01b0316833084613343565b6007547f40109a070319d6004f4e4b31dba4b605c97bd3474d49865158f55fe093e3b3399061146290600163ffffffff613a2816565b6002850154604080519283526001600160a01b038616602084015282810185905260608301919091526080820188905260a08201879052519081900360c00190a15050505050565b6001600160a01b03811660009081526008602052604090205460ff165b919050565b600d6020526000908152604090205460ff1681565b60115481565b60006110f760038363ffffffff613c5416565b61150333611564565b61150c57600080fd5b600154600160a01b900460ff1661152257600080fd5b6001805460ff60a01b191690556040805133815290517f5db9ee0a495bf2e6ff9c91a7834c1ba4fdd244a5e8aa4e537bd38aeae4b073aa9181900360200190a1565b60006110f7818363ffffffff613c5416565b60086020526000908152604090205460ff1681565b600154600160a01b900460ff16156115a257600080fd5b60125433906115b7908363ffffffff6134b016565b6012556010546115d8906001600160a01b031682308563ffffffff61334316565b60125460408051848152602081019290925280516001600160a01b038416927f97e19c4040b6c46d4275e0c4fea68f8f92c81138372ffdb089932c211938f76592908290030190a25050565b61162d33613c89565b565b6004546001600160a01b031681565b60008281526006602081815260408084206001600160a01b0386168552909201905290205460ff1692915050565b600154600160a01b900460ff1690565b600154600160a01b900460ff161561169357600080fd5b61169b612f5b565b6116e0576040805162461bcd60e51b815260206004820152601160248201527011141bd4c81a5cc81b9bdd081d985b1a59607a1b604482015290519081900360640190fd5b6116e86130c8565b1561172f576040805162461bcd60e51b8152602060048201526012602482015271636f6e7472616374206d6967726174696e6760701b604482015290519081900360640190fd5b611737614e73565b61177683838080601f016020809104026020016040519081016040528093929190818152602001838380828437600092019190915250613cd192505050565b9050611780614e8d565b815161178b90613e1f565b6040808201516001600160a01b03166000908152600e602052908120919250600482015460ff1660028111156117bd57fe5b1415611806576040805162461bcd60e51b815260206004820152601360248201527215985b1a59185d1bdc881d5b989bdd5b991959606a1b604482015290519081900360640190fd5b600083600001516040518082805190602001908083835b6020831061183c5780518252601f19909201916020918201910161181d565b6001836020036101000a038019825116818451168082178552505050505050905001915050604051809103902090506118798185602001516137ca565b6118ca576040805162461bcd60e51b815260206004820152601c60248201527f4661696c20746f20636865636b2076616c696461746f72207369677300000000604482015290519081900360640190fd5b826020015167ffffffffffffffff16431061191e576040805162461bcd60e51b815260206004820152600f60248201526e14195b985b1d1e48195e1c1a5c9959608a1b604482015290519081900360640190fd5b825167ffffffffffffffff166000908152600c602052604090205460ff1615611983576040805162461bcd60e51b8152602060048201526012602482015271557365642070656e616c7479206e6f6e636560701b604482015290519081900360640190fd5b825167ffffffffffffffff166000908152600c60205260408120805460ff19166001179055805b846060015151811015611af1576119bf614eba565b856060015182815181106119cf57fe5b602002602001015190506119f08160200151846134b090919063ffffffff16565b925080600001516001600160a01b031686604001516001600160a01b03167f9995717781b7b3ba3dd9e553a2b5a2b7593ad9b71f5022a3691a089d5189bd1983602001516040518082815260200191505060405180910390a380516001600160a01b03166000908152600386016020908152604090912090820151815410611a9157611a8c86886040015184600001518560200151600161323e565b611ae7565b80546020830151600091611aab919063ffffffff613a2816565b6001830154909150611ac3908263ffffffff613a2816565b8260010181905550611ae587896040015185600001518560000154600161323e565b505b50506001016119aa565b50611aff846040015161409b565b6000805b856080015151811015611bf057611b18614eba565b86608001518281518110611b2857fe5b60200260200101519050611b498160200151846134b090919063ffffffff16565b925080600001516001600160a01b03167f92c2a7173158b7618078365b4ad89fd1f774ae4aa04f39e10b966b47f469d34b82602001516040518082815260200191505060405180910390a280516001600160a01b0316611bc2576020810151601254611bba9163ffffffff6134b016565b601255611be7565b80516020820151601054611be7926001600160a01b039091169163ffffffff61341b16565b50600101611b03565b50808214611c38576040805162461bcd60e51b815260206004820152601060248201526f082dadeeadce840dcdee840dac2e8c6d60831b604482015290519081900360640190fd5b5050505050505050565b60009081526005602052604090205490565b60056020526000908152604090205481565b336000818152600e60205260409020805460ff16611cb9576040805162461bcd60e51b815260206004820152601c6024820152600080516020614f47833981519152604482015290519081900360640190fd5b6000600482015460ff166002811115611cce57fe5b1480611cec57506002600482015460ff166002811115611cea57fe5b145b611cf557600080fd5b80600b01544311611d4d576040805162461bcd60e51b815260206004820152601a60248201527f4e6f74206561726c6965737420626f6e642074696d6520796574000000000000604482015290519081900360640190fd5b6000611d596005610f75565b90508082600201541015611db4576040805162461bcd60e51b815260206004820152601960248201527f496e73756666696369656e74207374616b696e6720706f6f6c00000000000000604482015290519081900360640190fd5b60018201546001600160a01b03841660009081526003840160205260409020541015611e1f576040805162461bcd60e51b81526020600482015260156024820152744e6f7420656e6f7567682073656c66207374616b6560581b604482015290519081900360640190fd5b7fdf7de25b7f1fd6d0b5205f0e18f1f35bd7b8d84cce336588d184533ce43a6f76546001600160a01b039081166000818152600e60209081526040822060020154828052600b909152909290919086161415611ebd576040805162461bcd60e51b8152602060048201526018602482015277105b1c9958591e481a5b881d985b1a59185d1bdc881cd95d60421b604482015290519081900360640190fd5b6000611ec96004610f75565b905060015b81811015611fa6576000818152600b60205260409020546001600160a01b0388811691161415611f40576040805162461bcd60e51b8152602060048201526018602482015277105b1c9958591e481a5b881d985b1a59185d1bdc881cd95d60421b604482015290519081900360640190fd5b6000818152600b60209081526040808320546001600160a01b03168352600e909152902060020154831115611f9e576000818152600b60209081526040808320546001600160a01b03168352600e9091529020600201549093509150825b600101611ece565b5081856002015411611fe95760405162461bcd60e51b8152600401808060200182810382526021815260200180614eec6021913960400191505060405180910390fd5b6000838152600b60205260409020546001600160a01b031680156120105761201084614132565b61201a8785614200565b50505050505050565b336000908152600e60205260409020805460ff16612076576040805162461bcd60e51b815260206004820152601c6024820152600080516020614f47833981519152604482015290519081900360640190fd5b60006120826006610f75565b90508082600a01540143116120d7576040805162461bcd60e51b815260206004820152601660248201527514dd1a5b1b081a5b881b9bdd1a58d9481c195c9a5bd960521b604482015290519081900360640190fd5b6120ea8283600801548460090154614299565b5050565b61162d3361445b565b6120ff61266a565b61210857600080fd5b6001546040516000916001600160a01b0316907f8be0079c531659141344cd1fd0a4f28419497f9722a3daafe3b4186f6b6457e0908390a3600180546001600160a01b0319169055565b60125481565b612161336127a0565b61216a57600080fd5b610f26816144a3565b816001600160a01b0381166121bb576040805162461bcd60e51b815260206004820152600960248201526830206164647265737360b81b604482015290519081900360640190fd5b6001600160a01b0383166000908152600e60209081526040808320338085526003820190935292209091906121f482878588600161323e565b6001810154612209908663ffffffff6134b016565b60018201556122178661409b565b6004810180546000908152600283016020908152604091829020888155436001808301918255855401909455925482518981529182015281516001600160a01b03808b1693908816927f7171946bb2a9ef55fcb2eb8cef679db45e2e3a8cef9a44567d34d202b65ff0b1929081900390910190a350505050505050565b6006602052600090815260409020805460018201546002830154600384015460048501546005909501546001600160a01b039094169492939192909160ff1686565b6122df33611564565b6122e857600080fd5b610f26816144eb565b6122fa33611564565b61230357600080fd5b600154600160a01b900460ff161561231a57600080fd5b6001805460ff60a01b1916600160a01b1790556040805133815290517f62e78cea01bee320cd4e420270b5ea74000d11b0c9f74754ebdbfc544b05a2589181900360200190a1565b60008281526009602090815260408083206001600160a01b038516845260040190915290205460ff1692915050565b3361239b816131f4565b6123ec576040805162461bcd60e51b815260206004820152601d60248201527f6d73672073656e646572206973206e6f7420612076616c696461746f72000000604482015290519081900360640190fd5b6112a8838284614533565b336000908152600e60205260409020805460ff1661244a576040805162461bcd60e51b815260206004820152601c6024820152600080516020614f47833981519152604482015290519081900360640190fd5b80600101548210156124c9576001600482015460ff16600281111561246b57fe5b14156124b4576040805162461bcd60e51b815260206004820152601360248201527210d85b991a59185d19481a5cc8189bdb991959606a1b604482015290519081900360640190fd5b60006124c06006610f75565b4301600b830155505b6001810182905560408051838152905133917f4c626e5cfbf8848bfc43930276036d8e6c5c6db09a8fea30eea53eaa034158af919081900360200190a25050565b600f6020526000908152604090205481565b6000806125296004610f75565b90506000805b82811015611144576000818152600b60209081526040808320546001600160a01b03168352600e90915290206002015461257090839063ffffffff6134b016565b915060010161252f565b6001546001600160a01b031690565b6000806125966004610f75565b90506000805b828110156125fc576000818152600b60205260409020546001600160a01b03166125c5576125f4565b6000818152600b60209081526040808320546001600160a01b03168352600e90915290206002015491506125fc565b60010161259c565b6001015b82811015611144576000818152600b60209081526040808320546001600160a01b03168352600e909152902060020154821115612662576000818152600b60209081526040808320546001600160a01b03168352600e90915290206002015491505b600101612600565b6001546001600160a01b0316331490565b60006126876004610f75565b90506000805b8281101561270f5760016000828152600b60205260409020546126ba9086906001600160a01b031661163e565b60038111156126c557fe5b1415612707576000818152600b60209081526040808320546001600160a01b03168352600e90915290206002015461270490839063ffffffff6134b016565b91505b60010161268d565b50600061271a612729565b821015905061101c84826146ee565b6000612766600161275a600361274e600261274261251c565b9063ffffffff61486116565b9063ffffffff61488816565b9063ffffffff6134b016565b905090565b61277361266a565b61277c57600080fd5b6001600160a01b03166000908152600860205260409020805460ff19166001179055565b60006110f760028363ffffffff613c5416565b816001600160a01b0381166127fb576040805162461bcd60e51b815260206004820152600960248201526830206164647265737360b81b604482015290519081900360640190fd5b6001600160a01b0383166000908152600e6020526040812090600482015460ff16600281111561282757fe5b148061283657506128366130c8565b612878576040805162461bcd60e51b815260206004820152600e60248201526d696e76616c69642073746174757360901b604482015290519081900360640190fd5b3361288782868387600161323e565b6010546128a4906001600160a01b0316828663ffffffff61341b16565b846001600160a01b0316816001600160a01b03167f585e40624b400c05be4193af453d2fd2e69facd17163bda6afd44546f3dbbaa8866040518082815260200191505060405180910390a35050505050565b336000908152600e60205260409020805460ff16612949576040805162461bcd60e51b815260206004820152601c6024820152600080516020614f47833981519152604482015290519081900360640190fd5b8060060154831115612995576040805162461bcd60e51b815260206004820152601060248201526f496e76616c6964206e6577207261746560801b604482015290519081900360640190fd5b6112a8818484614299565b61271081565b600154600160a01b900460ff16156129bd57600080fd5b60135460ff1615612a0c576129d1336114e7565b612a0c5760405162461bcd60e51b815260040180806020018281038252603a815260200180614f0d603a913960400191505060405180910390fd5b336000908152600e60205260409020805460ff1615612a72576040805162461bcd60e51b815260206004820152601860248201527f43616e64696461746520697320696e697469616c697a65640000000000000000604482015290519081900360640190fd5b612710831115612a8157600080fd5b805460ff191660019081178255810184905560068101839055600781018290556040805185815260208101859052808201849052905133917f453d56a841836718d9e848e968068cbc2af21ca29d1527fbebd231dc46ceffaa919081900360600190a250505050565b6010546001600160a01b031681565b6001600160a01b0381166000908152600e602052604090206002600482015460ff166002811115612b2657fe5b14612b3057600080fd5b8060050154431015612b4157600080fd5b60048101805460ff191690556000600582018190556040516001600160a01b038416917fbe85a9a7aa606febeaa35606e49cd7324c63cf970f4f5fd0c7e983f42b20b21991a25050565b60135460ff1681565b806001600160a01b038116612bdc576040805162461bcd60e51b815260206004820152600960248201526830206164647265737360b81b604482015290519081900360640190fd5b6001600160a01b0382166000818152600e60208181526040808420338086526003820184529185209585529290915260049091015490929143918190819060ff166002811115612c2857fe5b149050836003015491505b8360040154821015612cb35760008281526002808601602052604082209190612c5b90610f75565b90508280612c7e575060018201548590612c7b908363ffffffff6134b016565b11155b15612ca15750506000828152600285016020526040812081815560010155612ca8565b5050612cb3565b600190910190612c33565b6003840182905560005b8460040154831015612cfb57600083815260028601602052604090208054612cec90839063ffffffff6134b016565b6001909401939150612cbd9050565b6001850154600090821015612d46576001860154612d1f908363ffffffff613a2816565b60018701839055601054909150612d46906001600160a01b0316888363ffffffff61341b16565b886001600160a01b0316876001600160a01b03167f08d0283ea9a2e520a2f09611cf37ca6eb70f62e9a807e53756047dd2dc027220836040518082815260200191505060405180910390a3505050505050505050565b61162d33613c0c565b600a54600081815260096020526040902090612dc890600163ffffffff6134b016565b600a556000808052600560208190527f05b8ccbb9d4d8fb16ea74ce3c29a41f1b461fbdaff4714a0d9a8eb05499746bc5483546001600160a01b031916339081178555600180860183905590939192612e229290916113d5565b60028401556003830180546001600160a01b0319166001600160a01b038781169190911760ff60a01b1916600160a01b871515021760ff60a81b1916600160a81b17909155600454612e779116833084613343565b600a547fe6970151d691583ac0aecc2e24c67871318a5c7f7574c6df7929b6dd5d54db6890612ead90600163ffffffff613a2816565b6002850154604080519283526001600160a01b0380871660208501528382018690526060840192909252908816608083015286151560a0830152519081900360c00190a15050505050565b600b602052600090815260409020546001600160a01b031681565b60096020526000908152604090208054600182015460028301546003909301546001600160a01b0392831693919281169060ff600160a01b8204811691600160a81b90041686565b600080612f686003610f75565b90506011544310158015612f83575080612f806110fd565b10155b91505090565b6001600160a01b038083166000908152600e60209081526040808320938516835260039384019091528120918201546004830154919283926060928392918591612fd9919063ffffffff613a2816565b905080604051908082528060200260200182016040528015613005578160200160208202803883390190505b50935080604051908082528060200260200182016040528015613032578160200160208202803883390190505b50925060005b818110156130b057600383015481016000908152600284016020526040902054855186908390811061306657fe5b6020026020010181815250508260020160008460030154830181526020019081526020016000206001015484828151811061309d57fe5b6020908102919091010152600101613038565b50508054600190910154909790965091945092509050565b6000806130d56007610f75565b90508015801590612f835750431015919050565b6130f161266a565b6130fa57600080fd5b610f26816148aa565b336000908152600e60205260409020805460ff16613156576040805162461bcd60e51b815260206004820152601c6024820152600080516020614f47833981519152604482015290519081900360640190fd5b828160060154106131a1576040805162461bcd60e51b815260206004820152601060248201526f496e76616c6964206e6577207261746560801b604482015290519081900360640190fd5b600881018390556009810182905543600a8201556040805184815260208101849052815133927fd1388fca1fdda1adbe79c9535b48b22e71aa7815469abb61cdbab2a7b4ccd28a928290030190a2505050565b600060016001600160a01b0383166000908152600e602052604090206004015460ff16600281111561322257fe5b1492915050565b600c6020526000908152604090205460ff1681565b6001600160a01b038316600090815260038601602052604081209082600181111561326557fe5b141561329e576002860154613280908463ffffffff6134b016565b60028701558054613297908463ffffffff6134b016565b81556132e0565b60018260018111156132ac57fe5b14156132de5760028601546132c7908463ffffffff613a2816565b60028701558054613297908463ffffffff613a2816565bfe5b846001600160a01b0316846001600160a01b03167ff9edf8bcbb705aa22a96ed2eaeb81b1a55c2035868721a08555d82299fdc194983600001548960020154604051808381526020018281526020019250505060405180910390a3505050505050565b604080516323b872dd60e01b81526001600160a01b0385811660048301528481166024830152604482018490529151918616916323b872dd916064808201926020929091908290030181600087803b15801561339e57600080fd5b505af11580156133b2573d6000803e3d6000fd5b505050506040513d60208110156133c857600080fd5b505161101c57600080fd5b6133e460038263ffffffff61491916565b6040516001600160a01b038216907fee1504a83b6d4a361f4c1dc78ab59bfa30d6a3b6612c403e86bb01ef2984295f90600090a250565b826001600160a01b031663a9059cbb83836040518363ffffffff1660e01b815260040180836001600160a01b03166001600160a01b0316815260200182815260200192505050602060405180830381600087803b15801561347b57600080fd5b505af115801561348f573d6000803e3d6000fd5b505050506040513d60208110156134a557600080fd5b50516112a857600080fd5b6000828201838110156134c257600080fd5b9392505050565b600082815260096020526040902060016003820154600160a81b900460ff1660028111156134f357fe5b1461353f576040805162461bcd60e51b8152602060048201526017602482015276496e76616c69642070726f706f73616c2073746174757360481b604482015290519081900360640190fd5b8060020154431015613594576040805162461bcd60e51b8152602060048201526019602482015278159bdd1948191958591b1a5b99481b9bdd081c995858da1959603a1b604482015290519081900360640190fd5b60038101805460ff60a81b1916600160a91b179055811561360e57805460018201546004546135d7926001600160a01b039182169291169063ffffffff61341b16565b60038101546001600160a01b0381166000908152600860205260409020805460ff1916600160a01b90920460ff1615159190911790555b60038101546040805185815284151560208201526001600160a01b03831681830152600160a01b90920460ff1615156060830152517f2c26ff0b5547eb09df5dde3569782330829ac9ffa9811847beab5d466066801c916080908290030190a1505050565b61367b614e73565b613683614ed1565b61368c83614965565b905060606136a182600263ffffffff61497c16565b9050806002815181106136b057fe5b60200260200101516040519080825280602002602001820160405280156136eb57816020015b60608152602001906001900390816136d65790505b50836020018190525060008160028151811061370357fe5b6020026020010181815250506000805b61371c84614a0c565b156137c15761372a84614a18565b909250905081600114156137485761374184614a45565b85526137bc565b81600214156137ac5761375a84614a45565b85602001518460028151811061376c57fe5b60200260200101518151811061377e57fe5b60200260200101819052508260028151811061379657fe5b60209081029190910101805160010190526137bc565b6137bc848263ffffffff614ad216565b613713565b50505050919050565b6000806137d5612729565b905060006137e285614b2f565b905060608451604051908082528060200260200182016040528015613811578160200160208202803883390190505b509050600080805b87518110156139b45761384888828151811061383157fe5b602002602001015186614b8090919063ffffffff16565b84828151811061385457fe5b60200260200101906001600160a01b031690816001600160a01b031681525050600d600085838151811061388457fe5b6020908102919091018101516001600160a01b031682528101919091526040016000205460ff16156138b957600191506139b4565b6001600e60008684815181106138cb57fe5b6020908102919091018101516001600160a01b031682528101919091526040016000206004015460ff16600281111561390057fe5b1461390a576139ac565b613958600e600086848151811061391d57fe5b60200260200101516001600160a01b03166001600160a01b0316815260200190815260200160002060020154846134b090919063ffffffff16565b92506001600d600086848151811061396c57fe5b60200260200101516001600160a01b03166001600160a01b0316815260200190815260200160002060006101000a81548160ff0219169083151502179055505b600101613819565b5060005b8751811015613a0d576000600d60008684815181106139d357fe5b6020908102919091018101516001600160a01b03168252810191909152604001600020805460ff19169115159190911790556001016139b8565b5080158015613a1c5750848210155b98975050505050505050565b600082821115613a3757600080fd5b50900390565b60008381526006602052604090206001600582015460ff166002811115613a6057fe5b14613aac576040805162461bcd60e51b8152602060048201526017602482015276496e76616c69642070726f706f73616c2073746174757360481b604482015290519081900360640190fd5b80600201544310613afc576040805162461bcd60e51b8152602060048201526015602482015274159bdd1948191958591b1a5b99481c995858da1959605a1b604482015290519081900360640190fd5b6001600160a01b038316600090815260068201602052604081205460ff166003811115613b2557fe5b14613b69576040805162461bcd60e51b815260206004820152600f60248201526e159bdd195c881a185cc81d9bdd1959608a1b604482015290519081900360640190fd5b6001600160a01b03831660009081526006820160205260409020805483919060ff19166001836003811115613b9a57fe5b02179055507f06c7ef6e19454637e93ee60cc680c61fb2ebabb57e58cf36d94141a5036b3d6584848460405180848152602001836001600160a01b03166001600160a01b03168152602001826003811115613bf157fe5b60ff168152602001935050505060405180910390a150505050565b613c1d60038263ffffffff614c5116565b6040516001600160a01b038216907f270d9b30cf5b0793bbfd54c9d5b94aeb49462b8148399000265144a8722da6b690600090a250565b60006001600160a01b038216613c6957600080fd5b506001600160a01b03166000908152602091909152604090205460ff1690565b613c9a60028263ffffffff614c5116565b6040516001600160a01b038216907f0a8eb35e5ca14b3d6f28e4abf2f128dbab231a58b56e89beb5d636115001e16590600090a250565b613cd9614e73565b613ce1614ed1565b613cea83614965565b90506060613cff82600263ffffffff61497c16565b905080600281518110613d0e57fe5b6020026020010151604051908082528060200260200182016040528015613d4957816020015b6060815260200190600190039081613d345790505b508360200181905250600081600281518110613d6157fe5b6020026020010181815250506000805b613d7a84614a0c565b156137c157613d8884614a18565b90925090508160011415613da657613d9f84614a45565b8552613e1a565b8160021415613e0a57613db884614a45565b856020015184600281518110613dca57fe5b602002602001015181518110613ddc57fe5b602002602001018190525082600281518110613df457fe5b6020908102919091010180516001019052613e1a565b613e1a848263ffffffff614ad216565b613d71565b613e27614e8d565b613e2f614ed1565b613e3883614965565b90506060613e4d82600563ffffffff61497c16565b905080600481518110613e5c57fe5b6020026020010151604051908082528060200260200182016040528015613e9d57816020015b613e8a614eba565b815260200190600190039081613e825790505b508360600181905250600081600481518110613eb557fe5b60200260200101818152505080600581518110613ece57fe5b6020026020010151604051908082528060200260200182016040528015613f0f57816020015b613efc614eba565b815260200190600190039081613ef45790505b508360800181905250600081600581518110613f2757fe5b6020026020010181815250506000805b613f4084614a0c565b156137c157613f4e84614a18565b90925090508160011415613f7657613f6584614c99565b67ffffffffffffffff168552614096565b8160021415613f9c57613f8884614c99565b67ffffffffffffffff166020860152614096565b8160031415613fc957613fb6613fb185614a45565b614cf4565b6001600160a01b03166040860152614096565b816004141561403557613fe3613fde85614a45565b614cff565b856060015184600481518110613ff557fe5b60200260200101518151811061400757fe5b60200260200101819052508260048151811061401f57fe5b6020908102919091010180516001019052614096565b81600514156140865761404a613fde85614a45565b85608001518460058151811061405c57fe5b60200260200101518151811061406e57fe5b60200260200101819052508260058151811061401f57fe5b614096848263ffffffff614ad216565b613f37565b6001600160a01b0381166000908152600e602052604090206001600482015460ff1660028111156140c857fe5b146140d35750610f26565b60018101546001600160a01b038316600090815260038301602052604081205491909110906141026005610f75565b6002840154909150811182806141155750805b1561412b5761412b61412686614da0565b614132565b5050505050565b6000818152600b60205260409020546001600160a01b0316806141555750610f26565b6000828152600b6020908152604080832080546001600160a01b03191690556001600160a01b0384168352600e9091528120600401805460ff191660029081179091556141a190610f75565b90506141b3438263ffffffff6134b016565b6001600160a01b0383166000818152600e60205260408082206005019390935591516001927f63f783ba869265648de5e70add96be9f4914e3bde064fdc19fd7e6a8ebf2f46c91a3505050565b6000818152600b60205260409020546001600160a01b03161561422257600080fd5b6000818152600b6020908152604080832080546001600160a01b0319166001600160a01b038716908117909155808452600e90925280832060048101805460ff19166001179055600501839055517f63f783ba869265648de5e70add96be9f4914e3bde064fdc19fd7e6a8ebf2f46c908390a35050565b6127108211156142e3576040805162461bcd60e51b815260206004820152601060248201526f496e76616c6964206e6577207261746560801b604482015290519081900360640190fd5b43811015614338576040805162461bcd60e51b815260206004820152601a60248201527f4f75746461746564206e6577206c6f636b20656e642074696d65000000000000604482015290519081900360640190fd5b826006015482116143a157826007015481101561439c576040805162461bcd60e51b815260206004820152601960248201527f496e76616c6964206e6577206c6f636b20656e642074696d6500000000000000604482015290519081900360640190fd5b6143f9565b826007015443116143f9576040805162461bcd60e51b815260206004820152601960248201527f436f6d6d697373696f6e2072617465206973206c6f636b656400000000000000604482015290519081900360640190fd5b600683018290556007830181905560006008840181905560098401819055600a8401556040805183815260208101839052815133927f37954fc2aa8b4424ad16c75da2ea4d51ba08ef9e07907e37ccae54a0b4ce1e9e928290030190a2505050565b61446c60008263ffffffff614c5116565b6040516001600160a01b038216907fcd265ebaf09df2871cc7bd4133404a235ba12eff2041bb89d9c714a2621c7c7e90600090a250565b6144b460028263ffffffff61491916565b6040516001600160a01b038216907f22380c05984257a1cb900161c713dd71d39e74820f1aea43bd3f1bdd2096129990600090a250565b6144fc60008263ffffffff61491916565b6040516001600160a01b038216907f6719d08c1888103bea251a4ed56406bd0c3e69723c8a1686e017e7bbe159b6f890600090a250565b600083815260096020526040902060016003820154600160a81b900460ff16600281111561455d57fe5b146145a9576040805162461bcd60e51b8152602060048201526017602482015276496e76616c69642070726f706f73616c2073746174757360481b604482015290519081900360640190fd5b806002015443106145f9576040805162461bcd60e51b8152602060048201526015602482015274159bdd1948191958591b1a5b99481c995858da1959605a1b604482015290519081900360640190fd5b6001600160a01b038316600090815260048201602052604081205460ff16600381111561462257fe5b14614666576040805162461bcd60e51b815260206004820152600f60248201526e159bdd195c881a185cc81d9bdd1959608a1b604482015290519081900360640190fd5b6001600160a01b03831660009081526004820160205260409020805483919060ff1916600183600381111561469757fe5b02179055507f7686976924e1fdb79b36f7445ada20b6e9d3377d85b34d5162116e675c39d34c84848460405180848152602001836001600160a01b03166001600160a01b03168152602001826003811115613bf157fe5b60008281526006602052604090206001600582015460ff16600281111561471157fe5b1461475d576040805162461bcd60e51b8152602060048201526017602482015276496e76616c69642070726f706f73616c2073746174757360481b604482015290519081900360640190fd5b80600201544310156147b2576040805162461bcd60e51b8152602060048201526019602482015278159bdd1948191958591b1a5b99481b9bdd081c995858da1959603a1b604482015290519081900360640190fd5b60058101805460ff19166002179055811561480957805460018201546004546147ef926001600160a01b039182169291169063ffffffff61341b16565b600481015460038201546000908152600560205260409020555b60038101546004820154604080518681528515156020820152808201939093526060830191909152517f106f43a560e53395081c0423504b476d1a2cfed9d56ff972bf77ae43ff7d4ba49181900360800190a1505050565b600082614870575060006110f7565b8282028284828161487d57fe5b04146134c257600080fd5b600080821161489657600080fd5b60008284816148a157fe5b04949350505050565b6001600160a01b0381166148bd57600080fd5b6001546040516001600160a01b038084169216907f8be0079c531659141344cd1fd0a4f28419497f9722a3daafe3b4186f6b6457e090600090a3600180546001600160a01b0319166001600160a01b0392909216919091179055565b6001600160a01b03811661492c57600080fd5b6149368282613c54565b1561494057600080fd5b6001600160a01b0316600090815260209190915260409020805460ff19166001179055565b61496d614ed1565b60208101919091526000815290565b8151604080516001840180825260208082028301019092526060929180156149ae578160200160208202803883390190505b5091506000805b6149be86614a0c565b15614a03576149cc86614a18565b809250819350505060018483815181106149e257fe5b6020026020010181815101915081815250506149fe8682614ad2565b6149b5565b50509092525090565b60208101515190511090565b6000806000614a2684614c99565b9050600881049250806007166005811115614a3d57fe5b915050915091565b60606000614a5283614c99565b8351602085015151919250820190811115614a6c57600080fd5b816040519080825280601f01601f191660200182016040528015614a97576020820181803883390190505b50602080860151865192955091818601919083010160005b85811015614ac7578181015183820152602001614aaf565b505050935250919050565b6000816005811115614ae057fe5b1415614af557614aef82614c99565b506120ea565b6002816005811115614b0357fe5b1415610412576000614b1483614c99565b835181018085526020850151519192501115614aef57600080fd5b604080517f19457468657265756d205369676e6564204d6573736167653a0a333200000000602080830191909152603c8083019490945282518083039094018452605c909101909152815191012090565b6000806000808451604114614b9b57600093505050506110f7565b50505060208201516040830151606084015160001a601b811015614bbd57601b015b8060ff16601b14158015614bd557508060ff16601c14155b15614be657600093505050506110f7565b6040805160008152602080820180845289905260ff8416828401526060820186905260808201859052915160019260a0808401939192601f1981019281900390910190855afa158015614c3d573d6000803e3d6000fd5b5050506020604051035193505050506110f7565b6001600160a01b038116614c6457600080fd5b614c6e8282613c54565b614c7757600080fd5b6001600160a01b0316600090815260209190915260409020805460ff19169055565b602080820151825181019091015160009182805b600a811015614cee5783811a91508060070282607f16901b851794508160801660001415614ce6578551016001018552506114c7915050565b600101614cad565b50600080fd5b60006110f782614e31565b614d07614eba565b614d0f614ed1565b614d1883614965565b90506000805b614d2783614a0c565b15614d9857614d3583614a18565b90925090508160011415614d5f57614d4f613fb184614a45565b6001600160a01b03168452614d93565b8160021415614d8357614d79614d7484614a45565b614e50565b6020850152614d93565b614d93838263ffffffff614ad216565b614d1e565b505050919050565b600080614dad6004610f75565b905060005b81811015614ded576000818152600b60205260409020546001600160a01b0385811691161415614de55791506114c79050565b600101614db2565b506040805162461bcd60e51b815260206004820152601360248201527227379039bab1b41030903b30b634b230ba37b960691b604482015290519081900360640190fd5b60008151601414614e4157600080fd5b5060200151600160601b900490565b6000602082511115614e6157600080fd5b50602081810151915160089103021c90565b604051806040016040528060608152602001606081525090565b6040805160a081018252600080825260208201819052918101919091526060808201819052608082015290565b604080518082019091526000808252602082015290565b60405180604001604052806000815260200160608152509056fe5374616b65206973206c657373207468616e20616c6c2076616c696461746f727357686974656c6973746564526f6c653a2063616c6c657220646f6573206e6f742068617665207468652057686974656c697374656420726f6c6543616e646964617465206973206e6f7420696e697469616c697a656400000000a265627a7a723058200f8d8d59892ebc95a9e9c6c861caa7677abf2ff0c7af6d89fb892924936d2cf964736f6c634300050a0032",
  "source": "pragma solidity ^0.5.0;\n\nimport 'openzeppelin-solidity/contracts/math/SafeMath.sol';\nimport 'openzeppelin-solidity/contracts/token/ERC20/IERC20.sol';\nimport 'openzeppelin-solidity/contracts/token/ERC20/SafeERC20.sol';\nimport 'openzeppelin-solidity/contracts/cryptography/ECDSA.sol';\nimport 'openzeppelin-solidity/contracts/access/roles/WhitelistedRole.sol';\nimport 'openzeppelin-solidity/contracts/lifecycle/Pausable.sol';\nimport 'openzeppelin-solidity/contracts/ownership/Ownable.sol';\nimport './lib/interface/IDPoS.sol';\nimport './lib/data/PbSgn.sol';\nimport './lib/DPoSCommon.sol';\nimport './lib/Govern.sol';\n\n/**\n * @title A DPoS contract shared by every sidechain\n * @notice This contract holds the basic logic of DPoS in Celer's coherent sidechain system\n */\ncontract DPoS is IDPoS, Ownable, Pausable, WhitelistedRole, Govern {\n    using SafeMath for uint256;\n    using SafeERC20 for IERC20;\n    using ECDSA for bytes32;\n\n    enum MathOperation {Add, Sub}\n\n    struct WithdrawIntent {\n        uint256 amount;\n        uint256 proposedTime;\n    }\n\n    struct Delegator {\n        uint256 delegatedStake;\n        uint256 undelegatingStake;\n        mapping(uint256 => WithdrawIntent) withdrawIntents;\n        // valid intent range is [intentStartIndex, intentEndIndex)\n        uint256 intentStartIndex;\n        uint256 intentEndIndex;\n    }\n\n    struct ValidatorCandidate {\n        bool initialized;\n        uint256 minSelfStake;\n        uint256 stakingPool; // sum of all delegations to this candidate\n        mapping(address => Delegator) delegatorProfiles;\n        DPoSCommon.CandidateStatus status;\n        uint256 unbondTime;\n        uint256 commissionRate; // equal to real commission rate * COMMISSION_RATE_BASE\n        uint256 rateLockEndTime; // must be monotonic increasing. Use block number\n        // for the announcement of increasing commission rate\n        uint256 announcedRate;\n        uint256 announcedLockEndTime;\n        uint256 announcementTime;\n        // for decreasing minSelfStake\n        uint256 earliestBondTime;\n    }\n\n    mapping(uint256 => address) public validatorSet;\n    mapping(uint256 => bool) public usedPenaltyNonce;\n    // used in checkValidatorSigs(). mapping has to be storage type.\n    mapping(address => bool) public checkedValidators;\n    // struct ValidatorCandidate includes a mapping and therefore candidateProfiles can't be public\n    mapping(address => ValidatorCandidate) private candidateProfiles;\n    mapping(address => uint256) public redeemedMiningReward;\n\n    /********** Constants **********/\n    uint256 public constant COMMISSION_RATE_BASE = 10000; // 1 commissionRate means 0.01%\n\n    /********** TODO: use Immutable after migrating to Solidity v0.6.5 or higher **********/\n    IERC20 public celerToken;\n    // used for bootstrap: there should be enough time for delegating and claim the initial validators\n    uint256 public dposGoLiveTime;\n    uint256 public miningPool;\n    bool public enableWhitelist;\n\n    /**\n     * @notice Throws if given address is zero address\n     * @param _addr address to be checked\n     */\n    modifier onlyNonZeroAddr(address _addr) {\n        require(_addr != address(0), '0 address');\n        _;\n    }\n\n    /**\n     * @notice Throws if DPoS is not valid\n     * @dev Need to be checked before DPoS's operations\n     */\n    modifier onlyValidDPoS() {\n        require(isValidDPoS(), 'DPoS is not valid');\n        _;\n    }\n\n    /**\n     * @notice Throws if msg.sender is not a registered sidechain\n     */\n    modifier onlyRegisteredSidechains() {\n        require(isSidechainRegistered(msg.sender));\n        _;\n    }\n\n    /**\n     * @notice Check if the sender is in the whitelist\n     */\n    modifier onlyWhitelist() {\n        if (enableWhitelist) {\n            require(\n                isWhitelisted(msg.sender),\n                'WhitelistedRole: caller does not have the Whitelisted role'\n            );\n        }\n        _;\n    }\n\n    /**\n     * @notice Throws if contract in migrating state\n     */\n    modifier onlyNotMigrating() {\n        require(!isMigrating(), 'contract migrating');\n        _;\n    }\n\n    /**\n     * @notice DPoS constructor\n     * @dev will initialize parent contract Govern first\n     * @param _celerTokenAddress address of Celer Token Contract\n     * @param _governProposalDeposit required deposit amount for a governance proposal\n     * @param _governVoteTimeout voting timeout for a governance proposal\n     * @param _slashTimeout the locking time for funds to be potentially slashed\n     * @param _minValidatorNum the minimum number of validators\n     * @param _maxValidatorNum the maximum number of validators\n     * @param _minStakeInPool the global minimum requirement of staking pool for each validator\n     * @param _advanceNoticePeriod the wait time after the announcement and prior to the effective date of an update\n     * @param _dposGoLiveTimeout the timeout for DPoS to go live after contract creatation\n     */\n    constructor(\n        address _celerTokenAddress,\n        uint256 _governProposalDeposit,\n        uint256 _governVoteTimeout,\n        uint256 _slashTimeout,\n        uint256 _minValidatorNum,\n        uint256 _maxValidatorNum,\n        uint256 _minStakeInPool,\n        uint256 _advanceNoticePeriod,\n        uint256 _dposGoLiveTimeout\n    )\n        public\n        Govern(\n            _celerTokenAddress,\n            _governProposalDeposit,\n            _governVoteTimeout,\n            _slashTimeout,\n            _minValidatorNum,\n            _maxValidatorNum,\n            _minStakeInPool,\n            _advanceNoticePeriod\n        )\n    {\n        celerToken = IERC20(_celerTokenAddress);\n        dposGoLiveTime = block.number.add(_dposGoLiveTimeout);\n    }\n\n    /**\n     * @notice Update enableWhitelist\n     * @param _enable enable whitelist flag\n     */\n    function updateEnableWhitelist(bool _enable) external onlyOwner {\n        enableWhitelist = _enable;\n    }\n\n    /**\n     * @notice Onwer drains one type of tokens when the contract is paused\n     * @dev This is for emergency situations.\n     * @param _amount drained token amount\n     */\n    function drainToken(uint256 _amount) external whenPaused onlyOwner {\n        celerToken.safeTransfer(msg.sender, _amount);\n    }\n\n    /**\n     * @notice Vote for a parameter proposal with a specific type of vote\n     * @param _proposalId the id of the parameter proposal\n     * @param _vote the type of vote\n     */\n    function voteParam(uint256 _proposalId, VoteType _vote) external {\n        address msgSender = msg.sender;\n        require(isValidator(msgSender), 'msg sender is not a validator');\n\n        internalVoteParam(_proposalId, msgSender, _vote);\n    }\n\n    /**\n     * @notice Confirm a parameter proposal\n     * @param _proposalId the id of the parameter proposal\n     */\n    function confirmParamProposal(uint256 _proposalId) external {\n        uint256 maxValidatorNum = getUIntValue(\n            uint256(ParamNames.MaxValidatorNum)\n        );\n\n        // check Yes votes only now\n        uint256 yesVotes = 0;\n        for (uint256 i = 0; i < maxValidatorNum; i++) {\n            if (\n                getParamProposalVote(_proposalId, validatorSet[i]) ==\n                VoteType.Yes\n            ) {\n                yesVotes = yesVotes.add(\n                    candidateProfiles[validatorSet[i]].stakingPool\n                );\n            }\n        }\n\n        bool passed = yesVotes >= getMinQuorumStakingPool();\n        internalConfirmParamProposal(_proposalId, passed);\n    }\n\n    /**\n     * @notice Vote for a sidechain proposal with a specific type of vote\n     * @param _proposalId the id of the sidechain proposal\n     * @param _vote the type of vote\n     */\n    function voteSidechain(uint256 _proposalId, VoteType _vote) external {\n        address msgSender = msg.sender;\n        require(isValidator(msgSender), 'msg sender is not a validator');\n\n        internalVoteSidechain(_proposalId, msgSender, _vote);\n    }\n\n    /**\n     * @notice Confirm a sidechain proposal\n     * @param _proposalId the id of the sidechain proposal\n     */\n    function confirmSidechainProposal(uint256 _proposalId) external {\n        uint256 maxValidatorNum = getUIntValue(\n            uint256(ParamNames.MaxValidatorNum)\n        );\n\n        // check Yes votes only now\n        uint256 yesVotes = 0;\n        for (uint256 i = 0; i < maxValidatorNum; i++) {\n            if (\n                getSidechainProposalVote(_proposalId, validatorSet[i]) ==\n                VoteType.Yes\n            ) {\n                yesVotes = yesVotes.add(\n                    candidateProfiles[validatorSet[i]].stakingPool\n                );\n            }\n        }\n\n        bool passed = yesVotes >= getMinQuorumStakingPool();\n        internalConfirmSidechainProposal(_proposalId, passed);\n    }\n\n    /**\n     * @notice Contribute CELR tokens to the mining pool\n     * @param _amount the amount of CELR tokens to contribute\n     */\n    function contributeToMiningPool(uint256 _amount) external whenNotPaused {\n        address msgSender = msg.sender;\n        miningPool = miningPool.add(_amount);\n        celerToken.safeTransferFrom(msgSender, address(this), _amount);\n\n        emit MiningPoolContribution(msgSender, _amount, miningPool);\n    }\n\n    /**\n     * @notice Redeem mining reward\n     * @dev The validation of this redeeming operation should be done by the caller, a registered sidechain contract\n     * @dev Here we use cumulative mining reward to simplify the logic in sidechain code\n     * @param _receiver the receiver of the redeemed mining reward\n     * @param _cumulativeReward the latest cumulative mining reward\n     */\n    function redeemMiningReward(address _receiver, uint256 _cumulativeReward)\n        external\n        whenNotPaused\n        onlyRegisteredSidechains\n    {\n        uint256 newReward = _cumulativeReward.sub(\n            redeemedMiningReward[_receiver]\n        );\n        redeemedMiningReward[_receiver] = _cumulativeReward;\n\n        miningPool = miningPool.sub(newReward);\n        celerToken.safeTransfer(_receiver, newReward);\n\n        emit RedeemMiningReward(_receiver, newReward, miningPool);\n    }\n\n    /**\n     * @notice Initialize a candidate profile for validator\n     * @dev every validator must become a candidate first\n     * @param _minSelfStake minimal amount of tokens staked by the validator itself\n     * @param _commissionRate the self-declaimed commission rate\n     * @param _rateLockEndTime the lock end time of initial commission rate\n     */\n    function initializeCandidate(\n        uint256 _minSelfStake,\n        uint256 _commissionRate,\n        uint256 _rateLockEndTime\n    ) external whenNotPaused onlyWhitelist {\n        ValidatorCandidate storage candidate = candidateProfiles[msg.sender];\n        require(!candidate.initialized, 'Candidate is initialized');\n        require(_commissionRate <= COMMISSION_RATE_BASE);\n\n        candidate.initialized = true;\n        candidate.minSelfStake = _minSelfStake;\n        candidate.commissionRate = _commissionRate;\n        candidate.rateLockEndTime = _rateLockEndTime;\n\n        emit InitializeCandidate(\n            msg.sender,\n            _minSelfStake,\n            _commissionRate,\n            _rateLockEndTime\n        );\n    }\n\n    /**\n     * @notice Apply non-increase-commission-rate changes to commission rate or lock end time,\n     *   including decreasing commission rate and/or changing lock end time\n     * @dev It can increase lock end time immediately without waiting\n     * @param _newRate new commission rate\n     * @param _newLockEndTime new lock end time\n     */\n    function nonIncreaseCommissionRate(\n        uint256 _newRate,\n        uint256 _newLockEndTime\n    ) external {\n        ValidatorCandidate storage candidate = candidateProfiles[msg.sender];\n        require(candidate.initialized, 'Candidate is not initialized');\n        require(_newRate <= candidate.commissionRate, 'Invalid new rate');\n\n        _updateCommissionRate(candidate, _newRate, _newLockEndTime);\n    }\n\n    /**\n     * @notice Announce the intent of increasing the commission rate\n     * @param _newRate new commission rate\n     * @param _newLockEndTime new lock end time\n     */\n    function announceIncreaseCommissionRate(\n        uint256 _newRate,\n        uint256 _newLockEndTime\n    ) external {\n        ValidatorCandidate storage candidate = candidateProfiles[msg.sender];\n        require(candidate.initialized, 'Candidate is not initialized');\n        require(candidate.commissionRate < _newRate, 'Invalid new rate');\n\n        candidate.announcedRate = _newRate;\n        candidate.announcedLockEndTime = _newLockEndTime;\n        candidate.announcementTime = block.number;\n\n        emit CommissionRateAnnouncement(msg.sender, _newRate, _newLockEndTime);\n    }\n\n    /**\n     * @notice Confirm the intent of increasing the commission rate\n     */\n    function confirmIncreaseCommissionRate() external {\n        ValidatorCandidate storage candidate = candidateProfiles[msg.sender];\n        require(candidate.initialized, 'Candidate is not initialized');\n        uint256 advanceNoticePeriod = getUIntValue(\n            uint256(ParamNames.AdvanceNoticePeriod)\n        );\n        require(\n            block.number > candidate.announcementTime + advanceNoticePeriod,\n            'Still in notice period'\n        );\n\n        _updateCommissionRate(\n            candidate,\n            candidate.announcedRate,\n            candidate.announcedLockEndTime\n        );\n    }\n\n    /**\n     * @notice update minimal self stake value\n     * @param _minSelfStake minimal amount of tokens staked by the validator itself\n     */\n    function updateMinSelfStake(uint256 _minSelfStake) external {\n        ValidatorCandidate storage candidate = candidateProfiles[msg.sender];\n        require(candidate.initialized, 'Candidate is not initialized');\n        if (_minSelfStake < candidate.minSelfStake) {\n            require(\n                candidate.status != DPoSCommon.CandidateStatus.Bonded,\n                'Candidate is bonded'\n            );\n            uint256 advanceNoticePeriod = getUIntValue(\n                uint256(ParamNames.AdvanceNoticePeriod)\n            );\n            candidate.earliestBondTime = block.number + advanceNoticePeriod;\n        }\n        candidate.minSelfStake = _minSelfStake;\n        emit UpdateMinSelfStake(msg.sender, _minSelfStake);\n    }\n\n    /**\n     * @notice Delegate CELR tokens to a candidate\n     * @param _candidateAddr candidate to delegate\n     * @param _amount the amount of delegated CELR tokens\n     */\n    function delegate(address _candidateAddr, uint256 _amount)\n        external\n        whenNotPaused\n        onlyNonZeroAddr(_candidateAddr)\n    {\n\n        ValidatorCandidate storage candidate = candidateProfiles[_candidateAddr];\n        require(candidate.initialized, 'Candidate is not initialized');\n\n        address msgSender = msg.sender;\n        _updateDelegatedStake(candidate, _candidateAddr, msgSender, _amount, MathOperation.Add);\n\n        celerToken.safeTransferFrom(msgSender, address(this), _amount);\n\n        emit Delegate(\n            msgSender,\n            _candidateAddr,\n            _amount,\n            candidate.stakingPool\n        );\n    }\n\n    /**\n     * @notice Candidate claims to become a validator\n     */\n    function claimValidator() external {\n        address msgSender = msg.sender;\n        ValidatorCandidate storage candidate = candidateProfiles[msgSender];\n        require(candidate.initialized, 'Candidate is not initialized');\n        // TODO: decide whether Unbonding status is valid to claimValidator or not\n        require(\n            candidate.status == DPoSCommon.CandidateStatus.Unbonded ||\n                candidate.status == DPoSCommon.CandidateStatus.Unbonding\n        );\n        require(\n            block.number > candidate.earliestBondTime,\n            'Not earliest bond time yet'\n        );\n        uint256 minStakeInPool = getUIntValue(\n            uint256(ParamNames.MinStakeInPool)\n        );\n        require(\n            candidate.stakingPool >= minStakeInPool,\n            'Insufficient staking pool'\n        );\n        require(\n            candidate.delegatorProfiles[msgSender].delegatedStake >=\n                candidate.minSelfStake,\n            'Not enough self stake'\n        );\n\n        uint256 minStakingPoolIndex = 0;\n        uint256 minStakingPool = candidateProfiles[validatorSet[0]].stakingPool;\n        require(validatorSet[0] != msgSender, 'Already in validator set');\n        uint256 maxValidatorNum = getUIntValue(\n            uint256(ParamNames.MaxValidatorNum)\n        );\n        for (uint256 i = 1; i < maxValidatorNum; i++) {\n            require(validatorSet[i] != msgSender, 'Already in validator set');\n            if (\n                candidateProfiles[validatorSet[i]].stakingPool < minStakingPool\n            ) {\n                minStakingPoolIndex = i;\n                minStakingPool = candidateProfiles[validatorSet[i]].stakingPool;\n            }\n        }\n        require(\n            candidate.stakingPool > minStakingPool,\n            'Stake is less than all validators'\n        );\n\n        address removedValidator = validatorSet[minStakingPoolIndex];\n        if (removedValidator != address(0)) {\n            _removeValidator(minStakingPoolIndex);\n        }\n        _addValidator(msgSender, minStakingPoolIndex);\n    }\n\n    /**\n     * @notice Confirm candidate status from Unbonding to Unbonded\n     * @param _candidateAddr the address of the candidate\n     */\n    function confirmUnbondedCandidate(address _candidateAddr) external {\n\n        ValidatorCandidate storage candidate = candidateProfiles[_candidateAddr];\n        require(candidate.status == DPoSCommon.CandidateStatus.Unbonding);\n        require(block.number >= candidate.unbondTime);\n\n        candidate.status = DPoSCommon.CandidateStatus.Unbonded;\n        delete candidate.unbondTime;\n        emit CandidateUnbonded(_candidateAddr);\n    }\n\n    /**\n     * @notice Withdraw delegated stakes from an unbonded candidate\n     * @dev note that the stakes are delegated by the msgSender to the candidate\n     * @param _candidateAddr the address of the candidate\n     * @param _amount withdrawn amount\n     */\n    function withdrawFromUnbondedCandidate(\n        address _candidateAddr,\n        uint256 _amount\n    ) external onlyNonZeroAddr(_candidateAddr) {\n\n        ValidatorCandidate storage candidate = candidateProfiles[_candidateAddr];\n        require(\n            candidate.status == DPoSCommon.CandidateStatus.Unbonded || isMigrating(),\n            'invalid status'\n        );\n\n        address msgSender = msg.sender;\n        _updateDelegatedStake(candidate, _candidateAddr, msgSender, _amount, MathOperation.Sub);\n        celerToken.safeTransfer(msgSender, _amount);\n\n        emit WithdrawFromUnbondedCandidate(msgSender, _candidateAddr, _amount);\n    }\n\n    /**\n     * @notice Intend to withdraw delegated stakes from a candidate\n     * @dev note that the stakes are delegated by the msgSender to the candidate\n     * @param _candidateAddr the address of the candidate\n     * @param _amount withdrawn amount\n     */\n    function intendWithdraw(address _candidateAddr, uint256 _amount)\n        external\n        onlyNonZeroAddr(_candidateAddr)\n    {\n        address msgSender = msg.sender;\n\n        ValidatorCandidate storage candidate = candidateProfiles[_candidateAddr];\n        Delegator storage delegator = candidate.delegatorProfiles[msgSender];\n\n        _updateDelegatedStake(candidate, _candidateAddr, msgSender, _amount, MathOperation.Sub);\n        delegator.undelegatingStake = delegator.undelegatingStake.add(_amount);\n        _validateValidator(_candidateAddr);\n\n        WithdrawIntent storage withdrawIntent = delegator\n            .withdrawIntents[delegator.intentEndIndex];\n        withdrawIntent.amount = _amount;\n        withdrawIntent.proposedTime = block.number;\n        delegator.intentEndIndex++;\n\n        emit IntendWithdraw(\n            msgSender,\n            _candidateAddr,\n            _amount,\n            withdrawIntent.proposedTime\n        );\n    }\n\n    /**\n     * @notice Confirm an intent of withdrawing delegated stakes from a candidate\n     * @dev note that the stakes are delegated by the msgSender to the candidate\n     * @param _candidateAddr the address of the candidate\n     */\n    function confirmWithdraw(address _candidateAddr)\n        external\n        onlyNonZeroAddr(_candidateAddr)\n    {\n        address msgSender = msg.sender;\n        Delegator storage delegator = candidateProfiles[_candidateAddr]\n            .delegatorProfiles[msgSender];\n\n        uint256 bn = block.number;\n        uint256 i;\n        bool isUnbonded = candidateProfiles[_candidateAddr].status ==\n            DPoSCommon.CandidateStatus.Unbonded;\n        // for all undelegated withdraw intents\n        for (\n            i = delegator.intentStartIndex;\n            i < delegator.intentEndIndex;\n            i++\n        ) {\n            WithdrawIntent storage wi = delegator.withdrawIntents[i];\n            uint256 slashTimeout = getUIntValue(\n                uint256(ParamNames.SlashTimeout)\n            );\n            if (isUnbonded || wi.proposedTime.add(slashTimeout) <= bn) {\n                // withdraw intent is undelegated when the validator becomes unbonded or the slashTimeout\n                // for the withdraw intent is up.\n                delete delegator.withdrawIntents[i];\n                continue;\n            }\n            break;\n        }\n        delegator.intentStartIndex = i;\n        // for all undelegating withdraw intents\n        uint256 undelegatingStakeWithoutSlash = 0;\n        for (; i < delegator.intentEndIndex; i++) {\n            WithdrawIntent storage wi = delegator.withdrawIntents[i];\n            undelegatingStakeWithoutSlash = undelegatingStakeWithoutSlash.add(\n                wi.amount\n            );\n        }\n\n        uint256 withdrawAmt = 0;\n        if (delegator.undelegatingStake > undelegatingStakeWithoutSlash) {\n            withdrawAmt = delegator.undelegatingStake.sub(\n                undelegatingStakeWithoutSlash\n            );\n            delegator.undelegatingStake = undelegatingStakeWithoutSlash;\n\n            celerToken.safeTransfer(msgSender, withdrawAmt);\n        }\n\n        emit ConfirmWithdraw(msgSender, _candidateAddr, withdrawAmt);\n    }\n\n    /**\n     * @notice Slash validators\n     * @param _penaltyRequest penalty request bytes coded in protobuf\n     */\n    function slash(bytes calldata _penaltyRequest)\n        external\n        whenNotPaused\n        onlyValidDPoS\n        onlyNotMigrating\n    {\n        PbSgn.PenaltyRequest memory penaltyRequest = PbSgn.decPenaltyRequest(_penaltyRequest);\n        PbSgn.Penalty memory penalty = PbSgn.decPenalty(penaltyRequest.penalty);\n\n        ValidatorCandidate storage validator = candidateProfiles[penalty.validatorAddress];\n        require(validator.status != DPoSCommon.CandidateStatus.Unbonded, 'Validator unbounded');\n\n        bytes32 h = keccak256(penaltyRequest.penalty);\n        require(\n            _checkValidatorSigs(h, penaltyRequest.sigs),\n            'Fail to check validator sigs'\n        );\n        require(block.number < penalty.expireTime, 'Penalty expired');\n        require(!usedPenaltyNonce[penalty.nonce], 'Used penalty nonce');\n        usedPenaltyNonce[penalty.nonce] = true;\n\n        uint256 totalSubAmt = 0;\n        for (uint256 i = 0; i < penalty.penalizedDelegators.length; i++) {\n            PbSgn.AccountAmtPair memory penalizedDelegator = penalty.penalizedDelegators[i];\n            totalSubAmt = totalSubAmt.add(penalizedDelegator.amt);\n            emit Slash(\n                penalty.validatorAddress,\n                penalizedDelegator.account,\n                penalizedDelegator.amt\n            );\n\n            Delegator storage delegator = validator.delegatorProfiles[penalizedDelegator.account];\n            if (delegator.delegatedStake >= penalizedDelegator.amt) {\n                _updateDelegatedStake(\n                    validator,\n                    penalty.validatorAddress,\n                    penalizedDelegator.account,\n                    penalizedDelegator.amt,\n                    MathOperation.Sub\n                );\n            } else {\n                uint256 remainingAmt = penalizedDelegator.amt.sub(delegator.delegatedStake);\n                delegator.undelegatingStake = delegator.undelegatingStake.sub(remainingAmt);\n                _updateDelegatedStake(\n                    validator,\n                    penalty.validatorAddress,\n                    penalizedDelegator.account,\n                    delegator.delegatedStake,\n                    MathOperation.Sub\n                );\n            }\n        }\n        _validateValidator(penalty.validatorAddress);\n\n        uint256 totalAddAmt = 0;\n        for (uint256 i = 0; i < penalty.beneficiaries.length; i++) {\n            PbSgn.AccountAmtPair memory beneficiary = penalty.beneficiaries[i];\n            totalAddAmt = totalAddAmt.add(beneficiary.amt);\n            emit Compensate(beneficiary.account, beneficiary.amt);\n\n            if (beneficiary.account == address(0)) {\n                // address(0) stands for miningPool\n                miningPool = miningPool.add(beneficiary.amt);\n            } else {\n                celerToken.safeTransfer(beneficiary.account, beneficiary.amt);\n            }\n        }\n\n        require(totalSubAmt == totalAddAmt, 'Amount not match');\n    }\n\n    /**\n     * @notice Validate multi-signed message\n     * @dev Can't use view here because _checkValidatorSigs is not a view function\n     * @param _request a multi-signed message bytes coded in protobuf\n     * @return passed the validation or not\n     */\n    function validateMultiSigMessage(bytes calldata _request)\n        external\n        onlyRegisteredSidechains\n        returns (bool)\n    {\n        PbSgn.MultiSigMessage memory request = PbSgn.decMultiSigMessage(\n            _request\n        );\n        bytes32 h = keccak256(request.msg);\n\n        return _checkValidatorSigs(h, request.sigs);\n    }\n\n    /**\n     * @notice Check this DPoS contract is valid or not now\n     * @return DPoS is valid or not\n     */\n    function isValidDPoS() public view returns (bool) {\n        uint256 minValidatorNum = getUIntValue(\n            uint256(ParamNames.MinValidatorNum)\n        );\n        return\n            block.number >= dposGoLiveTime &&\n            getValidatorNum() >= minValidatorNum;\n    }\n\n    /**\n     * @notice Check the given address is a validator or not\n     * @param _addr the address to check\n     * @return the given address is a validator or not\n     */\n    function isValidator(address _addr) public view returns (bool) {\n        return\n            candidateProfiles[_addr].status ==\n            DPoSCommon.CandidateStatus.Bonded;\n    }\n\n    /**\n     * @notice Check if the contract is in migrating state\n     * @return contract in migrating state or not\n     */\n    function isMigrating() public view returns (bool) {\n        uint256 migrationTime = getUIntValue(\n            uint256(ParamNames.MigrationTime)\n        );\n        return migrationTime != 0 && block.number >= migrationTime;\n    }\n\n\n    /**\n     * @notice Get the number of validators\n     * @return the number of validators\n     */\n    function getValidatorNum() public view returns (uint256) {\n        uint256 maxValidatorNum = getUIntValue(\n            uint256(ParamNames.MaxValidatorNum)\n        );\n\n        uint256 num = 0;\n        for (uint256 i = 0; i < maxValidatorNum; i++) {\n            if (validatorSet[i] != address(0)) {\n                num++;\n            }\n        }\n        return num;\n    }\n\n    /**\n     * @notice Get the minimum staking pool of all validators\n     * @return the minimum staking pool of all validators\n     */\n    function getMinStakingPool() public view returns (uint256) {\n        uint256 maxValidatorNum = getUIntValue(\n            uint256(ParamNames.MaxValidatorNum)\n        );\n\n        uint256 minStakingPool = 0;\n        uint256 i = 0;\n        for (; i < maxValidatorNum; i++) {\n            if (validatorSet[i] == address(0)) {\n                continue;\n            }\n\n            minStakingPool = candidateProfiles[validatorSet[i]].stakingPool;\n            break;\n        }\n\n        for (i++; i < maxValidatorNum; i++) {\n            if (\n                candidateProfiles[validatorSet[i]].stakingPool < minStakingPool\n            ) {\n                minStakingPool = candidateProfiles[validatorSet[i]].stakingPool;\n            }\n        }\n\n        return minStakingPool;\n    }\n\n    /**\n     * @notice Get candidate info\n     * @param _candidateAddr the address of the candidate\n     * @return initialized whether initialized or not\n     * @return minSelfStake minimum self stakes\n     * @return stakingPool staking pool\n     * @return status candidate status\n     * @return unbondTime unbond time\n     * @return commissionRate commission rate\n     * @return rateLockEndTime commission rate lock end time\n     */\n    function getCandidateInfo(address _candidateAddr)\n        public\n        view\n        returns (\n            bool initialized,\n            uint256 minSelfStake,\n            uint256 stakingPool,\n            uint256 status,\n            uint256 unbondTime,\n            uint256 commissionRate,\n            uint256 rateLockEndTime\n        )\n    {\n        ValidatorCandidate storage c = candidateProfiles[_candidateAddr];\n\n        initialized = c.initialized;\n        minSelfStake = c.minSelfStake;\n        stakingPool = c.stakingPool;\n        status = uint256(c.status);\n        unbondTime = c.unbondTime;\n        commissionRate = c.commissionRate;\n        rateLockEndTime = c.rateLockEndTime;\n    }\n\n    /**\n     * @notice Get the delegator info of a specific candidate\n     * @param _candidateAddr the address of the candidate\n     * @param _delegatorAddr the address of the delegator\n     * @return delegatedStake delegated stake to this candidate\n     * @return undelegatingStake undelegating stakes\n     * @return intentAmounts the amounts of withdraw intents\n     * @return intentProposedTimes the proposed times of withdraw intents\n     */\n    function getDelegatorInfo(address _candidateAddr, address _delegatorAddr)\n        public\n        view\n        returns (\n            uint256 delegatedStake,\n            uint256 undelegatingStake,\n            uint256[] memory intentAmounts,\n            uint256[] memory intentProposedTimes\n        )\n    {\n        Delegator storage d = candidateProfiles[_candidateAddr]\n            .delegatorProfiles[_delegatorAddr];\n\n        uint256 len = d.intentEndIndex.sub(d.intentStartIndex);\n        intentAmounts = new uint256[](len);\n        intentProposedTimes = new uint256[](len);\n        for (uint256 i = 0; i < len; i++) {\n            intentAmounts[i] = d.withdrawIntents[i + d.intentStartIndex].amount;\n            intentProposedTimes[i] = d.withdrawIntents[i + d.intentStartIndex]\n                .proposedTime;\n        }\n\n        delegatedStake = d.delegatedStake;\n        undelegatingStake = d.undelegatingStake;\n    }\n\n    /**\n     * @notice Get minimum amount of stakes for a quorum\n     * @return the minimum amount\n     */\n    function getMinQuorumStakingPool() public view returns (uint256) {\n        return getTotalValidatorStakingPool().mul(2).div(3).add(1);\n    }\n\n    /**\n     * @notice Get the total amount of stakes in validators' staking pools\n     * @return the total amount\n     */\n    function getTotalValidatorStakingPool() public view returns (uint256) {\n        uint256 maxValidatorNum = getUIntValue(\n            uint256(ParamNames.MaxValidatorNum)\n        );\n\n        uint256 totalValidatorStakingPool = 0;\n        for (uint256 i = 0; i < maxValidatorNum; i++) {\n            totalValidatorStakingPool = totalValidatorStakingPool.add(\n                candidateProfiles[validatorSet[i]].stakingPool\n            );\n        }\n\n        return totalValidatorStakingPool;\n    }\n\n    /**\n     * @notice Update the commission rate of a candidate\n     * @param _candidate the candidate to update\n     * @param _newRate new commission rate\n     * @param _newLockEndTime new lock end time\n     */\n    function _updateCommissionRate(\n        ValidatorCandidate storage _candidate,\n        uint256 _newRate,\n        uint256 _newLockEndTime\n    ) private {\n        require(_newRate <= COMMISSION_RATE_BASE, 'Invalid new rate');\n        require(_newLockEndTime >= block.number, 'Outdated new lock end time');\n\n        if (_newRate <= _candidate.commissionRate) {\n            require(\n                _newLockEndTime >= _candidate.rateLockEndTime,\n                'Invalid new lock end time'\n            );\n        } else {\n            require(\n                block.number > _candidate.rateLockEndTime,\n                'Commission rate is locked'\n            );\n        }\n\n        _candidate.commissionRate = _newRate;\n        _candidate.rateLockEndTime = _newLockEndTime;\n\n        delete _candidate.announcedRate;\n        delete _candidate.announcedLockEndTime;\n        delete _candidate.announcementTime;\n\n        emit UpdateCommissionRate(msg.sender, _newRate, _newLockEndTime);\n    }\n\n    /**\n     * @notice Update the delegated stake of a delegator to an candidate\n     * @param _candidate the candidate\n     * @param _delegatorAddr the delegator address\n     * @param _amount update amount\n     * @param _op update operation\n     */\n    function _updateDelegatedStake(\n        ValidatorCandidate storage _candidate,\n        address _candidateAddr,\n        address _delegatorAddr,\n        uint256 _amount,\n        MathOperation _op\n    ) private {\n        Delegator storage delegator = _candidate.delegatorProfiles[_delegatorAddr];\n\n        if (_op == MathOperation.Add) {\n            _candidate.stakingPool = _candidate.stakingPool.add(_amount);\n            delegator.delegatedStake = delegator.delegatedStake.add(_amount);\n        } else if (_op == MathOperation.Sub) {\n            _candidate.stakingPool = _candidate.stakingPool.sub(_amount);\n            delegator.delegatedStake = delegator.delegatedStake.sub(_amount);\n        } else {\n            assert(false);\n        }\n        emit UpdateDelegatedStake(\n            _delegatorAddr,\n            _candidateAddr,\n            delegator.delegatedStake,\n            _candidate.stakingPool\n        );\n    }\n\n    /**\n     * @notice Add a validator\n     * @param _validatorAddr the address of the validator\n     * @param _setIndex the index to put the validator\n     */\n    function _addValidator(address _validatorAddr, uint256 _setIndex) private {\n        require(validatorSet[_setIndex] == address(0));\n\n        validatorSet[_setIndex] = _validatorAddr;\n        candidateProfiles[_validatorAddr].status = DPoSCommon\n            .CandidateStatus\n            .Bonded;\n        delete candidateProfiles[_validatorAddr].unbondTime;\n        emit ValidatorChange(_validatorAddr, ValidatorChangeType.Add);\n    }\n\n    /**\n     * @notice Remove a validator\n     * @param _setIndex the index of the validator to be removed\n     */\n    function _removeValidator(uint256 _setIndex) private {\n        address removedValidator = validatorSet[_setIndex];\n        if (removedValidator == address(0)) {\n            return;\n        }\n\n        delete validatorSet[_setIndex];\n        candidateProfiles[removedValidator].status = DPoSCommon\n            .CandidateStatus\n            .Unbonding;\n        uint256 slashTimeout = getUIntValue(uint256(ParamNames.SlashTimeout));\n        candidateProfiles[removedValidator].unbondTime = block.number.add(\n            slashTimeout\n        );\n        emit ValidatorChange(removedValidator, ValidatorChangeType.Removal);\n    }\n\n    /**\n     * @notice Validate a validator status after stakes change\n     * @dev remove this validator if it doesn't meet the requirement of being a validator\n     * @param _validatorAddr the validator address\n     */\n    function _validateValidator(address _validatorAddr) private {\n        ValidatorCandidate storage v = candidateProfiles[_validatorAddr];\n        if (v.status != DPoSCommon.CandidateStatus.Bonded) {\n            // no need to validate the stake of a non-validator\n            return;\n        }\n\n        bool lowSelfStake = v.delegatorProfiles[_validatorAddr].delegatedStake <\n            v.minSelfStake;\n        uint256 minStakeInPool = getUIntValue(\n            uint256(ParamNames.MinStakeInPool)\n        );\n        bool lowStakingPool = v.stakingPool < minStakeInPool;\n\n        if (lowSelfStake || lowStakingPool) {\n            _removeValidator(_getValidatorIdx(_validatorAddr));\n        }\n    }\n\n    /**\n     * @notice Check whether validators with more than 2/3 total stakes have signed this hash\n     * @param _h signed hash\n     * @param _sigs signatures\n     * @return whether the signatures are valid or not\n     */\n    function _checkValidatorSigs(bytes32 _h, bytes[] memory _sigs)\n        private\n        returns (bool)\n    {\n        uint256 minQuorumStakingPool = getMinQuorumStakingPool();\n\n        bytes32 hash = _h.toEthSignedMessageHash();\n        address[] memory addrs = new address[](_sigs.length);\n        uint256 quorumStakingPool = 0;\n        bool hasDuplicatedSig = false;\n        for (uint256 i = 0; i < _sigs.length; i++) {\n            addrs[i] = hash.recover(_sigs[i]);\n            if (checkedValidators[addrs[i]]) {\n                hasDuplicatedSig = true;\n                break;\n            }\n            if (\n                candidateProfiles[addrs[i]].status !=\n                DPoSCommon.CandidateStatus.Bonded\n            ) {\n                continue;\n            }\n\n            quorumStakingPool = quorumStakingPool.add(\n                candidateProfiles[addrs[i]].stakingPool\n            );\n            checkedValidators[addrs[i]] = true;\n        }\n\n        for (uint256 i = 0; i < _sigs.length; i++) {\n            checkedValidators[addrs[i]] = false;\n        }\n\n        return !hasDuplicatedSig && quorumStakingPool >= minQuorumStakingPool;\n    }\n\n    /**\n     * @notice Get validator index\n     * @param _addr the validator address\n     * @return the index of the validator\n     */\n    function _getValidatorIdx(address _addr) private view returns (uint256) {\n        uint256 maxValidatorNum = getUIntValue(\n            uint256(ParamNames.MaxValidatorNum)\n        );\n\n        for (uint256 i = 0; i < maxValidatorNum; i++) {\n            if (validatorSet[i] == _addr) {\n                return i;\n            }\n        }\n\n        revert('No such a validator');\n    }\n}\n",
  "sourcePath": "/home/ubuntu/sgn-contract/contracts/DPoS.sol",
  "compiler": {
    "name": "solc",
    "version": "0.5.10+commit.5a6ea5b1.Emscripten.clang"
  },
  "schemaVersion": "3.2.3",
  "updatedAt": "2020-09-02T05:52:35.053Z",
  "networkType": "ethereum",
  "devdoc": {
    "methods": {
      "announceIncreaseCommissionRate(uint256,uint256)": {
        "params": {
          "_newLockEndTime": "new lock end time",
          "_newRate": "new commission rate"
        }
      },
      "confirmParamProposal(uint256)": {
        "params": {
          "_proposalId": "the id of the parameter proposal"
        }
      },
      "confirmSidechainProposal(uint256)": {
        "params": {
          "_proposalId": "the id of the sidechain proposal"
        }
      },
      "confirmUnbondedCandidate(address)": {
        "params": {
          "_candidateAddr": "the address of the candidate"
        }
      },
      "confirmWithdraw(address)": {
        "details": "note that the stakes are delegated by the msgSender to the candidate",
        "params": {
          "_candidateAddr": "the address of the candidate"
        }
      },
      "constructor": {
        "details": "will initialize parent contract Govern first",
        "params": {
          "_advanceNoticePeriod": "the wait time after the announcement and prior to the effective date of an update",
          "_celerTokenAddress": "address of Celer Token Contract",
          "_dposGoLiveTimeout": "the timeout for DPoS to go live after contract creatation",
          "_governProposalDeposit": "required deposit amount for a governance proposal",
          "_governVoteTimeout": "voting timeout for a governance proposal",
          "_maxValidatorNum": "the maximum number of validators",
          "_minStakeInPool": "the global minimum requirement of staking pool for each validator",
          "_minValidatorNum": "the minimum number of validators",
          "_slashTimeout": "the locking time for funds to be potentially slashed"
        }
      },
      "contributeToMiningPool(uint256)": {
        "params": {
          "_amount": "the amount of CELR tokens to contribute"
        }
      },
      "createParamProposal(uint256,uint256)": {
        "params": {
          "_record": "the key of this parameter",
          "_value": "the new proposed value of this parameter"
        }
      },
      "createSidechainProposal(address,bool)": {
        "params": {
          "_registered": "the new proposed registration status",
          "_sidechainAddr": "the sidechain contract address"
        }
      },
      "delegate(address,uint256)": {
        "params": {
          "_amount": "the amount of delegated CELR tokens",
          "_candidateAddr": "candidate to delegate"
        }
      },
      "drainToken(uint256)": {
        "details": "This is for emergency situations.",
        "params": {
          "_amount": "drained token amount"
        }
      },
      "getCandidateInfo(address)": {
        "params": {
          "_candidateAddr": "the address of the candidate"
        },
        "return": "initialized whether initialized or notminSelfStake minimum self stakesstakingPool staking poolstatus candidate statusunbondTime unbond timecommissionRate commission raterateLockEndTime commission rate lock end time"
      },
      "getDelegatorInfo(address,address)": {
        "params": {
          "_candidateAddr": "the address of the candidate",
          "_delegatorAddr": "the address of the delegator"
        },
        "return": "delegatedStake delegated stake to this candidateundelegatingStake undelegating stakesintentAmounts the amounts of withdraw intentsintentProposedTimes the proposed times of withdraw intents"
      },
      "getMinQuorumStakingPool()": {
        "return": "the minimum amount"
      },
      "getMinStakingPool()": {
        "return": "the minimum staking pool of all validators"
      },
      "getParamProposalVote(uint256,address)": {
        "params": {
          "_proposalId": "the proposal id",
          "_voter": "the voter address"
        },
        "return": "the vote type of the given voter on the given parameter proposal"
      },
      "getSidechainProposalVote(uint256,address)": {
        "params": {
          "_proposalId": "the proposal id",
          "_voter": "the voter address"
        },
        "return": "the vote type of the given voter on the given sidechain proposal"
      },
      "getTotalValidatorStakingPool()": {
        "return": "the total amount"
      },
      "getUIntValue(uint256)": {
        "params": {
          "_record": "the key of this parameter"
        },
        "return": "the value of this parameter"
      },
      "getValidatorNum()": {
        "return": "the number of validators"
      },
      "initializeCandidate(uint256,uint256,uint256)": {
        "details": "every validator must become a candidate first",
        "params": {
          "_commissionRate": "the self-declaimed commission rate",
          "_minSelfStake": "minimal amount of tokens staked by the validator itself",
          "_rateLockEndTime": "the lock end time of initial commission rate"
        }
      },
      "intendWithdraw(address,uint256)": {
        "details": "note that the stakes are delegated by the msgSender to the candidate",
        "params": {
          "_amount": "withdrawn amount",
          "_candidateAddr": "the address of the candidate"
        }
      },
      "isMigrating()": {
        "return": "contract in migrating state or not"
      },
      "isOwner()": {
        "return": "true if `msg.sender` is the owner of the contract."
      },
      "isSidechainRegistered(address)": {
        "params": {
          "_sidechainAddr": "the sidechain contract address"
        },
        "return": "whether the given sidechain is registered or not"
      },
      "isValidDPoS()": {
        "return": "DPoS is valid or not"
      },
      "isValidator(address)": {
        "params": {
          "_addr": "the address to check"
        },
        "return": "the given address is a validator or not"
      },
      "nonIncreaseCommissionRate(uint256,uint256)": {
        "details": "It can increase lock end time immediately without waiting",
        "params": {
          "_newLockEndTime": "new lock end time",
          "_newRate": "new commission rate"
        }
      },
      "owner()": {
        "return": "the address of the owner."
      },
      "pause()": {
        "details": "called by the owner to pause, triggers stopped state"
      },
      "paused()": {
        "return": "true if the contract is paused, false otherwise."
      },
      "redeemMiningReward(address,uint256)": {
        "details": "The validation of this redeeming operation should be done by the caller, a registered sidechain contractHere we use cumulative mining reward to simplify the logic in sidechain code",
        "params": {
          "_cumulativeReward": "the latest cumulative mining reward",
          "_receiver": "the receiver of the redeemed mining reward"
        }
      },
      "registerSidechain(address)": {
        "details": "Owner can renounce Ownership if needed for this function",
        "params": {
          "_addr": "the sidechain contract address"
        }
      },
      "renounceOwnership()": {
        "details": "Allows the current owner to relinquish control of the contract."
      },
      "slash(bytes)": {
        "params": {
          "_penaltyRequest": "penalty request bytes coded in protobuf"
        }
      },
      "transferOwnership(address)": {
        "details": "Allows the current owner to transfer control of the contract to a newOwner.",
        "params": {
          "newOwner": "The address to transfer ownership to."
        }
      },
      "unpause()": {
        "details": "called by the owner to unpause, returns to normal state"
      },
      "updateEnableWhitelist(bool)": {
        "params": {
          "_enable": "enable whitelist flag"
        }
      },
      "updateMinSelfStake(uint256)": {
        "params": {
          "_minSelfStake": "minimal amount of tokens staked by the validator itself"
        }
      },
      "validateMultiSigMessage(bytes)": {
        "details": "Can't use view here because _checkValidatorSigs is not a view function",
        "params": {
          "_request": "a multi-signed message bytes coded in protobuf"
        },
        "return": "passed the validation or not"
      },
      "voteParam(uint256,uint8)": {
        "params": {
          "_proposalId": "the id of the parameter proposal",
          "_vote": "the type of vote"
        }
      },
      "voteSidechain(uint256,uint8)": {
        "params": {
          "_proposalId": "the id of the sidechain proposal",
          "_vote": "the type of vote"
        }
      },
      "withdrawFromUnbondedCandidate(address,uint256)": {
        "details": "note that the stakes are delegated by the msgSender to the candidate",
        "params": {
          "_amount": "withdrawn amount",
          "_candidateAddr": "the address of the candidate"
        }
      }
    },
    "title": "A DPoS contract shared by every sidechain"
  },
  "userdoc": {
    "methods": {
      "announceIncreaseCommissionRate(uint256,uint256)": {
        "notice": "Announce the intent of increasing the commission rate"
      },
      "claimValidator()": {
        "notice": "Candidate claims to become a validator"
      },
      "confirmIncreaseCommissionRate()": {
        "notice": "Confirm the intent of increasing the commission rate"
      },
      "confirmParamProposal(uint256)": {
        "notice": "Confirm a parameter proposal"
      },
      "confirmSidechainProposal(uint256)": {
        "notice": "Confirm a sidechain proposal"
      },
      "confirmUnbondedCandidate(address)": {
        "notice": "Confirm candidate status from Unbonding to Unbonded"
      },
      "confirmWithdraw(address)": {
        "notice": "Confirm an intent of withdrawing delegated stakes from a candidate"
      },
      "constructor": "DPoS constructor",
      "contributeToMiningPool(uint256)": {
        "notice": "Contribute CELR tokens to the mining pool"
      },
      "createParamProposal(uint256,uint256)": {
        "notice": "Create a parameter proposal"
      },
      "createSidechainProposal(address,bool)": {
        "notice": "Create a sidechain proposal"
      },
      "delegate(address,uint256)": {
        "notice": "Delegate CELR tokens to a candidate"
      },
      "drainToken(uint256)": {
        "notice": "Onwer drains one type of tokens when the contract is paused"
      },
      "getCandidateInfo(address)": {
        "notice": "Get candidate info"
      },
      "getDelegatorInfo(address,address)": {
        "notice": "Get the delegator info of a specific candidate"
      },
      "getMinQuorumStakingPool()": {
        "notice": "Get minimum amount of stakes for a quorum"
      },
      "getMinStakingPool()": {
        "notice": "Get the minimum staking pool of all validators"
      },
      "getParamProposalVote(uint256,address)": {
        "notice": "Get the vote type of a voter on a parameter proposal"
      },
      "getSidechainProposalVote(uint256,address)": {
        "notice": "Get the vote type of a voter on a sidechain proposal"
      },
      "getTotalValidatorStakingPool()": {
        "notice": "Get the total amount of stakes in validators' staking pools"
      },
      "getUIntValue(uint256)": {
        "notice": "Get the value of a specific uint parameter"
      },
      "getValidatorNum()": {
        "notice": "Get the number of validators"
      },
      "initializeCandidate(uint256,uint256,uint256)": {
        "notice": "Initialize a candidate profile for validator"
      },
      "intendWithdraw(address,uint256)": {
        "notice": "Intend to withdraw delegated stakes from a candidate"
      },
      "isMigrating()": {
        "notice": "Check if the contract is in migrating state"
      },
      "isSidechainRegistered(address)": {
        "notice": "Get whether a sidechain is registered or not"
      },
      "isValidDPoS()": {
        "notice": "Check this DPoS contract is valid or not now"
      },
      "isValidator(address)": {
        "notice": "Check the given address is a validator or not"
      },
      "nonIncreaseCommissionRate(uint256,uint256)": {
        "notice": "Apply non-increase-commission-rate changes to commission rate or lock end time,  including decreasing commission rate and/or changing lock end time"
      },
      "redeemMiningReward(address,uint256)": {
        "notice": "Redeem mining reward"
      },
      "registerSidechain(address)": {
        "notice": "Register a sidechain by contract owner"
      },
      "renounceOwnership()": {
        "notice": "Renouncing to ownership will leave the contract without an owner. It will not be possible to call the functions with the `onlyOwner` modifier anymore."
      },
      "slash(bytes)": {
        "notice": "Slash validators"
      },
      "updateEnableWhitelist(bool)": {
        "notice": "Update enableWhitelist"
      },
      "updateMinSelfStake(uint256)": {
        "notice": "update minimal self stake value"
      },
      "validateMultiSigMessage(bytes)": {
        "notice": "Validate multi-signed message"
      },
      "voteParam(uint256,uint8)": {
        "notice": "Vote for a parameter proposal with a specific type of vote"
      },
      "voteSidechain(uint256,uint8)": {
        "notice": "Vote for a sidechain proposal with a specific type of vote"
      },
      "withdrawFromUnbondedCandidate(address,uint256)": {
        "notice": "Withdraw delegated stakes from an unbonded candidate"
      }
    },
    "notice": "This contract holds the basic logic of DPoS in Celer's coherent sidechain system"
  }
}