{
  "contractName": "ERC20ExampleToken",
  "abi": [
    {
      "constant": true,
      "inputs": [],
      "name": "name",
      "outputs": [
        {
          "name": "",
          "type": "string"
        }
      ],
      "payable": false,
      "stateMutability": "view",
      "type": "function"
    },
    {
      "constant": false,
      "inputs": [
        {
          "name": "spender",
          "type": "address"
        },
        {
          "name": "value",
          "type": "uint256"
        }
      ],
      "name": "approve",
      "outputs": [
        {
          "name": "",
          "type": "bool"
        }
      ],
      "payable": false,
      "stateMutability": "nonpayable",
      "type": "function"
    },
    {
      "constant": true,
      "inputs": [],
      "name": "totalSupply",
      "outputs": [
        {
          "name": "",
          "type": "uint256"
        }
      ],
      "payable": false,
      "stateMutability": "view",
      "type": "function"
    },
    {
      "constant": false,
      "inputs": [
        {
          "name": "from",
          "type": "address"
        },
        {
          "name": "to",
          "type": "address"
        },
        {
          "name": "value",
          "type": "uint256"
        }
      ],
      "name": "transferFrom",
      "outputs": [
        {
          "name": "",
          "type": "bool"
        }
      ],
      "payable": false,
      "stateMutability": "nonpayable",
      "type": "function"
    },
    {
      "constant": true,
      "inputs": [],
      "name": "DECIMALS",
      "outputs": [
        {
          "name": "",
          "type": "uint8"
        }
      ],
      "payable": false,
      "stateMutability": "view",
      "type": "function"
    },
    {
      "constant": true,
      "inputs": [],
      "name": "INITIAL_SUPPLY",
      "outputs": [
        {
          "name": "",
          "type": "uint256"
        }
      ],
      "payable": false,
      "stateMutability": "view",
      "type": "function"
    },
    {
      "constant": true,
      "inputs": [],
      "name": "decimals",
      "outputs": [
        {
          "name": "",
          "type": "uint8"
        }
      ],
      "payable": false,
      "stateMutability": "view",
      "type": "function"
    },
    {
      "constant": false,
      "inputs": [
        {
          "name": "spender",
          "type": "address"
        },
        {
          "name": "addedValue",
          "type": "uint256"
        }
      ],
      "name": "increaseAllowance",
      "outputs": [
        {
          "name": "",
          "type": "bool"
        }
      ],
      "payable": false,
      "stateMutability": "nonpayable",
      "type": "function"
    },
    {
      "constant": true,
      "inputs": [
        {
          "name": "owner",
          "type": "address"
        }
      ],
      "name": "balanceOf",
      "outputs": [
        {
          "name": "",
          "type": "uint256"
        }
      ],
      "payable": false,
      "stateMutability": "view",
      "type": "function"
    },
    {
      "constant": true,
      "inputs": [],
      "name": "symbol",
      "outputs": [
        {
          "name": "",
          "type": "string"
        }
      ],
      "payable": false,
      "stateMutability": "view",
      "type": "function"
    },
    {
      "constant": false,
      "inputs": [
        {
          "name": "spender",
          "type": "address"
        },
        {
          "name": "subtractedValue",
          "type": "uint256"
        }
      ],
      "name": "decreaseAllowance",
      "outputs": [
        {
          "name": "",
          "type": "bool"
        }
      ],
      "payable": false,
      "stateMutability": "nonpayable",
      "type": "function"
    },
    {
      "constant": false,
      "inputs": [
        {
          "name": "to",
          "type": "address"
        },
        {
          "name": "value",
          "type": "uint256"
        }
      ],
      "name": "transfer",
      "outputs": [
        {
          "name": "",
          "type": "bool"
        }
      ],
      "payable": false,
      "stateMutability": "nonpayable",
      "type": "function"
    },
    {
      "constant": true,
      "inputs": [
        {
          "name": "owner",
          "type": "address"
        },
        {
          "name": "spender",
          "type": "address"
        }
      ],
      "name": "allowance",
      "outputs": [
        {
          "name": "",
          "type": "uint256"
        }
      ],
      "payable": false,
      "stateMutability": "view",
      "type": "function"
    },
    {
      "inputs": [],
      "payable": false,
      "stateMutability": "nonpayable",
      "type": "constructor"
    },
    {
      "anonymous": false,
      "inputs": [
        {
          "indexed": true,
          "name": "from",
          "type": "address"
        },
        {
          "indexed": true,
          "name": "to",
          "type": "address"
        },
        {
          "indexed": false,
          "name": "value",
          "type": "uint256"
        }
      ],
      "name": "Transfer",
      "type": "event"
    },
    {
      "anonymous": false,
      "inputs": [
        {
          "indexed": true,
          "name": "owner",
          "type": "address"
        },
        {
          "indexed": true,
          "name": "spender",
          "type": "address"
        },
        {
          "indexed": false,
          "name": "value",
          "type": "uint256"
        }
      ],
      "name": "Approval",
      "type": "event"
    }
  ],
  "bytecode": "0x608060405234801561001057600080fd5b50604080518082018252601181527f45524332304578616d706c65546f6b656e00000000000000000000000000000060208083019182528351808501909452600584527f454554323000000000000000000000000000000000000000000000000000000090840152815191929160129161008d916003919061019f565b5081516100a190600490602085019061019f565b506005805460ff191660ff92909216919091179055506100cf9050336b204fce5e3e250261100000006100d4565b61023a565b6001600160a01b0382166100e757600080fd5b6101008160025461018660201b6107821790919060201c565b6002556001600160a01b03821660009081526020818152604090912054610130918390610782610186821b17901c565b6001600160a01b0383166000818152602081815260408083209490945583518581529351929391927fddf252ad1be2c89b69c2b068fc378daa952ba7f163c4a11628f55a4df523b3ef9281900390910190a35050565b60008282018381101561019857600080fd5b9392505050565b828054600181600116156101000203166002900490600052602060002090601f016020900481019282601f106101e057805160ff191683800117855561020d565b8280016001018555821561020d579182015b8281111561020d5782518255916020019190600101906101f2565b5061021992915061021d565b5090565b61023791905b808211156102195760008155600101610223565b90565b6107d0806102496000396000f3fe608060405234801561001057600080fd5b50600436106100cf5760003560e01c8063313ce5671161008c57806395d89b411161006657806395d89b4114610261578063a457c2d714610269578063a9059cbb14610295578063dd62ed3e146102c1576100cf565b8063313ce56714610207578063395093511461020f57806370a082311461023b576100cf565b806306fdde03146100d4578063095ea7b31461015157806318160ddd1461019157806323b872dd146101ab5780632e0f2625146101e15780632ff2e9dc146101ff575b600080fd5b6100dc6102ef565b6040805160208082528351818301528351919283929083019185019080838360005b838110156101165781810151838201526020016100fe565b50505050905090810190601f1680156101435780820380516001836020036101000a031916815260200191505b509250505060405180910390f35b61017d6004803603604081101561016757600080fd5b506001600160a01b038135169060200135610385565b604080519115158252519081900360200190f35b610199610401565b60408051918252519081900360200190f35b61017d600480360360608110156101c157600080fd5b506001600160a01b03813581169160208101359091169060400135610407565b6101e96104d0565b6040805160ff9092168252519081900360200190f35b6101996104d5565b6101e96104e5565b61017d6004803603604081101561022557600080fd5b506001600160a01b0381351690602001356104ee565b6101996004803603602081101561025157600080fd5b50356001600160a01b031661059c565b6100dc6105b7565b61017d6004803603604081101561027f57600080fd5b506001600160a01b038135169060200135610618565b61017d600480360360408110156102ab57600080fd5b506001600160a01b038135169060200135610661565b610199600480360360408110156102d757600080fd5b506001600160a01b0381358116916020013516610677565b60038054604080516020601f600260001961010060018816150201909516949094049384018190048102820181019092528281526060939092909183018282801561037b5780601f106103505761010080835404028352916020019161037b565b820191906000526020600020905b81548152906001019060200180831161035e57829003601f168201915b5050505050905090565b60006001600160a01b03831661039a57600080fd5b3360008181526001602090815260408083206001600160a01b03881680855290835292819020869055805186815290519293927f8c5be1e5ebec7d5bd14f71427d1e84f3dd0314c0f7b2291e5b200ac8c7c3b925929181900390910190a350600192915050565b60025490565b6001600160a01b038316600090815260016020908152604080832033845290915281205461043b908363ffffffff6106a216565b6001600160a01b038516600090815260016020908152604080832033845290915290205561046a8484846106b7565b6001600160a01b0384166000818152600160209081526040808320338085529083529281902054815190815290519293927f8c5be1e5ebec7d5bd14f71427d1e84f3dd0314c0f7b2291e5b200ac8c7c3b925929181900390910190a35060019392505050565b601281565b6b204fce5e3e2502611000000081565b60055460ff1690565b60006001600160a01b03831661050357600080fd5b3360009081526001602090815260408083206001600160a01b0387168452909152902054610537908363ffffffff61078216565b3360008181526001602090815260408083206001600160a01b0389168085529083529281902085905580519485525191937f8c5be1e5ebec7d5bd14f71427d1e84f3dd0314c0f7b2291e5b200ac8c7c3b925929081900390910190a350600192915050565b6001600160a01b031660009081526020819052604090205490565b60048054604080516020601f600260001961010060018816150201909516949094049384018190048102820181019092528281526060939092909183018282801561037b5780601f106103505761010080835404028352916020019161037b565b60006001600160a01b03831661062d57600080fd5b3360009081526001602090815260408083206001600160a01b0387168452909152902054610537908363ffffffff6106a216565b600061066e3384846106b7565b50600192915050565b6001600160a01b03918216600090815260016020908152604080832093909416825291909152205490565b6000828211156106b157600080fd5b50900390565b6001600160a01b0382166106ca57600080fd5b6001600160a01b0383166000908152602081905260409020546106f3908263ffffffff6106a216565b6001600160a01b038085166000908152602081905260408082209390935590841681522054610728908263ffffffff61078216565b6001600160a01b038084166000818152602081815260409182902094909455805185815290519193928716927fddf252ad1be2c89b69c2b068fc378daa952ba7f163c4a11628f55a4df523b3ef92918290030190a3505050565b60008282018381101561079457600080fd5b939250505056fea265627a7a72305820fec636845bfcca6532e7888122c3fb5fc7cbbaad5d3784dceccf0b902a30cf6c64736f6c634300050a0032",
  "source": "// Based on https://github.com/OpenZeppelin/openzeppelin-solidity/blob/master/contracts/examples/SimpleToken.sol\npragma solidity ^0.5.1;\n\nimport \"openzeppelin-solidity/contracts/token/ERC20/ERC20.sol\";\nimport \"openzeppelin-solidity/contracts/token/ERC20/ERC20Detailed.sol\";\n\n/**\n * @title SimpleToken\n * @notice Very simple ERC20 Token example, where all tokens are pre-assigned to the creator.\n * Note they can later distribute these tokens as they wish using `transfer` and other\n * `ERC20` functions.\n */\ncontract ERC20ExampleToken is ERC20, ERC20Detailed {\n    uint8 public constant DECIMALS = 18;\n    uint256 public constant INITIAL_SUPPLY = 1e28;\n\n    /**\n     * @notice Constructor that gives msg.sender all of existing tokens.\n     */\n    constructor () public ERC20Detailed(\"ERC20ExampleToken\", \"EET20\", DECIMALS) {\n        _mint(msg.sender, INITIAL_SUPPLY);\n    }\n}",
  "sourcePath": "/Users/zhuxuefeng/mygit/celer/sgn-contract/contracts/helper/ERC20ExampleToken.sol",
  "compiler": {
    "name": "solc",
    "version": "0.5.10+commit.5a6ea5b1.Emscripten.clang"
  },
  "schemaVersion": "3.0.16",
  "updatedAt": "2019-11-14T00:28:17.832Z",
  "devdoc": {
    "methods": {
      "allowance(address,address)": {
        "details": "Function to check the amount of tokens that an owner allowed to a spender.",
        "params": {
          "owner": "address The address which owns the funds.",
          "spender": "address The address which will spend the funds."
        },
        "return": "A uint256 specifying the amount of tokens still available for the spender."
      },
      "approve(address,uint256)": {
        "details": "Approve the passed address to spend the specified amount of tokens on behalf of msg.sender. Beware that changing an allowance with this method brings the risk that someone may use both the old and the new allowance by unfortunate transaction ordering. One possible solution to mitigate this race condition is to first reduce the spender's allowance to 0 and set the desired value afterwards: https://github.com/ethereum/EIPs/issues/20#issuecomment-263524729",
        "params": {
          "spender": "The address which will spend the funds.",
          "value": "The amount of tokens to be spent."
        }
      },
      "balanceOf(address)": {
        "details": "Gets the balance of the specified address.",
        "params": {
          "owner": "The address to query the balance of."
        },
        "return": "An uint256 representing the amount owned by the passed address."
      },
      "decimals()": {
        "return": "the number of decimals of the token."
      },
      "decreaseAllowance(address,uint256)": {
        "details": "Decrease the amount of tokens that an owner allowed to a spender. approve should be called when allowed_[_spender] == 0. To decrement allowed value is better to use this function to avoid 2 calls (and wait until the first transaction is mined) From MonolithDAO Token.sol Emits an Approval event.",
        "params": {
          "spender": "The address which will spend the funds.",
          "subtractedValue": "The amount of tokens to decrease the allowance by."
        }
      },
      "increaseAllowance(address,uint256)": {
        "details": "Increase the amount of tokens that an owner allowed to a spender. approve should be called when allowed_[_spender] == 0. To increment allowed value is better to use this function to avoid 2 calls (and wait until the first transaction is mined) From MonolithDAO Token.sol Emits an Approval event.",
        "params": {
          "addedValue": "The amount of tokens to increase the allowance by.",
          "spender": "The address which will spend the funds."
        }
      },
      "name()": {
        "return": "the name of the token."
      },
      "symbol()": {
        "return": "the symbol of the token."
      },
      "totalSupply()": {
        "details": "Total number of tokens in existence"
      },
      "transfer(address,uint256)": {
        "details": "Transfer token for a specified address",
        "params": {
          "to": "The address to transfer to.",
          "value": "The amount to be transferred."
        }
      },
      "transferFrom(address,address,uint256)": {
        "details": "Transfer tokens from one address to another. Note that while this function emits an Approval event, this is not required as per the specification, and other compliant implementations may not emit the event.",
        "params": {
          "from": "address The address which you want to send tokens from",
          "to": "address The address which you want to transfer to",
          "value": "uint256 the amount of tokens to be transferred"
        }
      }
    },
    "title": "SimpleToken"
  },
  "userdoc": {
    "methods": {
      "constructor": "Constructor that gives msg.sender all of existing tokens."
    },
    "notice": "Very simple ERC20 Token example, where all tokens are pre-assigned to the creator. Note they can later distribute these tokens as they wish using `transfer` and other `ERC20` functions."
  }
}