{
  "contractName": "Guard",
  "abi": [
    {
      "constant": true,
      "inputs": [
        {
          "name": "",
          "type": "address"
        }
      ],
      "name": "subscriptionDeposits",
      "outputs": [
        {
          "name": "",
          "type": "uint256"
        }
      ],
      "payable": false,
      "stateMutability": "view",
      "type": "function"
    },
    {
      "constant": true,
      "inputs": [],
      "name": "blameTimeout",
      "outputs": [
        {
          "name": "",
          "type": "uint256"
        }
      ],
      "payable": false,
      "stateMutability": "view",
      "type": "function"
    },
    {
      "constant": true,
      "inputs": [],
      "name": "VALIDATOR_SET_MAX_SIZE",
      "outputs": [
        {
          "name": "",
          "type": "uint256"
        }
      ],
      "payable": false,
      "stateMutability": "view",
      "type": "function"
    },
    {
      "constant": true,
      "inputs": [],
      "name": "miningPool",
      "outputs": [
        {
          "name": "",
          "type": "uint256"
        }
      ],
      "payable": false,
      "stateMutability": "view",
      "type": "function"
    },
    {
      "constant": true,
      "inputs": [
        {
          "name": "",
          "type": "address"
        }
      ],
      "name": "redeemedMiningReward",
      "outputs": [
        {
          "name": "",
          "type": "uint256"
        }
      ],
      "payable": false,
      "stateMutability": "view",
      "type": "function"
    },
    {
      "constant": true,
      "inputs": [],
      "name": "sidechainGoLiveTime",
      "outputs": [
        {
          "name": "",
          "type": "uint256"
        }
      ],
      "payable": false,
      "stateMutability": "view",
      "type": "function"
    },
    {
      "constant": true,
      "inputs": [
        {
          "name": "",
          "type": "address"
        }
      ],
      "name": "redeemedServiceReward",
      "outputs": [
        {
          "name": "",
          "type": "uint256"
        }
      ],
      "payable": false,
      "stateMutability": "view",
      "type": "function"
    },
    {
      "constant": true,
      "inputs": [],
      "name": "celerToken",
      "outputs": [
        {
          "name": "",
          "type": "address"
        }
      ],
      "payable": false,
      "stateMutability": "view",
      "type": "function"
    },
    {
      "constant": true,
      "inputs": [],
      "name": "minStakeInPool",
      "outputs": [
        {
          "name": "",
          "type": "uint256"
        }
      ],
      "payable": false,
      "stateMutability": "view",
      "type": "function"
    },
    {
      "constant": true,
      "inputs": [],
      "name": "servicePool",
      "outputs": [
        {
          "name": "",
          "type": "uint256"
        }
      ],
      "payable": false,
      "stateMutability": "view",
      "type": "function"
    },
    {
      "constant": true,
      "inputs": [
        {
          "name": "",
          "type": "uint256"
        }
      ],
      "name": "validatorSet",
      "outputs": [
        {
          "name": "",
          "type": "address"
        }
      ],
      "payable": false,
      "stateMutability": "view",
      "type": "function"
    },
    {
      "constant": true,
      "inputs": [],
      "name": "minValidatorNum",
      "outputs": [
        {
          "name": "",
          "type": "uint256"
        }
      ],
      "payable": false,
      "stateMutability": "view",
      "type": "function"
    },
    {
      "constant": true,
      "inputs": [
        {
          "name": "",
          "type": "uint256"
        }
      ],
      "name": "usedPenaltyNonce",
      "outputs": [
        {
          "name": "",
          "type": "bool"
        }
      ],
      "payable": false,
      "stateMutability": "view",
      "type": "function"
    },
    {
      "inputs": [
        {
          "name": "_celerTokenAddress",
          "type": "address"
        },
        {
          "name": "_blameTimeout",
          "type": "uint256"
        },
        {
          "name": "_minValidatorNum",
          "type": "uint256"
        },
        {
          "name": "_minStakeInPool",
          "type": "uint256"
        },
        {
          "name": "_sidechainGoLiveTimeout",
          "type": "uint256"
        }
      ],
      "payable": false,
      "stateMutability": "nonpayable",
      "type": "constructor"
    },
    {
      "anonymous": false,
      "inputs": [
        {
          "indexed": true,
          "name": "contributor",
          "type": "address"
        },
        {
          "indexed": false,
          "name": "contribution",
          "type": "uint256"
        },
        {
          "indexed": false,
          "name": "miningPoolSize",
          "type": "uint256"
        }
      ],
      "name": "MiningPoolContribution",
      "type": "event"
    },
    {
      "anonymous": false,
      "inputs": [
        {
          "indexed": true,
          "name": "candidate",
          "type": "address"
        },
        {
          "indexed": false,
          "name": "minSelfStake",
          "type": "uint256"
        },
        {
          "indexed": false,
          "name": "sidechainAddr",
          "type": "bytes"
        }
      ],
      "name": "InitializeCandidate",
      "type": "event"
    },
    {
      "anonymous": false,
      "inputs": [
        {
          "indexed": true,
          "name": "delegator",
          "type": "address"
        },
        {
          "indexed": true,
          "name": "candidate",
          "type": "address"
        },
        {
          "indexed": false,
          "name": "newStake",
          "type": "uint256"
        },
        {
          "indexed": false,
          "name": "stakingPool",
          "type": "uint256"
        }
      ],
      "name": "Delegate",
      "type": "event"
    },
    {
      "anonymous": false,
      "inputs": [
        {
          "indexed": true,
          "name": "candidate",
          "type": "address"
        },
        {
          "indexed": true,
          "name": "oldSidechainAddr",
          "type": "bytes"
        },
        {
          "indexed": true,
          "name": "newSidechainAddr",
          "type": "bytes"
        }
      ],
      "name": "UpdateSidechainAddr",
      "type": "event"
    },
    {
      "anonymous": false,
      "inputs": [
        {
          "indexed": true,
          "name": "ethAddr",
          "type": "address"
        },
        {
          "indexed": true,
          "name": "changeType",
          "type": "uint8"
        }
      ],
      "name": "ValidatorChange",
      "type": "event"
    },
    {
      "anonymous": false,
      "inputs": [
        {
          "indexed": true,
          "name": "delegator",
          "type": "address"
        },
        {
          "indexed": true,
          "name": "candidate",
          "type": "address"
        },
        {
          "indexed": false,
          "name": "amount",
          "type": "uint256"
        }
      ],
      "name": "WithdrawFromUnbondedCandidate",
      "type": "event"
    },
    {
      "anonymous": false,
      "inputs": [
        {
          "indexed": true,
          "name": "delegator",
          "type": "address"
        },
        {
          "indexed": true,
          "name": "candidate",
          "type": "address"
        },
        {
          "indexed": false,
          "name": "withdrawAmount",
          "type": "uint256"
        },
        {
          "indexed": false,
          "name": "intendTime",
          "type": "uint256"
        }
      ],
      "name": "IntendWithdraw",
      "type": "event"
    },
    {
      "anonymous": false,
      "inputs": [
        {
          "indexed": true,
          "name": "delegator",
          "type": "address"
        },
        {
          "indexed": true,
          "name": "candidate",
          "type": "address"
        },
        {
          "indexed": false,
          "name": "amount",
          "type": "uint256"
        }
      ],
      "name": "ConfirmWithdraw",
      "type": "event"
    },
    {
      "anonymous": false,
      "inputs": [
        {
          "indexed": true,
          "name": "consumer",
          "type": "address"
        },
        {
          "indexed": false,
          "name": "amount",
          "type": "uint256"
        }
      ],
      "name": "AddSubscriptionBalance",
      "type": "event"
    },
    {
      "anonymous": false,
      "inputs": [
        {
          "indexed": true,
          "name": "validator",
          "type": "address"
        },
        {
          "indexed": true,
          "name": "delegator",
          "type": "address"
        },
        {
          "indexed": false,
          "name": "amount",
          "type": "uint256"
        }
      ],
      "name": "Punish",
      "type": "event"
    },
    {
      "anonymous": false,
      "inputs": [
        {
          "indexed": true,
          "name": "indemnitee",
          "type": "address"
        },
        {
          "indexed": false,
          "name": "amount",
          "type": "uint256"
        }
      ],
      "name": "Indemnify",
      "type": "event"
    },
    {
      "anonymous": false,
      "inputs": [
        {
          "indexed": true,
          "name": "candidate",
          "type": "address"
        }
      ],
      "name": "CandidateUnbonded",
      "type": "event"
    },
    {
      "anonymous": false,
      "inputs": [
        {
          "indexed": true,
          "name": "receiver",
          "type": "address"
        },
        {
          "indexed": false,
          "name": "miningReward",
          "type": "uint256"
        },
        {
          "indexed": false,
          "name": "serviceReward",
          "type": "uint256"
        },
        {
          "indexed": false,
          "name": "miningPool",
          "type": "uint256"
        },
        {
          "indexed": false,
          "name": "servicePool",
          "type": "uint256"
        }
      ],
      "name": "RedeemReward",
      "type": "event"
    },
    {
      "constant": false,
      "inputs": [
        {
          "name": "_amount",
          "type": "uint256"
        }
      ],
      "name": "contributeToMiningPool",
      "outputs": [],
      "payable": false,
      "stateMutability": "nonpayable",
      "type": "function"
    },
    {
      "constant": false,
      "inputs": [
        {
          "name": "_minSelfStake",
          "type": "uint256"
        },
        {
          "name": "_sidechainAddr",
          "type": "bytes"
        }
      ],
      "name": "initializeCandidate",
      "outputs": [],
      "payable": false,
      "stateMutability": "nonpayable",
      "type": "function"
    },
    {
      "constant": false,
      "inputs": [
        {
          "name": "_candidateAddr",
          "type": "address"
        },
        {
          "name": "_amount",
          "type": "uint256"
        }
      ],
      "name": "delegate",
      "outputs": [],
      "payable": false,
      "stateMutability": "nonpayable",
      "type": "function"
    },
    {
      "constant": false,
      "inputs": [
        {
          "name": "_sidechainAddr",
          "type": "bytes"
        }
      ],
      "name": "updateSidechainAddr",
      "outputs": [],
      "payable": false,
      "stateMutability": "nonpayable",
      "type": "function"
    },
    {
      "constant": false,
      "inputs": [],
      "name": "claimValidator",
      "outputs": [],
      "payable": false,
      "stateMutability": "nonpayable",
      "type": "function"
    },
    {
      "constant": false,
      "inputs": [
        {
          "name": "_candidateAddr",
          "type": "address"
        }
      ],
      "name": "confirmUnbondedCandidate",
      "outputs": [],
      "payable": false,
      "stateMutability": "nonpayable",
      "type": "function"
    },
    {
      "constant": false,
      "inputs": [
        {
          "name": "_candidateAddr",
          "type": "address"
        },
        {
          "name": "_amount",
          "type": "uint256"
        }
      ],
      "name": "withdrawFromUnbondedCandidate",
      "outputs": [],
      "payable": false,
      "stateMutability": "nonpayable",
      "type": "function"
    },
    {
      "constant": false,
      "inputs": [
        {
          "name": "_candidateAddr",
          "type": "address"
        },
        {
          "name": "_amount",
          "type": "uint256"
        }
      ],
      "name": "intendWithdraw",
      "outputs": [],
      "payable": false,
      "stateMutability": "nonpayable",
      "type": "function"
    },
    {
      "constant": false,
      "inputs": [
        {
          "name": "_candidateAddr",
          "type": "address"
        }
      ],
      "name": "confirmWithdraw",
      "outputs": [],
      "payable": false,
      "stateMutability": "nonpayable",
      "type": "function"
    },
    {
      "constant": false,
      "inputs": [
        {
          "name": "_amount",
          "type": "uint256"
        }
      ],
      "name": "subscribe",
      "outputs": [],
      "payable": false,
      "stateMutability": "nonpayable",
      "type": "function"
    },
    {
      "constant": false,
      "inputs": [
        {
          "name": "_penaltyRequest",
          "type": "bytes"
        }
      ],
      "name": "punish",
      "outputs": [],
      "payable": false,
      "stateMutability": "nonpayable",
      "type": "function"
    },
    {
      "constant": false,
      "inputs": [
        {
          "name": "_rewardRequest",
          "type": "bytes"
        }
      ],
      "name": "redeemReward",
      "outputs": [],
      "payable": false,
      "stateMutability": "nonpayable",
      "type": "function"
    },
    {
      "constant": true,
      "inputs": [
        {
          "name": "_addr",
          "type": "address"
        }
      ],
      "name": "isValidator",
      "outputs": [
        {
          "name": "",
          "type": "bool"
        }
      ],
      "payable": false,
      "stateMutability": "view",
      "type": "function"
    },
    {
      "constant": true,
      "inputs": [],
      "name": "getValidatorNum",
      "outputs": [
        {
          "name": "",
          "type": "uint256"
        }
      ],
      "payable": false,
      "stateMutability": "view",
      "type": "function"
    },
    {
      "constant": true,
      "inputs": [],
      "name": "getMinStakingPool",
      "outputs": [
        {
          "name": "",
          "type": "uint256"
        }
      ],
      "payable": false,
      "stateMutability": "view",
      "type": "function"
    },
    {
      "constant": true,
      "inputs": [
        {
          "name": "_candidateAddr",
          "type": "address"
        }
      ],
      "name": "getCandidateInfo",
      "outputs": [
        {
          "name": "initialized",
          "type": "bool"
        },
        {
          "name": "minSelfStake",
          "type": "uint256"
        },
        {
          "name": "sidechainAddr",
          "type": "bytes"
        },
        {
          "name": "stakingPool",
          "type": "uint256"
        },
        {
          "name": "status",
          "type": "uint256"
        },
        {
          "name": "unbondTime",
          "type": "uint256"
        }
      ],
      "payable": false,
      "stateMutability": "view",
      "type": "function"
    },
    {
      "constant": true,
      "inputs": [
        {
          "name": "_candidateAddr",
          "type": "address"
        },
        {
          "name": "_delegatorAddr",
          "type": "address"
        }
      ],
      "name": "getDelegatorInfo",
      "outputs": [
        {
          "name": "delegatedStake",
          "type": "uint256"
        },
        {
          "name": "undelegatingStake",
          "type": "uint256"
        },
        {
          "name": "intentAmounts",
          "type": "uint256[]"
        },
        {
          "name": "intentIntendTimes",
          "type": "uint256[]"
        }
      ],
      "payable": false,
      "stateMutability": "view",
      "type": "function"
    },
    {
      "constant": true,
      "inputs": [],
      "name": "getMinQuorumStakingPool",
      "outputs": [
        {
          "name": "",
          "type": "uint256"
        }
      ],
      "payable": false,
      "stateMutability": "view",
      "type": "function"
    }
  ],
  "bytecode": "0x60806040523480156200001157600080fd5b506040516200350e3803806200350e833981810160405260a08110156200003757600080fd5b50805160208083015160408401516060850151608090950151600080546001600160a01b0319166001600160a01b038716179055600183905560028290556004869055939491939092620000989043908390620000a7811b6200240817901c565b60035550620000c19350505050565b600082820183811015620000ba57600080fd5b9392505050565b61343d80620000d16000396000f3fe608060405234801561001057600080fd5b50600436106101e55760003560e01c80638e9472a31161010f578063dc4c7444116100a2578063ea5976a911610071578063ea5976a91461068f578063eecefef814610697578063facd743b1461076c578063fb878749146107a6576101e5565b8063dc4c7444146105f4578063e02f39bd146105fc578063e42a06c81461066a578063e64808f314610672576101e5565b8063c57f6661116100de578063c57f66611461055e578063c6c21e9d14610584578063c7ec2f35146105a8578063d2bfc1c7146105ce576101e5565b80638e9472a31461051a5780639ff296ca14610522578063a3e814b91461052a578063bb9053d014610532576101e5565b80633620d149116101875780637339759711610156578063733975971461045257806373a6e4501461045a578063785f8ffd146104c857806387e53fef146104f4576101e5565b80633620d149146103b75780634b7dba6b1461042557806363a20c06146104425780636e7cf85d1461044a576101e5565b80631e77733a116101c35780631e77733a1461024f5780632218d2551461027557806326c366171461027d57806328bde1e1146102f2576101e5565b8063026e402b146101ea5780630f574ba7146102185780631cfe4f0b14610235575b600080fd5b6102166004803603604081101561020057600080fd5b506001600160a01b0381351690602001356107c3565b005b6102166004803603602081101561022e57600080fd5b5035610903565b61023d610a5b565b60408051918252519081900360200190f35b61023d6004803603602081101561026557600080fd5b50356001600160a01b0316610a9e565b61023d610ab0565b6102166004803603604081101561029357600080fd5b81359190810190604081016020820135600160201b8111156102b457600080fd5b8201836020820111156102c657600080fd5b803590602001918460018302840111600160201b831117156102e757600080fd5b509092509050610ab6565b6103186004803603602081101561030857600080fd5b50356001600160a01b0316610bb5565b604051808715151515815260200186815260200180602001858152602001848152602001838152602001828103825286818151815260200191508051906020019080838360005b8381101561037757818101518382015260200161035f565b50505050905090810190601f1680156103a45780820380516001836020036101000a031916815260200191505b5097505050505050505060405180910390f35b610216600480360360208110156103cd57600080fd5b810190602081018135600160201b8111156103e757600080fd5b8201836020820111156103f957600080fd5b803590602001918460018302840111600160201b8311171561041a57600080fd5b509092509050610ca6565b6102166004803603602081101561043b57600080fd5b50356111f6565b61023d611278565b61021661127d565b61023d6115ac565b6102166004803603602081101561047057600080fd5b810190602081018135600160201b81111561048a57600080fd5b82018360208201111561049c57600080fd5b803590602001918460018302840111600160201b831117156104bd57600080fd5b5090925090506115b2565b610216600480360360408110156104de57600080fd5b506001600160a01b0381351690602001356118d5565b61023d6004803603602081101561050a57600080fd5b50356001600160a01b03166119f5565b61023d611a07565b61023d611af8565b61023d611afe565b6102166004803603604081101561054857600080fd5b506001600160a01b038135169060200135611b3d565b61023d6004803603602081101561057457600080fd5b50356001600160a01b0316611c38565b61058c611c4a565b604080516001600160a01b039092168252519081900360200190f35b610216600480360360208110156105be57600080fd5b50356001600160a01b0316611c59565b610216600480360360208110156105e457600080fd5b50356001600160a01b0316611ceb565b61023d611ee6565b6102166004803603602081101561061257600080fd5b810190602081018135600160201b81111561062c57600080fd5b82018360208201111561063e57600080fd5b803590602001918460018302840111600160201b8311171561065f57600080fd5b509092509050611eec565b61023d612120565b61058c6004803603602081101561068857600080fd5b5035612126565b61023d612143565b6106c5600480360360408110156106ad57600080fd5b506001600160a01b0381358116916020013516612149565b604051808581526020018481526020018060200180602001838103835285818151815260200191508051906020019060200280838360005b838110156107155781810151838201526020016106fd565b50505050905001838103825284818151815260200191508051906020019060200280838360005b8381101561075457818101518382015260200161073c565b50505050905001965050505050505060405180910390f35b6107926004803603602081101561078257600080fd5b50356001600160a01b0316612284565b604080519115158252519081900360200190f35b610792600480360360208110156107bc57600080fd5b50356122bb565b816001600160a01b03811661080b576040805162461bcd60e51b815260206004820152600960248201526830206164647265737360b81b604482015290519081900360640190fd5b6001600160a01b0383166000908152601660205260409020805460ff16610879576040805162461bcd60e51b815260206004820152601c60248201527f43616e646964617465206973206e6f7420696e697469616c697a656400000000604482015290519081900360640190fd5b3361088782828660006122d0565b6000546108a5906001600160a01b031682308763ffffffff61237216565b846001600160a01b0316816001600160a01b03167f500599802164a08023e87ffc3eed0ba3ae60697b3083ba81d046683679d81c6b868560030154604051808381526020018281526020019250505060405180910390a35050505050565b600354431015610952576040805162461bcd60e51b815260206004820152601560248201527453696465636861696e206973206e6f74206c69766560581b604482015290519081900360640190fd5b60025461095d610a5b565b10156109a5576040805162461bcd60e51b8152602060048201526012602482015271546f6f206665772076616c696461746f727360701b604482015290519081900360640190fd5b60065433906109ba908363ffffffff61240816565b6006556001600160a01b0381166000908152600560205260409020546109e6908363ffffffff61240816565b6001600160a01b038083166000908152600560205260408120929092559054610a18911682308563ffffffff61237216565b6040805183815290516001600160a01b038316917fac095ced75d400384d8404a37883183a56b937b8ff8195fa0c52c3ccc8bb8a49919081900360200190a25050565b600080805b600b811015610a97576000600a82600b8110610a7857fe5b01546001600160a01b031614610a8f576001909101905b600101610a60565b5090505b90565b60056020526000908152604090205481565b60015481565b336000908152601660205260409020805460ff1615610b1c576040805162461bcd60e51b815260206004820152601860248201527f43616e64696461746520697320696e697469616c697a65640000000000000000604482015290519081900360640190fd5b805460ff1916600190811782558101849055610b3c6002820184846132ad565b50336001600160a01b03167f377f6597c5132797119197fab0e953f73fd5bb109a897a11c871834af2d092a985858560405180848152602001806020018281038252848482818152602001925080828437600083820152604051601f909101601f1916909201829003965090945050505050a250505050565b6001600160a01b038116600090815260166020908152604080832080546001808301546002808501805487516101009582161595909502600019011691909104601f810188900488028401880190965285835260ff90931696909560609591948594859491939192909190830182828015610c715780601f10610c4657610100808354040283529160200191610c71565b820191906000526020600020905b815481529060010190602001808311610c5457829003601f168201915b505050506003830154600584015492975095505060ff166002811115610c9357fe5b9250806006015491505091939550919395565b600354431015610cf5576040805162461bcd60e51b815260206004820152601560248201527453696465636861696e206973206e6f74206c69766560581b604482015290519081900360640190fd5b600254610d00610a5b565b1015610d48576040805162461bcd60e51b8152602060048201526012602482015271546f6f206665772076616c696461746f727360701b604482015290519081900360640190fd5b610d5061332b565b610d8f83838080601f01602080910402602001604051908101604052809392919081815260200183838082843760009201919091525061242392505050565b9050610d99613345565b8151610da49061257a565b9050600082600001516040518082805190602001908083835b60208310610ddc5780518252601f199092019160209182019101610dbd565b6001836020036101000a03801982511681845116808217855250505050505090500191505060405180910390209050610e198184602001516127f6565b610e6a576040805162461bcd60e51b815260206004820152601c60248201527f4661696c20746f20636865636b2076616c696461746f72207369677300000000604482015290519081900360640190fd5b815167ffffffffffffffff1660009081526015602052604090205460ff1615610ecf576040805162461bcd60e51b8152602060048201526012602482015271557365642070656e616c7479206e6f6e636560701b604482015290519081900360640190fd5b816020015167ffffffffffffffff164310610f23576040805162461bcd60e51b815260206004820152600f60248201526e14195b985b1d1e48195e1c1a5c9959608a1b604482015290519081900360640190fd5b815167ffffffffffffffff166000908152601560209081526040808320805460ff19166001179055808501516001600160a01b031683526016909152812090805b8460600151518110156110a157610f79613372565b85606001518281518110610f8957fe5b60200260200101519050610faa81602001518461240890919063ffffffff16565b925080600001516001600160a01b031686604001516001600160a01b03167f111897aba775ed4cb659e35805c453dcd8f0024cc414f560f9677bdfae30952a83602001516040518082815260200191505060405180910390a380516001600160a01b0316600090815260048501602090815260409091209082015181541061104657611041858360000151846020015160016122d0565b611097565b80546020830151600091611060919063ffffffff6128bf16565b6001830154909150611078908263ffffffff6128bf16565b8260010181905550611095868460000151846000015460016122d0565b505b5050600101610f64565b506110af84604001516128d4565b6000805b8560800151518110156111a0576110c8613372565b866080015182815181106110d857fe5b602002602001015190506110f981602001518461240890919063ffffffff16565b925080600001516001600160a01b03167f5739ab1e78cc400665fe049852d266e9ac5995451b5e666b25f3c30b19087d8e82602001516040518082815260200191505060405180910390a280516001600160a01b031661117257602081015160085461116a9163ffffffff61240816565b600855611197565b80516020820151600054611197926001600160a01b039091169163ffffffff61295d16565b506001016110b3565b508082146111ec576040805162461bcd60e51b8152602060048201526014602482015273082dadeeadce840c8decae6dc4ee840dac2e8c6d60631b604482015290519081900360640190fd5b5050505050505050565b600854339061120b908363ffffffff61240816565b60085560005461122c906001600160a01b031682308563ffffffff61237216565b60085460408051848152602081019290925280516001600160a01b038416927f97e19c4040b6c46d4275e0c4fea68f8f92c81138372ffdb089932c211938f76592908290030190a25050565b600b81565b336000818152601660205260409020805460ff166112e2576040805162461bcd60e51b815260206004820152601c60248201527f43616e646964617465206973206e6f7420696e697469616c697a656400000000604482015290519081900360640190fd5b6000600582015460ff1660028111156112f757fe5b1461130157600080fd5b6004548160030154101561135c576040805162461bcd60e51b815260206004820152601960248201527f496e73756666696369656e74207374616b696e6720706f6f6c00000000000000604482015290519081900360640190fd5b60018101546001600160a01b038316600090815260048301602052604090205410156113c7576040805162461bcd60e51b81526020600482015260156024820152744e6f7420656e6f7567682073656c66207374616b6560581b604482015290519081900360640190fd5b600a546001600160a01b0390811660008181526016602052604081206003015490929091908516141561143c576040805162461bcd60e51b8152602060048201526018602482015277105b1c9958591e481a5b881d985b1a59185d1bdc881cd95d60421b604482015290519081900360640190fd5b60015b600b81101561152d57846001600160a01b0316600a82600b811061145f57fe5b01546001600160a01b031614156114b8576040805162461bcd60e51b8152602060048201526018602482015277105b1c9958591e481a5b881d985b1a59185d1bdc881cd95d60421b604482015290519081900360640190fd5b8160166000600a84600b81106114ca57fe5b01546001600160a01b0316815260208101919091526040016000206003015410156115255780925060166000600a83600b811061150357fe5b01546001600160a01b0316815260208101919091526040016000206003015491505b60010161143f565b50808360030154116115705760405162461bcd60e51b81526004018080602001828103825260218152602001806133e86021913960400191505060405180910390fd5b6000600a83600b811061157f57fe5b01546001600160a01b03169050801561159b5761159b836129f7565b6115a58584612ae1565b5050505050565b60085481565b600354431015611601576040805162461bcd60e51b815260206004820152601560248201527453696465636861696e206973206e6f74206c69766560581b604482015290519081900360640190fd5b60025461160c610a5b565b1015611654576040805162461bcd60e51b8152602060048201526012602482015271546f6f206665772076616c696461746f727360701b604482015290519081900360640190fd5b61165c61332b565b61169b83838080601f016020809104026020016040519081016040528093929190818152602001838380828437600092019190915250612ba292505050565b90506116a5613389565b81516116b090612cf0565b9050600082600001516040518082805190602001908083835b602083106116e85780518252601f1990920191602091820191016116c9565b6001836020036101000a038019825116818451168082178552505050505050905001915050604051809103902090506117258184602001516127f6565b611776576040805162461bcd60e51b815260206004820152601c60248201527f4661696c20746f20636865636b2076616c696461746f72207369677300000000604482015290519081900360640190fd5b81516001600160a01b03166000908152600960209081526040822054908401516117a59163ffffffff6128bf16565b60208085015185516001600160a01b03908116600090815260098452604080822093909355875190911681526007909252808220549086015192935090916117f29163ffffffff6128bf16565b60408086015186516001600160a01b0316600090815260076020529190912055600854909150611828908363ffffffff6128bf16565b60085560065461183e908263ffffffff6128bf16565b600655835161187090611857848463ffffffff61240816565b6000546001600160a01b0316919063ffffffff61295d16565b83516008546006546040805186815260208101869052808201939093526060830191909152516001600160a01b03909216917f960a5cc298ffb55e7c3f1b994053dcf9298367b34bf7699d94368be331558b2e9181900360800190a250505050505050565b816001600160a01b03811661191d576040805162461bcd60e51b815260206004820152600960248201526830206164647265737360b81b604482015290519081900360640190fd5b6001600160a01b03831660009081526016602090815260408083203380855260048201909352922090919061195582848760016122d0565b600181015461196a908663ffffffff61240816565b6001820155611978866128d4565b6004810180546000908152600283016020908152604091829020888155436001808301918255855401909455925482518981529182015281516001600160a01b03808b1693908816927f7171946bb2a9ef55fcb2eb8cef679db45e2e3a8cef9a44567d34d202b65ff0b1929081900390910190a350505050505050565b60096020526000908152604090205481565b600080805b600b811015611a79576000600a82600b8110611a2457fe5b01546001600160a01b03161415611a3a57611a71565b60166000600a83600b8110611a4b57fe5b01546001600160a01b031681526020810191909152604001600020600301549150611a79565b600101611a0c565b6001015b600b811015610a97578160166000600a84600b8110611a9857fe5b01546001600160a01b031681526020810191909152604001600020600301541015611af05760166000600a83600b8110611ace57fe5b01546001600160a01b0316815260208101919091526040016000206003015491505b600101611a7d565b60035481565b6000611b386001611b2c6003611b206002601754612db090919063ffffffff16565b9063ffffffff612dd716565b9063ffffffff61240816565b905090565b816001600160a01b038116611b85576040805162461bcd60e51b815260206004820152600960248201526830206164647265737360b81b604482015290519081900360640190fd5b6001600160a01b038316600090815260166020526040812090600582015460ff166002811115611bb157fe5b14611bbb57600080fd5b33611bc982828660016122d0565b600054611be6906001600160a01b0316828663ffffffff61295d16565b846001600160a01b0316816001600160a01b03167f585e40624b400c05be4193af453d2fd2e69facd17163bda6afd44546f3dbbaa8866040518082815260200191505060405180910390a35050505050565b60076020526000908152604090205481565b6000546001600160a01b031681565b6001600160a01b03811660009081526016602052604090206002600582015460ff166002811115611c8657fe5b14611c9057600080fd5b8060060154431015611ca157600080fd5b60058101805460ff191690556000600682018190556040516001600160a01b038416917fbe85a9a7aa606febeaa35606e49cd7324c63cf970f4f5fd0c7e983f42b20b21991a25050565b806001600160a01b038116611d33576040805162461bcd60e51b815260206004820152600960248201526830206164647265737360b81b604482015290519081900360640190fd5b6001600160a01b0382166000818152601660208181526040808420338086526004820184529185209585529290915260059091015490929143918190819060ff166002811115611d7f57fe5b149050836003015491505b8360040154821015611dfd57600082815260028501602052604090208180611dca575083611dc7600154836001015461240890919063ffffffff16565b11155b15611dec57506000828152600285016020526040812081815560010155611df2565b50611dfd565b600190910190611d8a565b6003840182905560005b8460040154831015611e4557600083815260028601602052604090208054611e3690839063ffffffff61240816565b6001909401939150611e079050565b6001850154600090821015611e90576001860154611e69908363ffffffff6128bf16565b60018701839055600054909150611e90906001600160a01b0316888363ffffffff61295d16565b886001600160a01b0316876001600160a01b03167f08d0283ea9a2e520a2f09611cf37ca6eb70f62e9a807e53756047dd2dc027220836040518082815260200191505060405180910390a3505050505050505050565b60045481565b3360008181526016602052604081206005015460ff166002811115611f0d57fe5b14611f5f576040805162461bcd60e51b815260206004820152601a60248201527f6d73672e73656e646572206973206e6f7420756e626f6e646564000000000000604482015290519081900360640190fd5b6001600160a01b0381166000908152601660205260409020805460ff16611fcd576040805162461bcd60e51b815260206004820152601c60248201527f43616e646964617465206973206e6f7420696e697469616c697a656400000000604482015290519081900360640190fd5b600281810180546040805160206001841615610100026000190190931694909404601f810183900483028501830190915280845260609392918301828280156120575780601f1061202c57610100808354040283529160200191612057565b820191906000526020600020905b81548152906001019060200180831161203a57829003601f168201915b5093945061206f9350505060028401905086866132ad565b5084846040518083838082843760405192018290038220865190955086945091925082916020850191508083835b602083106120bc5780518252601f19909201916020918201910161209d565b5181516020939093036101000a6000190180199091169216919091179052604051920182900382209350506001600160a01b03871691507f16de3299ab034ce7e21b22d55f4f9a1474bd3c4d20dbd1cc9bcd39c1ad3d5a2c90600090a45050505050565b60065481565b600a81600b811061213357fe5b01546001600160a01b0316905081565b60025481565b6001600160a01b0380831660009081526016602090815260408083209385168352600493840190915281206003810154928101549192839260609283929091859161219a919063ffffffff6128bf16565b9050806040519080825280602002602001820160405280156121c6578160200160208202803883390190505b509350806040519080825280602002602001820160405280156121f3578160200160208202803883390190505b5060038301549093505b826004015481101561226c576000818152600284016020526040902054855186908390811061222857fe5b6020026020010181815250508260020160008281526020019081526020016000206001015484828151811061225957fe5b60209081029190910101526001016121fd565b50508054600190910154909790965091945092509050565b600060016001600160a01b03831660009081526016602052604090206005015460ff1660028111156122b257fe5b1490505b919050565b60156020526000908152604090205460ff1681565b6001600160a01b03831660009081526004850160205260408120908260018111156122f757fe5b1415612330576003850154612312908463ffffffff61240816565b60038601558054612329908463ffffffff61240816565b81556115a5565b600182600181111561233e57fe5b1415612370576003850154612359908463ffffffff6128bf16565b60038601558054612329908463ffffffff6128bf16565bfe5b604080516323b872dd60e01b81526001600160a01b0385811660048301528481166024830152604482018490529151918616916323b872dd916064808201926020929091908290030181600087803b1580156123cd57600080fd5b505af11580156123e1573d6000803e3d6000fd5b505050506040513d60208110156123f757600080fd5b505161240257600080fd5b50505050565b60008282018381101561241a57600080fd5b90505b92915050565b61242b61332b565b6124336133b3565b61243c83612df9565b9050606061245182600263ffffffff612e1016565b90508060028151811061246057fe5b602002602001015160405190808252806020026020018201604052801561249b57816020015b60608152602001906001900390816124865790505b5083602001819052506000816002815181106124b357fe5b6020026020010181815250506000805b6124cc84612ea0565b15612571576124da84612eac565b909250905081600114156124f8576124f184612ed9565b855261256c565b816002141561255c5761250a84612ed9565b85602001518460028151811061251c57fe5b60200260200101518151811061252e57fe5b60200260200101819052508260028151811061254657fe5b602090810291909101018051600101905261256c565b61256c848263ffffffff612f6616565b6124c3565b50505050919050565b612582613345565b61258a6133b3565b61259383612df9565b905060606125a882600563ffffffff612e1016565b9050806004815181106125b757fe5b60200260200101516040519080825280602002602001820160405280156125f857816020015b6125e5613372565b8152602001906001900390816125dd5790505b50836060018190525060008160048151811061261057fe5b6020026020010181815250508060058151811061262957fe5b602002602001015160405190808252806020026020018201604052801561266a57816020015b612657613372565b81526020019060019003908161264f5790505b50836080018190525060008160058151811061268257fe5b6020026020010181815250506000805b61269b84612ea0565b15612571576126a984612eac565b909250905081600114156126d1576126c084612fc7565b67ffffffffffffffff1685526127f1565b81600214156126f7576126e384612fc7565b67ffffffffffffffff1660208601526127f1565b81600314156127245761271161270c85612ed9565b613022565b6001600160a01b031660408601526127f1565b81600414156127905761273e61273985612ed9565b61302d565b85606001518460048151811061275057fe5b60200260200101518151811061276257fe5b60200260200101819052508260048151811061277a57fe5b60209081029190910101805160010190526127f1565b81600514156127e1576127a561273985612ed9565b8560800151846005815181106127b757fe5b6020026020010151815181106127c957fe5b60200260200101819052508260058151811061277a57fe5b6127f1848263ffffffff612f6616565b612692565b600080612801611afe565b9050600061280e856130c1565b9050600080805b86518110156128b05761284487828151811061282d57fe5b60200260200101518561311290919063ffffffff16565b925060016001600160a01b03841660009081526016602052604090206005015460ff16600281111561287257fe5b14156128a8576001600160a01b0383166000908152601660205260409020600301546128a590839063ffffffff61240816565b91505b600101612815565b50929092101595945050505050565b6000828211156128ce57600080fd5b50900390565b6001600160a01b03811660009081526016602052604090206001600582015460ff16600281111561290157fe5b1461290c575061295a565b60018101546001600160a01b038316600090815260048084016020526040909120549054600384015492909110911081806129445750805b1561240257612402612955856131e3565b6129f7565b50565b826001600160a01b031663a9059cbb83836040518363ffffffff1660e01b815260040180836001600160a01b03166001600160a01b0316815260200182815260200192505050602060405180830381600087803b1580156129bd57600080fd5b505af11580156129d1573d6000803e3d6000fd5b505050506040513d60208110156129e757600080fd5b50516129f257600080fd5b505050565b6000600a82600b8110612a0657fe5b01546001600160a01b0316905080612a1e575061295a565b600a82600b8110612a2b57fe5b0180546001600160a01b03191690556001600160a01b0381166000908152601660205260409020600501805460ff19166002179055600154612a6e904390612408565b6001600160a01b0382166000908152601660205260409020600681019190915560030154601754612aa49163ffffffff6128bf16565b60175560016040516001600160a01b038316907f63f783ba869265648de5e70add96be9f4914e3bde064fdc19fd7e6a8ebf2f46c90600090a35050565b6000600a82600b8110612af057fe5b01546001600160a01b031614612b0557600080fd5b81600a82600b8110612b1357fe5b0180546001600160a01b0319166001600160a01b039283161790558216600090815260166020526040812060058101805460ff19166001179055600681019190915560030154601754612b6591612408565b60175560006040516001600160a01b038416907f63f783ba869265648de5e70add96be9f4914e3bde064fdc19fd7e6a8ebf2f46c90600090a35050565b612baa61332b565b612bb26133b3565b612bbb83612df9565b90506060612bd082600263ffffffff612e1016565b905080600281518110612bdf57fe5b6020026020010151604051908082528060200260200182016040528015612c1a57816020015b6060815260200190600190039081612c055790505b508360200181905250600081600281518110612c3257fe5b6020026020010181815250506000805b612c4b84612ea0565b1561257157612c5984612eac565b90925090508160011415612c7757612c7084612ed9565b8552612ceb565b8160021415612cdb57612c8984612ed9565b856020015184600281518110612c9b57fe5b602002602001015181518110612cad57fe5b602002602001018190525082600281518110612cc557fe5b6020908102919091010180516001019052612ceb565b612ceb848263ffffffff612f6616565b612c42565b612cf8613389565b612d006133b3565b612d0983612df9565b90506000805b612d1883612ea0565b15612da857612d2683612eac565b90925090508160011415612d5057612d4061270c84612ed9565b6001600160a01b03168452612da3565b8160021415612d7457612d6a612d6584612ed9565b61326b565b6020850152612da3565b8160031415612d9357612d89612d6584612ed9565b6040850152612da3565b612da3838263ffffffff612f6616565b612d0f565b505050919050565b600082612dbf5750600061241d565b82820282848281612dcc57fe5b041461241a57600080fd5b6000808211612de557600080fd5b6000828481612df057fe5b04949350505050565b612e016133b3565b60208101919091526000815290565b815160408051600184018082526020808202830101909252606092918015612e42578160200160208202803883390190505b5091506000805b612e5286612ea0565b15612e9757612e6086612eac565b80925081935050506001848381518110612e7657fe5b602002602001018181510191508181525050612e928682612f66565b612e49565b50509092525090565b60208101515190511090565b6000806000612eba84612fc7565b9050600881049250806007166005811115612ed157fe5b915050915091565b60606000612ee683612fc7565b8351602085015151919250820190811115612f0057600080fd5b816040519080825280601f01601f191660200182016040528015612f2b576020820181803883390190505b50602080860151865192955091818601919083010160005b85811015612f5b578181015183820152602001612f43565b505050935250919050565b6000816005811115612f7457fe5b1415612f8957612f8382612fc7565b50612fc3565b6002816005811115612f9757fe5b14156101e5576000612fa883612fc7565b835181018085526020850151519192501115612f8357600080fd5b5050565b602080820151825181019091015160009182805b600a81101561301c5783811a91508060070282607f16901b851794508160801660001415613014578551016001018552506122b6915050565b600101612fdb565b50600080fd5b600061241d8261328e565b613035613372565b61303d6133b3565b61304683612df9565b90506000805b61305583612ea0565b15612da85761306383612eac565b9092509050816001141561308d5761307d61270c84612ed9565b6001600160a01b031684526130bc565b81600214156130ac576130a2612d6584612ed9565b60208501526130bc565b6130bc838263ffffffff612f6616565b61304c565b604080517f19457468657265756d205369676e6564204d6573736167653a0a333200000000602080830191909152603c8083019490945282518083039094018452605c909101909152815191012090565b600080600080845160411461312d576000935050505061241d565b50505060208201516040830151606084015160001a601b81101561314f57601b015b8060ff16601b1415801561316757508060ff16601c14155b15613178576000935050505061241d565b6040805160008152602080820180845289905260ff8416828401526060820186905260808201859052915160019260a0808401939192601f1981019281900390910190855afa1580156131cf573d6000803e3d6000fd5b50505060206040510351935050505061241d565b6000805b600b81101561322757826001600160a01b0316600a82600b811061320757fe5b01546001600160a01b0316141561321f5790506122b6565b6001016131e7565b506040805162461bcd60e51b815260206004820152601360248201527227379039bab1b41030903b30b634b230ba37b960691b604482015290519081900360640190fd5b600060208251111561327c57600080fd5b50602081810151915160089103021c90565b6000815160141461329e57600080fd5b5060200151600160601b900490565b828054600181600116156101000203166002900490600052602060002090601f016020900481019282601f106132ee5782800160ff1982351617855561331b565b8280016001018555821561331b579182015b8281111561331b578235825591602001919060010190613300565b506133279291506133cd565b5090565b604051806040016040528060608152602001606081525090565b6040805160a081018252600080825260208201819052918101919091526060808201819052608082015290565b604080518082019091526000808252602082015290565b604051806060016040528060006001600160a01b0316815260200160008152602001600081525090565b604051806040016040528060008152602001606081525090565b610a9b91905b8082111561332757600081556001016133d356fe5374616b65206973206c657373207468616e20616c6c2076616c696461746f7273a265627a7a72305820239e3ceae1912e44b6b1cceb79866ecb7715426d7a6d412d8d8ff96d8782852564736f6c634300050a0032",
  "source": "pragma solidity ^0.5.0;\n\nimport \"openzeppelin-solidity/contracts/math/SafeMath.sol\";\nimport \"openzeppelin-solidity/contracts/token/ERC20/IERC20.sol\";\nimport \"openzeppelin-solidity/contracts/token/ERC20/SafeERC20.sol\";\nimport \"openzeppelin-solidity/contracts/cryptography/ECDSA.sol\";\nimport \"./lib/interface/IGuard.sol\";\nimport \"./lib/data/PbSgn.sol\";\n\ncontract Guard is IGuard {\n    using SafeMath for uint;\n    using SafeERC20 for IERC20;\n    using ECDSA for bytes32;\n\n    enum MathOperation { Add, Sub }\n\n    // Unbonded: not a validator and not responsible for previous validator behaviors if any.\n    //   Delegators now are free to withdraw stakes (directly).\n    // Bonded: active validator. Delegators has to wait for blameTimeout to withdraw stakes.\n    // Unbonding: transitional status from Bonded to Unbonded. Candidate has lost the right of\n    //   validator but is still responsible for any misbehavors done during being validator.\n    //   Delegators should wait until candidate's unbondTime to freely withdraw stakes.\n    enum CandidateStatus { Unbonded, Bonded, Unbonding }\n\n    struct WithdrawIntent {\n        uint amount;\n        uint intendTime;\n    }\n\n    struct Delegator {\n        uint delegatedStake;\n        uint undelegatingStake;\n        mapping(uint => WithdrawIntent) withdrawIntents;\n        // valid intent range is [intentStartIndex, intentEndIndex)\n        uint intentStartIndex;\n        uint intentEndIndex;\n    }\n\n    struct ValidatorCandidate {\n        bool initialized;\n        uint minSelfStake;\n        bytes sidechainAddr;\n\n        // delegatedStake sum of all delegators to this candidate\n        uint stakingPool;\n        mapping (address => Delegator) delegatorProfiles;\n        CandidateStatus status;\n        uint unbondTime;\n    }\n\n    uint public constant VALIDATOR_SET_MAX_SIZE = 11;\n\n    IERC20 public celerToken;\n    // timeout to blame (claim responsibility of) undelegating delegators or unbonding validators\n    uint public blameTimeout;\n    uint public minValidatorNum;\n    // used for bootstrap: there should be enough time for delegating and\n    // claim the initial validators\n    uint public sidechainGoLiveTime;\n    // universal requirement for minimum staking pool of each validator\n    uint public minStakeInPool;\n    mapping (address => uint) public subscriptionDeposits;\n    uint public servicePool;\n    mapping (address => uint) public redeemedServiceReward;\n    uint public miningPool;\n    mapping (address => uint) public redeemedMiningReward;\n    address[VALIDATOR_SET_MAX_SIZE] public validatorSet;\n    mapping (uint => bool) public usedPenaltyNonce;\n    // struct ValidatorCandidate includes a mapping and therefore candidateProfiles can't be public\n    mapping (address => ValidatorCandidate) private candidateProfiles;\n    uint totalValidatorStakingPool;\n\n    modifier onlyNonZeroAddr(address _addr) {\n        require(_addr != address(0), \"0 address\");\n        _;\n    }\n\n    // check this before sidechain's operation\n    modifier onlyValidSidechain() {\n        require(block.number >= sidechainGoLiveTime, \"Sidechain is not live\");\n        require(getValidatorNum() >= minValidatorNum, \"Too few validators\");\n        _;\n    }\n\n    constructor(\n        address _celerTokenAddress,\n        uint _blameTimeout,\n        uint _minValidatorNum,\n        uint _minStakeInPool,\n        uint _sidechainGoLiveTimeout\n    )\n        public\n    {\n        celerToken = IERC20(_celerTokenAddress);\n        blameTimeout = _blameTimeout;\n        minValidatorNum = _minValidatorNum;\n        minStakeInPool = _minStakeInPool;\n        sidechainGoLiveTime = block.number.add(_sidechainGoLiveTimeout);\n    }\n\n    function contributeToMiningPool(uint _amount) public {\n        address msgSender = msg.sender;\n        miningPool = miningPool.add(_amount);\n        celerToken.safeTransferFrom(msgSender, address(this), _amount);\n\n        emit MiningPoolContribution(msgSender, _amount, miningPool);\n    }\n\n    function initializeCandidate(uint _minSelfStake, bytes calldata _sidechainAddr) external {\n        ValidatorCandidate storage candidate = candidateProfiles[msg.sender];\n        require(!candidate.initialized, \"Candidate is initialized\");\n\n        candidate.initialized = true;\n        candidate.minSelfStake = _minSelfStake;\n        candidate.sidechainAddr = _sidechainAddr;\n\n        emit InitializeCandidate(msg.sender, _minSelfStake, _sidechainAddr);\n    }\n\n    function delegate(address _candidateAddr, uint _amount) external onlyNonZeroAddr(_candidateAddr) {\n        ValidatorCandidate storage candidate = candidateProfiles[_candidateAddr];\n        require(candidate.initialized, \"Candidate is not initialized\");\n\n        address msgSender = msg.sender;\n        _updateDelegatedStake(candidate, msgSender, _amount, MathOperation.Add);\n\n        celerToken.safeTransferFrom(\n            msgSender,\n            address(this),\n            _amount\n        );\n\n        emit Delegate(msgSender, _candidateAddr, _amount, candidate.stakingPool);\n    }\n\n    function updateSidechainAddr(bytes calldata _sidechainAddr) external {\n        address msgSender = msg.sender;\n        require(\n            candidateProfiles[msgSender].status == CandidateStatus.Unbonded,\n            \"msg.sender is not unbonded\"\n        );\n        ValidatorCandidate storage candidate = candidateProfiles[msgSender];\n        require(candidate.initialized, \"Candidate is not initialized\");\n\n        bytes memory oldSidechainAddr = candidate.sidechainAddr;\n        candidate.sidechainAddr = _sidechainAddr;\n\n        emit UpdateSidechainAddr(msgSender, oldSidechainAddr, _sidechainAddr);\n    }\n\n    function claimValidator() external {\n        address msgSender = msg.sender;\n        ValidatorCandidate storage candidate = candidateProfiles[msgSender];\n        require(candidate.initialized, \"Candidate is not initialized\");\n        // TODO: decide whether Unbonding status is valid to claimValidator or not\n        require(candidate.status == CandidateStatus.Unbonded);\n        require(candidate.stakingPool >= minStakeInPool, \"Insufficient staking pool\");\n        require(\n            candidate.delegatorProfiles[msgSender].delegatedStake >= candidate.minSelfStake,\n            \"Not enough self stake\"\n        );\n\n        uint minStakingPoolIndex = 0;\n        uint minStakingPool = candidateProfiles[validatorSet[0]].stakingPool;\n        require(validatorSet[0] != msgSender, \"Already in validator set\");\n        for (uint i = 1; i < VALIDATOR_SET_MAX_SIZE; i++) {\n            require(validatorSet[i] != msgSender, \"Already in validator set\");\n            if (candidateProfiles[validatorSet[i]].stakingPool < minStakingPool) {\n                minStakingPoolIndex = i;\n                minStakingPool = candidateProfiles[validatorSet[i]].stakingPool;\n            }\n        }\n        require(candidate.stakingPool > minStakingPool, \"Stake is less than all validators\");\n\n        address removedValidator = validatorSet[minStakingPoolIndex];\n        if (removedValidator != address(0)) {\n            _removeValidator(minStakingPoolIndex);\n        }\n        _addValidator(msgSender, minStakingPoolIndex);\n    }\n\n    function confirmUnbondedCandidate(address _candidateAddr) external {\n        ValidatorCandidate storage candidate = candidateProfiles[_candidateAddr];\n        require(candidate.status == CandidateStatus.Unbonding);\n        require(block.number >= candidate.unbondTime);\n\n        candidate.status = CandidateStatus.Unbonded;\n        delete candidate.unbondTime;\n        emit CandidateUnbonded(_candidateAddr);\n    }\n\n    // for withdrawing stakes of unbonded candidates\n    function withdrawFromUnbondedCandidate(\n        address _candidateAddr,\n        uint _amount\n    )\n        external\n        onlyNonZeroAddr(_candidateAddr)\n    {\n        ValidatorCandidate storage candidate = candidateProfiles[_candidateAddr];\n        require(candidate.status == CandidateStatus.Unbonded);\n\n        address msgSender = msg.sender;\n        _updateDelegatedStake(candidate, msgSender, _amount, MathOperation.Sub);\n        celerToken.safeTransfer(msgSender, _amount);\n\n        emit WithdrawFromUnbondedCandidate(msgSender, _candidateAddr, _amount);\n    }\n\n    function intendWithdraw(\n        address _candidateAddr,\n        uint _amount\n    )\n        external\n        onlyNonZeroAddr(_candidateAddr)\n    {\n        address msgSender = msg.sender;\n        ValidatorCandidate storage candidate = candidateProfiles[_candidateAddr];\n        Delegator storage delegator = candidate.delegatorProfiles[msgSender];\n\n        _updateDelegatedStake(candidate, msgSender, _amount, MathOperation.Sub);\n        delegator.undelegatingStake = delegator.undelegatingStake.add(_amount);\n        _validateValidator(_candidateAddr);\n\n        WithdrawIntent storage withdrawIntent = delegator.withdrawIntents[delegator.intentEndIndex];\n        withdrawIntent.amount = _amount;\n        withdrawIntent.intendTime = block.number;\n        delegator.intentEndIndex++;\n\n        emit IntendWithdraw(\n            msgSender,\n            _candidateAddr,\n            _amount,\n            withdrawIntent.intendTime\n        );\n    }\n\n    function confirmWithdraw(address _candidateAddr) external onlyNonZeroAddr(_candidateAddr) {\n        address msgSender = msg.sender;\n        Delegator storage delegator =\n            candidateProfiles[_candidateAddr].delegatorProfiles[msgSender];\n\n        uint bn = block.number;\n        uint i;\n        bool isUnbonded = candidateProfiles[_candidateAddr].status == CandidateStatus.Unbonded;\n        // for all undelegated withdraw intents\n        for (i = delegator.intentStartIndex; i < delegator.intentEndIndex; i++) {\n            WithdrawIntent storage wi = delegator.withdrawIntents[i];\n            if (isUnbonded || wi.intendTime.add(blameTimeout) <= bn) {\n                // withdraw intent is undelegated when the validator becomes unbonded or the blameTimeout\n                // for the withdraw intent is up.\n                delete delegator.withdrawIntents[i];\n                continue;\n            }\n            break;\n        }\n        delegator.intentStartIndex = i;\n        // for all undelegating withdraw intents\n        uint undelegatingStakeWithoutSlash = 0;\n        for (; i < delegator.intentEndIndex; i++) {\n            WithdrawIntent storage wi = delegator.withdrawIntents[i];\n            undelegatingStakeWithoutSlash = undelegatingStakeWithoutSlash.add(wi.amount);\n        }\n\n        uint withdrawAmt = 0;\n        if (delegator.undelegatingStake > undelegatingStakeWithoutSlash) {\n            withdrawAmt = delegator.undelegatingStake.sub(undelegatingStakeWithoutSlash);\n            delegator.undelegatingStake = undelegatingStakeWithoutSlash;\n\n            celerToken.safeTransfer(msgSender, withdrawAmt);\n        }\n\n        emit ConfirmWithdraw(msgSender, _candidateAddr, withdrawAmt);\n    }\n\n    function subscribe(uint _amount) external onlyValidSidechain {\n        address msgSender = msg.sender;\n\n        servicePool = servicePool.add(_amount);\n        subscriptionDeposits[msgSender] = subscriptionDeposits[msgSender].add(_amount);\n\n        celerToken.safeTransferFrom(\n            msgSender,\n            address(this),\n            _amount\n        );\n\n        emit AddSubscriptionBalance(msgSender, _amount);\n    }\n\n    function punish(bytes calldata _penaltyRequest) external onlyValidSidechain {\n        PbSgn.PenaltyRequest memory penaltyRequest = PbSgn.decPenaltyRequest(_penaltyRequest);\n        PbSgn.Penalty memory penalty = PbSgn.decPenalty(penaltyRequest.penalty);\n\n        bytes32 h = keccak256(penaltyRequest.penalty);\n        require(\n            _checkValidatorSigs(h, penaltyRequest.sigs),\n            \"Fail to check validator sigs\"\n        );\n        require(!usedPenaltyNonce[penalty.nonce], \"Used penalty nonce\");\n        require(block.number < penalty.expireTime, \"Penalty expired\");\n\n        usedPenaltyNonce[penalty.nonce] = true;\n\n        ValidatorCandidate storage validator = candidateProfiles[penalty.validatorAddress];\n        uint totalSubAmt = 0;\n        for (uint i = 0; i < penalty.penalizedDelegators.length; i++) {\n            PbSgn.AccountAmtPair memory penalizedDelegator = penalty.penalizedDelegators[i];\n            totalSubAmt = totalSubAmt.add(penalizedDelegator.amt);\n            emit Punish(penalty.validatorAddress, penalizedDelegator.account, penalizedDelegator.amt);\n\n            Delegator storage delegator = validator.delegatorProfiles[penalizedDelegator.account];\n            if (delegator.delegatedStake >= penalizedDelegator.amt) {\n                _updateDelegatedStake(validator, penalizedDelegator.account, penalizedDelegator.amt, MathOperation.Sub);\n            } else {\n                uint remainingAmt = penalizedDelegator.amt.sub(delegator.delegatedStake);\n                delegator.undelegatingStake = delegator.undelegatingStake.sub(remainingAmt);\n                _updateDelegatedStake(validator, penalizedDelegator.account, delegator.delegatedStake, MathOperation.Sub);\n            }\n        }\n        _validateValidator(penalty.validatorAddress);\n\n        uint totalAddAmt = 0;\n        for (uint i = 0; i < penalty.beneficiaries.length; i++) {\n            PbSgn.AccountAmtPair memory beneficiary = penalty.beneficiaries[i];\n            totalAddAmt = totalAddAmt.add(beneficiary.amt);\n            emit Indemnify(beneficiary.account, beneficiary.amt);\n\n            if (beneficiary.account == address(0)) {\n                // address(0) stands for miningPool\n                miningPool = miningPool.add(beneficiary.amt);\n            } else {\n                celerToken.safeTransfer(beneficiary.account, beneficiary.amt);\n            }\n        }\n\n        require(totalSubAmt == totalAddAmt, \"Amount doesn't match\");\n    }\n\n    function redeemReward(bytes calldata _rewardRequest) external onlyValidSidechain {\n        PbSgn.RewardRequest memory rewardRequest = PbSgn.decRewardRequest(_rewardRequest);\n        PbSgn.Reward memory reward = PbSgn.decReward(rewardRequest.reward);\n\n        bytes32 h = keccak256(rewardRequest.reward);\n        require(\n            _checkValidatorSigs(h, rewardRequest.sigs),\n            \"Fail to check validator sigs\"\n        );\n\n        uint newMiningReward =\n            reward.cumulativeMiningReward.sub(redeemedMiningReward[reward.receiver]);\n        redeemedMiningReward[reward.receiver] = reward.cumulativeMiningReward;\n        uint newServiceReward =\n            reward.cumulativeServiceReward.sub(redeemedServiceReward[reward.receiver]);\n        redeemedServiceReward[reward.receiver] = reward.cumulativeServiceReward;\n\n        miningPool = miningPool.sub(newMiningReward);\n        servicePool = servicePool.sub(newServiceReward);\n\n        celerToken.safeTransfer(reward.receiver, newMiningReward.add(newServiceReward));\n\n        emit RedeemReward(reward.receiver, newMiningReward, newServiceReward, miningPool, servicePool);\n    }\n\n    function isValidator(address _addr) public view returns (bool) {\n        return candidateProfiles[_addr].status == CandidateStatus.Bonded;\n    }\n\n    function getValidatorNum() public view returns (uint) {\n        uint num = 0;\n        for (uint i = 0; i < VALIDATOR_SET_MAX_SIZE; i++) {\n            if (validatorSet[i] != address(0)) {\n                num++;\n            }\n        }\n        return num;\n    }\n\n    function getMinStakingPool() public view returns (uint) {\n        uint minStakingPool = 0;\n        uint i = 0;\n        for (; i < VALIDATOR_SET_MAX_SIZE; i++) {\n            if (validatorSet[i] == address(0)) {\n                continue;\n            }\n\n            minStakingPool = candidateProfiles[validatorSet[i]].stakingPool;\n            break;\n        }\n\n        for (i++; i < VALIDATOR_SET_MAX_SIZE; i++) {\n            if (candidateProfiles[validatorSet[i]].stakingPool < minStakingPool) {\n                minStakingPool = candidateProfiles[validatorSet[i]].stakingPool;\n            }\n        }\n\n        return minStakingPool;\n    }\n\n    function getCandidateInfo(address _candidateAddr) public view returns (\n        bool initialized,\n        uint minSelfStake,\n        bytes memory sidechainAddr,\n        uint stakingPool,\n        uint status,\n        uint unbondTime\n    )\n    {\n        ValidatorCandidate storage c = candidateProfiles[_candidateAddr];\n\n        initialized = c.initialized;\n        minSelfStake = c.minSelfStake;\n        sidechainAddr = c.sidechainAddr;\n        stakingPool = c.stakingPool;\n        status = uint(c.status);\n        unbondTime = c.unbondTime;\n    }\n\n    function getDelegatorInfo(address _candidateAddr, address _delegatorAddr) public view\n        returns (\n        uint delegatedStake,\n        uint undelegatingStake,\n        uint[] memory intentAmounts,\n        uint[] memory intentIntendTimes\n    )\n    {\n        Delegator storage d = candidateProfiles[_candidateAddr].delegatorProfiles[_delegatorAddr];\n\n        uint len = d.intentEndIndex.sub(d.intentStartIndex);\n        intentAmounts = new uint[](len);\n        intentIntendTimes = new uint[](len);\n        for (uint i = d.intentStartIndex; i < d.intentEndIndex; i++) {\n            intentAmounts[i] = d.withdrawIntents[i].amount;\n            intentIntendTimes[i] = d.withdrawIntents[i].intendTime;\n        }\n\n        delegatedStake = d.delegatedStake;\n        undelegatingStake = d.undelegatingStake;\n    }\n\n    function getMinQuorumStakingPool() public view returns(uint) {\n        return totalValidatorStakingPool.mul(2).div(3).add(1);\n    }\n\n    function _updateDelegatedStake(\n        ValidatorCandidate storage _candidate,\n        address _delegatorAddr,\n        uint _amount,\n        MathOperation _op\n    )\n        private\n    {\n        Delegator storage delegator = _candidate.delegatorProfiles[_delegatorAddr];\n\n        if (_op == MathOperation.Add) {\n            _candidate.stakingPool = _candidate.stakingPool.add(_amount);\n            delegator.delegatedStake = delegator.delegatedStake.add(_amount);\n        } else if (_op == MathOperation.Sub) {\n            _candidate.stakingPool = _candidate.stakingPool.sub(_amount);\n            delegator.delegatedStake = delegator.delegatedStake.sub(_amount);\n        } else {\n            assert(false);\n        }\n    }\n\n    function _addValidator(address _validatorAddr, uint _setIndex) private {\n        require(validatorSet[_setIndex] == address(0));\n\n        validatorSet[_setIndex] = _validatorAddr;\n        candidateProfiles[_validatorAddr].status = CandidateStatus.Bonded;\n        delete candidateProfiles[_validatorAddr].unbondTime;\n        totalValidatorStakingPool = totalValidatorStakingPool.add(candidateProfiles[_validatorAddr].stakingPool);\n        emit ValidatorChange(_validatorAddr, ValidatorChangeType.Add);\n    }\n\n    function _removeValidator(uint _setIndex) private {\n        address removedValidator = validatorSet[_setIndex];\n        if (removedValidator == address(0)) {\n            return;\n        }\n\n        delete validatorSet[_setIndex];\n        candidateProfiles[removedValidator].status = CandidateStatus.Unbonding;\n        candidateProfiles[removedValidator].unbondTime = block.number.add(blameTimeout);\n        totalValidatorStakingPool = totalValidatorStakingPool.sub(candidateProfiles[removedValidator].stakingPool);\n        emit ValidatorChange(removedValidator, ValidatorChangeType.Removal);\n    }\n\n    function _validateValidator(address _validatorAddr) private {\n        ValidatorCandidate storage v = candidateProfiles[_validatorAddr];\n        if (v.status != CandidateStatus.Bonded) {\n            // no need to validate the stake of a non-validator\n            return;\n        }\n\n        bool lowSelfStake = v.delegatorProfiles[_validatorAddr].delegatedStake < v.minSelfStake;\n        bool lowStakingPool = v.stakingPool < minStakeInPool;\n\n        if (lowSelfStake || lowStakingPool) {\n            _removeValidator(_getValidatorIdx(_validatorAddr));\n        }\n    }\n\n    function _getValidatorIdx(address _addr) private view returns (uint) {\n        for (uint i = 0; i < VALIDATOR_SET_MAX_SIZE; i++) {\n            if (validatorSet[i] == _addr) {\n                return i;\n            }\n        }\n\n        revert(\"No such a validator\");\n    }\n\n    // validators with more than 2/3 total validators' staking pool need to sign this hash\n    function _checkValidatorSigs(bytes32 _h, bytes[] memory _sigs) private view returns(bool) {\n        uint minQuorumStakingPool = getMinQuorumStakingPool();\n\n        bytes32 hash = _h.toEthSignedMessageHash();\n        address addr;\n        uint quorumStakingPool = 0;\n        for (uint i = 0; i < _sigs.length; i++) {\n            addr = hash.recover(_sigs[i]);\n            if (candidateProfiles[addr].status == CandidateStatus.Bonded) {\n                quorumStakingPool = quorumStakingPool.add(candidateProfiles[addr].stakingPool);\n            }\n        }\n\n        return quorumStakingPool >= minQuorumStakingPool;\n    }\n}\n",
  "sourcePath": "/Users/zhuxuefeng/mygit/celer/sgn-contract/contracts/Guard.sol",
  "compiler": {
    "name": "solc",
    "version": "0.5.10+commit.5a6ea5b1.Emscripten.clang"
  },
  "schemaVersion": "3.0.16",
  "updatedAt": "2019-11-14T00:28:17.866Z",
  "devdoc": {
    "methods": {}
  },
  "userdoc": {
    "methods": {}
  }
}