{
  "contractName": "SGN",
  "abi": [
    {
      "constant": true,
      "inputs": [
        {
          "name": "",
          "type": "address"
        }
      ],
      "name": "subscriptionDeposits",
      "outputs": [
        {
          "name": "",
          "type": "uint256"
        }
      ],
      "payable": false,
      "stateMutability": "view",
      "type": "function"
    },
    {
      "constant": false,
      "inputs": [],
      "name": "unpause",
      "outputs": [],
      "payable": false,
      "stateMutability": "nonpayable",
      "type": "function"
    },
    {
      "constant": true,
      "inputs": [
        {
          "name": "account",
          "type": "address"
        }
      ],
      "name": "isPauser",
      "outputs": [
        {
          "name": "",
          "type": "bool"
        }
      ],
      "payable": false,
      "stateMutability": "view",
      "type": "function"
    },
    {
      "constant": true,
      "inputs": [],
      "name": "paused",
      "outputs": [
        {
          "name": "",
          "type": "bool"
        }
      ],
      "payable": false,
      "stateMutability": "view",
      "type": "function"
    },
    {
      "constant": false,
      "inputs": [],
      "name": "renouncePauser",
      "outputs": [],
      "payable": false,
      "stateMutability": "nonpayable",
      "type": "function"
    },
    {
      "constant": true,
      "inputs": [],
      "name": "DPoSContract",
      "outputs": [
        {
          "name": "",
          "type": "address"
        }
      ],
      "payable": false,
      "stateMutability": "view",
      "type": "function"
    },
    {
      "constant": false,
      "inputs": [],
      "name": "renounceOwnership",
      "outputs": [],
      "payable": false,
      "stateMutability": "nonpayable",
      "type": "function"
    },
    {
      "constant": false,
      "inputs": [
        {
          "name": "account",
          "type": "address"
        }
      ],
      "name": "addPauser",
      "outputs": [],
      "payable": false,
      "stateMutability": "nonpayable",
      "type": "function"
    },
    {
      "constant": false,
      "inputs": [],
      "name": "pause",
      "outputs": [],
      "payable": false,
      "stateMutability": "nonpayable",
      "type": "function"
    },
    {
      "constant": true,
      "inputs": [],
      "name": "owner",
      "outputs": [
        {
          "name": "",
          "type": "address"
        }
      ],
      "payable": false,
      "stateMutability": "view",
      "type": "function"
    },
    {
      "constant": true,
      "inputs": [],
      "name": "isOwner",
      "outputs": [
        {
          "name": "",
          "type": "bool"
        }
      ],
      "payable": false,
      "stateMutability": "view",
      "type": "function"
    },
    {
      "constant": true,
      "inputs": [
        {
          "name": "",
          "type": "address"
        }
      ],
      "name": "redeemedServiceReward",
      "outputs": [
        {
          "name": "",
          "type": "uint256"
        }
      ],
      "payable": false,
      "stateMutability": "view",
      "type": "function"
    },
    {
      "constant": true,
      "inputs": [],
      "name": "celerToken",
      "outputs": [
        {
          "name": "",
          "type": "address"
        }
      ],
      "payable": false,
      "stateMutability": "view",
      "type": "function"
    },
    {
      "constant": true,
      "inputs": [
        {
          "name": "",
          "type": "address"
        }
      ],
      "name": "sidechainAddrMap",
      "outputs": [
        {
          "name": "",
          "type": "bytes"
        }
      ],
      "payable": false,
      "stateMutability": "view",
      "type": "function"
    },
    {
      "constant": true,
      "inputs": [],
      "name": "servicePool",
      "outputs": [
        {
          "name": "",
          "type": "uint256"
        }
      ],
      "payable": false,
      "stateMutability": "view",
      "type": "function"
    },
    {
      "constant": false,
      "inputs": [
        {
          "name": "newOwner",
          "type": "address"
        }
      ],
      "name": "transferOwnership",
      "outputs": [],
      "payable": false,
      "stateMutability": "nonpayable",
      "type": "function"
    },
    {
      "inputs": [
        {
          "name": "_celerTokenAddress",
          "type": "address"
        },
        {
          "name": "_DPoSAddress",
          "type": "address"
        }
      ],
      "payable": false,
      "stateMutability": "nonpayable",
      "type": "constructor"
    },
    {
      "anonymous": false,
      "inputs": [
        {
          "indexed": false,
          "name": "account",
          "type": "address"
        }
      ],
      "name": "Paused",
      "type": "event"
    },
    {
      "anonymous": false,
      "inputs": [
        {
          "indexed": false,
          "name": "account",
          "type": "address"
        }
      ],
      "name": "Unpaused",
      "type": "event"
    },
    {
      "anonymous": false,
      "inputs": [
        {
          "indexed": true,
          "name": "account",
          "type": "address"
        }
      ],
      "name": "PauserAdded",
      "type": "event"
    },
    {
      "anonymous": false,
      "inputs": [
        {
          "indexed": true,
          "name": "account",
          "type": "address"
        }
      ],
      "name": "PauserRemoved",
      "type": "event"
    },
    {
      "anonymous": false,
      "inputs": [
        {
          "indexed": true,
          "name": "previousOwner",
          "type": "address"
        },
        {
          "indexed": true,
          "name": "newOwner",
          "type": "address"
        }
      ],
      "name": "OwnershipTransferred",
      "type": "event"
    },
    {
      "anonymous": false,
      "inputs": [
        {
          "indexed": true,
          "name": "candidate",
          "type": "address"
        },
        {
          "indexed": true,
          "name": "oldSidechainAddr",
          "type": "bytes"
        },
        {
          "indexed": true,
          "name": "newSidechainAddr",
          "type": "bytes"
        }
      ],
      "name": "UpdateSidechainAddr",
      "type": "event"
    },
    {
      "anonymous": false,
      "inputs": [
        {
          "indexed": true,
          "name": "consumer",
          "type": "address"
        },
        {
          "indexed": false,
          "name": "amount",
          "type": "uint256"
        }
      ],
      "name": "AddSubscriptionBalance",
      "type": "event"
    },
    {
      "anonymous": false,
      "inputs": [
        {
          "indexed": true,
          "name": "receiver",
          "type": "address"
        },
        {
          "indexed": false,
          "name": "cumulativeMiningReward",
          "type": "uint256"
        },
        {
          "indexed": false,
          "name": "serviceReward",
          "type": "uint256"
        },
        {
          "indexed": false,
          "name": "servicePool",
          "type": "uint256"
        }
      ],
      "name": "RedeemReward",
      "type": "event"
    },
    {
      "constant": false,
      "inputs": [
        {
          "name": "_amount",
          "type": "uint256"
        }
      ],
      "name": "drainToken",
      "outputs": [],
      "payable": false,
      "stateMutability": "nonpayable",
      "type": "function"
    },
    {
      "constant": false,
      "inputs": [
        {
          "name": "_sidechainAddr",
          "type": "bytes"
        }
      ],
      "name": "updateSidechainAddr",
      "outputs": [],
      "payable": false,
      "stateMutability": "nonpayable",
      "type": "function"
    },
    {
      "constant": false,
      "inputs": [
        {
          "name": "_amount",
          "type": "uint256"
        }
      ],
      "name": "subscribe",
      "outputs": [],
      "payable": false,
      "stateMutability": "nonpayable",
      "type": "function"
    },
    {
      "constant": false,
      "inputs": [
        {
          "name": "_rewardRequest",
          "type": "bytes"
        }
      ],
      "name": "redeemReward",
      "outputs": [],
      "payable": false,
      "stateMutability": "nonpayable",
      "type": "function"
    }
  ],
  "bytecode": "0x60806040523480156200001157600080fd5b506040516200195f3803806200195f833981810160405260408110156200003757600080fd5b508051602090910151600080546001600160a01b03191633178082556040516001600160a01b039190911691907f8be0079c531659141344cd1fd0a4f28419497f9722a3daafe3b4186f6b6457e0908290a36200009d336001600160e01b03620000d816565b600280546001600160a81b0319166101006001600160a01b0394851602179055600380546001600160a01b03191691909216179055620001b9565b620000f38160016200012a60201b620015a51790919060201c565b6040516001600160a01b038216907f6719d08c1888103bea251a4ed56406bd0c3e69723c8a1686e017e7bbe159b6f890600090a250565b6001600160a01b0381166200013e57600080fd5b6200015382826001600160e01b036200018316565b156200015e57600080fd5b6001600160a01b0316600090815260209190915260409020805460ff19166001179055565b60006001600160a01b0382166200019957600080fd5b506001600160a01b03166000908152602091909152604090205460ff1690565b61179680620001c96000396000f3fe608060405234801561001057600080fd5b506004361061012c5760003560e01c806382dc1ec4116100ad578063c6c21e9d11610071578063c6c21e9d146102f7578063e02f39bd146102ff578063e27b41101461036f578063e42a06c81461040a578063f2fde38b146104125761012c565b806382dc1ec4146102935780638456cb59146102b95780638da5cb5b146102c15780638f32d59b146102c9578063c57f6661146102d15761012c565b80635c975abb116100f45780635c975abb146101e75780636ef8d66d146101ef57806371273548146101f7578063715018a61461021b57806373a6e450146102235761012c565b80630f574ba714610131578063145aa116146101505780631e77733a1461016d5780633f4ba83a146101a557806346fbf68e146101ad575b600080fd5b61014e6004803603602081101561014757600080fd5b5035610438565b005b61014e6004803603602081101561016657600080fd5b50356105c4565b6101936004803603602081101561018357600080fd5b50356001600160a01b0316610603565b60408051918252519081900360200190f35b61014e610615565b6101d3600480360360208110156101c357600080fd5b50356001600160a01b0316610675565b604080519115158252519081900360200190f35b6101d3610690565b61014e61069a565b6101ff6106a5565b604080516001600160a01b039092168252519081900360200190f35b61014e6106b4565b61014e6004803603602081101561023957600080fd5b81019060208101813564010000000081111561025457600080fd5b82018360208201111561026657600080fd5b8035906020019184600183028401116401000000008311171561028857600080fd5b50909250905061070f565b61014e600480360360208110156102a957600080fd5b50356001600160a01b0316610a87565b61014e610aa2565b6101ff610b06565b6101d3610b15565b610193600480360360208110156102e757600080fd5b50356001600160a01b0316610b26565b6101ff610b38565b61014e6004803603602081101561031557600080fd5b81019060208101813564010000000081111561033057600080fd5b82018360208201111561034257600080fd5b8035906020019184600183028401116401000000008311171561036457600080fd5b509092509050610b4c565b6103956004803603602081101561038557600080fd5b50356001600160a01b0316610df9565b6040805160208082528351818301528351919283929083019185019080838360005b838110156103cf5781810151838201526020016103b7565b50505050905090810190601f1680156103fc5780820380516001836020036101000a031916815260200191505b509250505060405180910390f35b610193610e94565b61014e6004803603602081101561042857600080fd5b50356001600160a01b0316610e9a565b60025460ff161561044857600080fd5b600360009054906101000a90046001600160a01b03166001600160a01b031663eab2ed8c6040518163ffffffff1660e01b815260040160206040518083038186803b15801561049657600080fd5b505afa1580156104aa573d6000803e3d6000fd5b505050506040513d60208110156104c057600080fd5b5051610507576040805162461bcd60e51b815260206004820152601160248201527011141bd4c81a5cc81b9bdd081d985b1a59607a1b604482015290519081900360640190fd5b600554339061051c908363ffffffff610eb416565b6005556001600160a01b038116600090815260046020526040902054610548908363ffffffff610eb416565b6001600160a01b03808316600090815260046020526040902091909155600254610581916101009091041682308563ffffffff610ecd16565b6040805183815290516001600160a01b038316917fac095ced75d400384d8404a37883183a56b937b8ff8195fa0c52c3ccc8bb8a49919081900360200190a25050565b60025460ff166105d357600080fd5b6105db610b15565b6105e457600080fd5b6002546106009061010090046001600160a01b03163383610f63565b50565b60046020526000908152604090205481565b61061e33610675565b61062757600080fd5b60025460ff1661063657600080fd5b6002805460ff191690556040805133815290517f5db9ee0a495bf2e6ff9c91a7834c1ba4fdd244a5e8aa4e537bd38aeae4b073aa9181900360200190a1565b600061068860018363ffffffff610ffd16565b90505b919050565b60025460ff165b90565b6106a333611032565b565b6003546001600160a01b031681565b6106bc610b15565b6106c557600080fd5b600080546040516001600160a01b03909116907f8be0079c531659141344cd1fd0a4f28419497f9722a3daafe3b4186f6b6457e0908390a3600080546001600160a01b0319169055565b60025460ff161561071f57600080fd5b600360009054906101000a90046001600160a01b03166001600160a01b031663eab2ed8c6040518163ffffffff1660e01b815260040160206040518083038186803b15801561076d57600080fd5b505afa158015610781573d6000803e3d6000fd5b505050506040513d602081101561079757600080fd5b50516107de576040805162461bcd60e51b815260206004820152601160248201527011141bd4c81a5cc81b9bdd081d985b1a59607a1b604482015290519081900360640190fd5b600354604051631c0efd9d60e01b8152602060048201908152602482018490526001600160a01b0390921691631c0efd9d91859185918190604401848480828437600081840152601f19601f8201169050808301925050509350505050602060405180830381600087803b15801561085557600080fd5b505af1158015610869573d6000803e3d6000fd5b505050506040513d602081101561087f57600080fd5b50516108d2576040805162461bcd60e51b815260206004820152601c60248201527f4661696c20746f20636865636b2076616c696461746f72207369677300000000604482015290519081900360640190fd5b6108da61166b565b61091983838080601f01602080910402602001604051908101604052809392919081815260200183838082843760009201919091525061107a92505050565b9050610923611685565b815161092e906111d1565b80516001600160a01b0316600090815260066020526040808220549083015192935090916109619163ffffffff61129616565b60408084015184516001600160a01b0316600090815260066020529190912055600554909150610997908263ffffffff61129616565b6005556003548251602084015160408051630fbd844360e11b81526001600160a01b0393841660048201526024810192909252519190921691631f7b088691604480830192600092919082900301818387803b1580156109f657600080fd5b505af1158015610a0a573d6000803e3d6000fd5b50508351600254610a2c935061010090046001600160a01b0316915083610f63565b8151602080840151600554604080519283529282018590528183015290516001600160a01b03909216917f09251621f2e88c5e7f8df91fe1d9e9a70610e20e122945470fddd48af05104269181900360600190a25050505050565b610a9033610675565b610a9957600080fd5b610600816112ab565b610aab33610675565b610ab457600080fd5b60025460ff1615610ac457600080fd5b6002805460ff191660011790556040805133815290517f62e78cea01bee320cd4e420270b5ea74000d11b0c9f74754ebdbfc544b05a2589181900360200190a1565b6000546001600160a01b031690565b6000546001600160a01b0316331490565b60066020526000908152604090205481565b60025461010090046001600160a01b031681565b600354604080516328bde1e160e01b815233600482018190529151919260009283926001600160a01b03909216916328bde1e19160248083019260e0929190829003018186803b158015610b9f57600080fd5b505afa158015610bb3573d6000803e3d6000fd5b505050506040513d60e0811015610bc957600080fd5b50805160609091015190925090508015610c2a576040805162461bcd60e51b815260206004820152601a60248201527f6d73672e73656e646572206973206e6f7420756e626f6e646564000000000000604482015290519081900360640190fd5b81610c7c576040805162461bcd60e51b815260206004820152601c60248201527f43616e646964617465206973206e6f7420696e697469616c697a656400000000604482015290519081900360640190fd5b6001600160a01b03831660009081526007602090815260409182902080548351601f6002600019610100600186161502019093169290920491820184900484028101840190945280845260609392830182828015610d1b5780601f10610cf057610100808354040283529160200191610d1b565b820191906000526020600020905b815481529060010190602001808311610cfe57829003601f168201915b505050506001600160a01b0386166000908152600760205260409020919250610d4791905087876116af565b5085856040518083838082843760405192018290038220865190955086945091925082916020850191508083835b60208310610d945780518252601f199092019160209182019101610d75565b5181516020939093036101000a6000190180199091169216919091179052604051920182900382209350506001600160a01b03881691507f16de3299ab034ce7e21b22d55f4f9a1474bd3c4d20dbd1cc9bcd39c1ad3d5a2c90600090a4505050505050565b60076020908152600091825260409182902080548351601f600260001961010060018616150201909316929092049182018490048402810184019094528084529091830182828015610e8c5780601f10610e6157610100808354040283529160200191610e8c565b820191906000526020600020905b815481529060010190602001808311610e6f57829003601f168201915b505050505081565b60055481565b610ea2610b15565b610eab57600080fd5b610600816112f3565b600082820183811015610ec657600080fd5b9392505050565b604080516323b872dd60e01b81526001600160a01b0385811660048301528481166024830152604482018490529151918616916323b872dd916064808201926020929091908290030181600087803b158015610f2857600080fd5b505af1158015610f3c573d6000803e3d6000fd5b505050506040513d6020811015610f5257600080fd5b5051610f5d57600080fd5b50505050565b826001600160a01b031663a9059cbb83836040518363ffffffff1660e01b815260040180836001600160a01b03166001600160a01b0316815260200182815260200192505050602060405180830381600087803b158015610fc357600080fd5b505af1158015610fd7573d6000803e3d6000fd5b505050506040513d6020811015610fed57600080fd5b5051610ff857600080fd5b505050565b60006001600160a01b03821661101257600080fd5b506001600160a01b03166000908152602091909152604090205460ff1690565b61104360018263ffffffff61136116565b6040516001600160a01b038216907fcd265ebaf09df2871cc7bd4133404a235ba12eff2041bb89d9c714a2621c7c7e90600090a250565b61108261166b565b61108a61172d565b611093836113a9565b905060606110a882600263ffffffff6113c016565b9050806002815181106110b757fe5b60200260200101516040519080825280602002602001820160405280156110f257816020015b60608152602001906001900390816110dd5790505b50836020018190525060008160028151811061110a57fe5b6020026020010181815250506000805b61112384611450565b156111c8576111318461145c565b9092509050816001141561114f5761114884611489565b85526111c3565b81600214156111b35761116184611489565b85602001518460028151811061117357fe5b60200260200101518151811061118557fe5b60200260200101819052508260028151811061119d57fe5b60209081029190910101805160010190526111c3565b6111c3848263ffffffff61151616565b61111a565b50505050919050565b6111d9611685565b6111e161172d565b6111ea836113a9565b90506000805b6111f983611450565b1561128e576112078361145c565b909250905081600114156112365761122661122184611489565b611577565b6001600160a01b03168452611289565b816002141561125a5761125061124b84611489565b611582565b6020850152611289565b81600314156112795761126f61124b84611489565b6040850152611289565b611289838263ffffffff61151616565b6111f0565b505050919050565b6000828211156112a557600080fd5b50900390565b6112bc60018263ffffffff6115a516565b6040516001600160a01b038216907f6719d08c1888103bea251a4ed56406bd0c3e69723c8a1686e017e7bbe159b6f890600090a250565b6001600160a01b03811661130657600080fd5b600080546040516001600160a01b03808516939216917f8be0079c531659141344cd1fd0a4f28419497f9722a3daafe3b4186f6b6457e091a3600080546001600160a01b0319166001600160a01b0392909216919091179055565b6001600160a01b03811661137457600080fd5b61137e8282610ffd565b61138757600080fd5b6001600160a01b0316600090815260209190915260409020805460ff19169055565b6113b161172d565b60208101919091526000815290565b8151604080516001840180825260208082028301019092526060929180156113f2578160200160208202803883390190505b5091506000805b61140286611450565b15611447576114108661145c565b8092508193505050600184838151811061142657fe5b6020026020010181815101915081815250506114428682611516565b6113f9565b50509092525090565b60208101515190511090565b600080600061146a846115f1565b905060088104925080600716600581111561148157fe5b915050915091565b60606000611496836115f1565b83516020850151519192508201908111156114b057600080fd5b816040519080825280601f01601f1916602001820160405280156114db576020820181803883390190505b50602080860151865192955091818601919083010160005b8581101561150b5781810151838201526020016114f3565b505050935250919050565b600081600581111561152457fe5b141561153957611533826115f1565b50611573565b600281600581111561154757fe5b141561012c576000611558836115f1565b83518101808552602085015151919250111561153357600080fd5b5050565b60006106888261164c565b600060208251111561159357600080fd5b50602081810151915160089103021c90565b6001600160a01b0381166115b857600080fd5b6115c28282610ffd565b156115cc57600080fd5b6001600160a01b0316600090815260209190915260409020805460ff19166001179055565b602080820151825181019091015160009182805b600a8110156116465783811a91508060070282607f16901b85179450816080166000141561163e5785510160010185525061068b915050565b600101611605565b50600080fd5b6000815160141461165c57600080fd5b5060200151600160601b900490565b604051806040016040528060608152602001606081525090565b604051806060016040528060006001600160a01b0316815260200160008152602001600081525090565b828054600181600116156101000203166002900490600052602060002090601f016020900481019282601f106116f05782800160ff1982351617855561171d565b8280016001018555821561171d579182015b8281111561171d578235825591602001919060010190611702565b50611729929150611747565b5090565b604051806040016040528060008152602001606081525090565b61069791905b80821115611729576000815560010161174d56fea265627a7a72305820dce5e9d5b1baf5c21086b21668014f108ec5fe0f377dd679f2e5418f3e2257fb64736f6c634300050a0032",
  "source": "pragma solidity ^0.5.0;\n\nimport 'openzeppelin-solidity/contracts/math/SafeMath.sol';\nimport 'openzeppelin-solidity/contracts/token/ERC20/IERC20.sol';\nimport 'openzeppelin-solidity/contracts/token/ERC20/SafeERC20.sol';\nimport 'openzeppelin-solidity/contracts/cryptography/ECDSA.sol';\nimport 'openzeppelin-solidity/contracts/lifecycle/Pausable.sol';\nimport 'openzeppelin-solidity/contracts/ownership/Ownable.sol';\nimport './lib/interface/ISGN.sol';\nimport './lib/interface/IDPoS.sol';\nimport './lib/data/PbSgn.sol';\nimport './lib/DPoSCommon.sol';\n\n/**\n * @title Sidechain contract of State Guardian Network\n * @notice This contract implements the mainchain logic of Celer State Guardian Network sidechain\n * @dev specs: https://www.celer.network/docs/celercore/sgn/sidechain.html#mainchain-contracts\n */\ncontract SGN is ISGN, Ownable, Pausable {\n    using SafeMath for uint256;\n    using SafeERC20 for IERC20;\n    using ECDSA for bytes32;\n\n    struct ValidatorCandidate {\n        bytes sidechainAddr;\n    }\n\n    IERC20 public celerToken;\n    IDPoS public DPoSContract;\n    mapping(address => uint256) public subscriptionDeposits;\n    uint256 public servicePool;\n    mapping(address => uint256) public redeemedServiceReward;\n    mapping(address => bytes) public sidechainAddrMap;\n\n    /**\n     * @notice Throws if the given address is zero address\n     * @param _addr address to be checked\n     */\n    modifier onlyNonZeroAddr(address _addr) {\n        require(_addr != address(0), '0 address');\n        _;\n    }\n\n    /**\n     * @notice Throws if SGN sidechain is not valid\n     * @dev Check this before sidechain's operations\n     */\n    modifier onlyValidSidechain() {\n        require(DPoSContract.isValidDPoS(), 'DPoS is not valid');\n        _;\n    }\n\n    /**\n     * @notice SGN constructor\n     * @dev Need to deploy DPoS contract first before deploying SGN contract\n     * @param _celerTokenAddress address of Celer Token Contract\n     * @param _DPoSAddress address of DPoS Contract\n     */\n    constructor(address _celerTokenAddress, address _DPoSAddress) public {\n        celerToken = IERC20(_celerTokenAddress);\n        DPoSContract = IDPoS(_DPoSAddress);\n    }\n\n    /**\n     * @notice Onwer drains one type of tokens when the contract is paused\n     * @dev This is for emergency situations.\n     * @param _amount drained token amount\n     */\n    function drainToken(uint256 _amount) external whenPaused onlyOwner {\n        celerToken.safeTransfer(msg.sender, _amount);\n    }\n\n    /**\n     * @notice Update sidechain address\n     * @dev Note that the \"sidechain address\" here means the address in the offchain sidechain system,\n         which is different from the sidechain contract address\n     * @param _sidechainAddr the new address in the offchain sidechain system\n     */\n    function updateSidechainAddr(bytes calldata _sidechainAddr) external {\n        address msgSender = msg.sender;\n\n        (bool initialized, , , uint256 status, , , ) = DPoSContract\n            .getCandidateInfo(msgSender);\n        require(\n            status == uint256(DPoSCommon.CandidateStatus.Unbonded),\n            'msg.sender is not unbonded'\n        );\n        require(initialized, 'Candidate is not initialized');\n\n        bytes memory oldSidechainAddr = sidechainAddrMap[msgSender];\n        sidechainAddrMap[msgSender] = _sidechainAddr;\n\n        emit UpdateSidechainAddr(msgSender, oldSidechainAddr, _sidechainAddr);\n    }\n\n    /**\n     * @notice Subscribe the guardian service\n     * @param _amount subscription fee paid along this function call in CELR tokens\n     */\n    function subscribe(uint256 _amount)\n        external\n        whenNotPaused\n        onlyValidSidechain\n    {\n        address msgSender = msg.sender;\n\n        servicePool = servicePool.add(_amount);\n        subscriptionDeposits[msgSender] = subscriptionDeposits[msgSender].add(\n            _amount\n        );\n\n        celerToken.safeTransferFrom(msgSender, address(this), _amount);\n\n        emit AddSubscriptionBalance(msgSender, _amount);\n    }\n\n    /**\n     * @notice Redeem rewards\n     * @dev The rewards include both the service reward and mining reward\n     * @dev SGN contract acts as an interface for users to redeem mining rewards\n     * @param _rewardRequest reward request bytes coded in protobuf\n     */\n    function redeemReward(bytes calldata _rewardRequest)\n        external\n        whenNotPaused\n        onlyValidSidechain\n    {\n        require(\n            DPoSContract.validateMultiSigMessage(_rewardRequest),\n            'Fail to check validator sigs'\n        );\n\n        PbSgn.RewardRequest memory rewardRequest = PbSgn.decRewardRequest(\n            _rewardRequest\n        );\n        PbSgn.Reward memory reward = PbSgn.decReward(rewardRequest.reward);\n        uint256 newServiceReward = reward.cumulativeServiceReward.sub(\n            redeemedServiceReward[reward.receiver]\n        );\n        redeemedServiceReward[reward.receiver] = reward.cumulativeServiceReward;\n\n        servicePool = servicePool.sub(newServiceReward);\n\n        DPoSContract.redeemMiningReward(\n            reward.receiver,\n            reward.cumulativeMiningReward\n        );\n        celerToken.safeTransfer(reward.receiver, newServiceReward);\n\n        emit RedeemReward(\n            reward.receiver,\n            reward.cumulativeMiningReward,\n            newServiceReward,\n            servicePool\n        );\n    }\n}\n",
  "sourcePath": "/home/ubuntu/sgn-contract/contracts/SGN.sol",
  "compiler": {
    "name": "solc",
    "version": "0.5.10+commit.5a6ea5b1.Emscripten.clang"
  },
  "schemaVersion": "3.2.3",
  "updatedAt": "2020-09-02T05:52:35.086Z",
  "networkType": "ethereum",
  "devdoc": {
    "details": "specs: https://www.celer.network/docs/celercore/sgn/sidechain.html#mainchain-contracts",
    "methods": {
      "constructor": {
        "details": "Need to deploy DPoS contract first before deploying SGN contract",
        "params": {
          "_DPoSAddress": "address of DPoS Contract",
          "_celerTokenAddress": "address of Celer Token Contract"
        }
      },
      "drainToken(uint256)": {
        "details": "This is for emergency situations.",
        "params": {
          "_amount": "drained token amount"
        }
      },
      "isOwner()": {
        "return": "true if `msg.sender` is the owner of the contract."
      },
      "owner()": {
        "return": "the address of the owner."
      },
      "pause()": {
        "details": "called by the owner to pause, triggers stopped state"
      },
      "paused()": {
        "return": "true if the contract is paused, false otherwise."
      },
      "redeemReward(bytes)": {
        "details": "The rewards include both the service reward and mining rewardSGN contract acts as an interface for users to redeem mining rewards",
        "params": {
          "_rewardRequest": "reward request bytes coded in protobuf"
        }
      },
      "renounceOwnership()": {
        "details": "Allows the current owner to relinquish control of the contract."
      },
      "subscribe(uint256)": {
        "params": {
          "_amount": "subscription fee paid along this function call in CELR tokens"
        }
      },
      "transferOwnership(address)": {
        "details": "Allows the current owner to transfer control of the contract to a newOwner.",
        "params": {
          "newOwner": "The address to transfer ownership to."
        }
      },
      "unpause()": {
        "details": "called by the owner to unpause, returns to normal state"
      },
      "updateSidechainAddr(bytes)": {
        "details": "Note that the \"sidechain address\" here means the address in the offchain sidechain system, which is different from the sidechain contract address",
        "params": {
          "_sidechainAddr": "the new address in the offchain sidechain system"
        }
      }
    },
    "title": "Sidechain contract of State Guardian Network"
  },
  "userdoc": {
    "methods": {
      "constructor": "SGN constructor",
      "drainToken(uint256)": {
        "notice": "Onwer drains one type of tokens when the contract is paused"
      },
      "redeemReward(bytes)": {
        "notice": "Redeem rewards"
      },
      "renounceOwnership()": {
        "notice": "Renouncing to ownership will leave the contract without an owner. It will not be possible to call the functions with the `onlyOwner` modifier anymore."
      },
      "subscribe(uint256)": {
        "notice": "Subscribe the guardian service"
      },
      "updateSidechainAddr(bytes)": {
        "notice": "Update sidechain address"
      }
    },
    "notice": "This contract implements the mainchain logic of Celer State Guardian Network sidechain"
  }
}